:020000040800F2
:100000008006002079020008D11600084916000871
:10001000CD16000881030008FD180008000000004C
:10002000000000000000000000000000E1170008D0
:100030008503000800000000411700083918000877
:10004000930200089302000893020008930200083C
:10005000930200089302000893020008930200082C
:10006000930200089302000893020008930200081C
:10007000930200089302000893020008930200080C
:100080009302000800000000930200089302000899
:1000900093020008930200089302000893020008EC
:1000A00093020008930200089302000893020008DC
:1000B00093020008930200089302000893020008CC
:1000C00093020008930200089302000893020008BC
:1000D00093020008930200089302000893020008AC
:1000E000930200089302000893020008930200089C
:1000F0009302000893020008930200080000000029
:1001000000000000930200080000000093020008B5
:100110009302000800000000930200089302000808
:10012000930200089302000893020008930200085B
:100130009302000800000000000000009302000885
:100140009302000893020008000000000000000075
:10015000000000000000000000000000000000009F
:1001600000000000000000000000000093020008F2
:1001700093020008000000000000000000000000E2
:1001800000000000930200080000000000000000D2
:10019000000000000000000000000000000000005F
:1001A0000000000000000000930200089302000815
:1001B0009302000893020008930200080000000068
:1001C0000000000093020008000000000000000092
:1001D000930200089302000800F002F800F03CF8D7
:1001E0000AA090E8000C82448344AAF10107DA4592
:1001F00001D100F031F8AFF2090EBAE80F0013F0A8
:10020000010F18BFFB1A43F001031847FC17000049
:100210001C180000103A24BF78C878C1FAD85207D9
:1002200024BF30C830C144BF04680C607047000070
:100230000023002400250026103A28BF78C1FBD8EF
:10024000520728BF30C148BF0B6070471FB501F08F
:10025000C5FB1FBD10B510BD00F058F81146FFF7E3
:10026000F5FF01F095FB00F076F803B4FFF7F2FF1D
:1002700003BC00F07DF800000948804709480047AA
:10028000FEE7FEE7FEE7FEE7FEE7FEE7FEE7FEE746
:10029000FEE7FEE704480549054A064B70470000A3
:1002A000E9180008D901000880000020800600201D
:1002B00080020020800200204FF0000200B51346AB
:1002C00094469646203922BFA0E80C50A0E80C5076
:1002D000B1F12001BFF4F7AF090728BFA0E80C5027
:1002E00048BF0CC05DF804EB890028BF40F8042B20
:1002F00008BF704748BF20F8022B11F0804F18BF8D
:1003000000F8012B7047704770477047754600F042
:100310002BF8AE4605006946534620F00700854697
:1003200018B020B5FFF7B6FFBDE820404FF000063B
:100330004FF000074FF000084FF0000BAC46ACE860
:10034000C009ACE8C009ACE8C009ACE8C00921F0BC
:1003500007018D46704710B50446AFF30080204674
:10036000BDE81040FFF781BF004870471000002033
:1003700001491820ABBEFEE72600020070470000CE
:10038000FFE7FEE77047000081B0EFF3108072B620
:100390000090FFE7FEE700008BB00A900991002073
:1003A0000890FFE7099800680899C840002800F005
:1003B000A581FFE709980068089A0121914008404B
:1003C00007900798002800F09581FFE7099840689A
:1003D00000F00300012807D0FFE70998406800F00B
:1003E000030002282FD1FFE70A988068069008983A
:1003F0004100032000FA01F106988843069009980D
:10040000C0680899490000FA01F10698084306906F
:1004100006980A9988600A98406806900899012011
:1004200000FA01F106988843069009984068C0F3E5
:100430000010089900FA01F1069808430690069802
:100440000A994860FFE70998406800F00300032814
:1004500018D0FFE70A98C06806900898410003206A
:1004600000FA01F106988843069009988068089977
:10047000490000FA01F106980843069006980A9987
:10048000C860FFE70998406800F00300022826D101
:10049000FFE70A9808996FF0030202EA5101084445
:1004A000006A0690089800F0070081000F2000FA0B
:1004B00001F106988843069009980069089901F0AF
:1004C0000701890000FA01F1069808430690069892
:1004D0000A99089B02EA530211440862FFE70A984E
:1004E0000068069008984100032000FA01F1069880
:1004F000884306900998406800F003000899490075
:1005000000FA01F106980843069006980A990860D7
:10051000099880798007002800F0EB80FFE7FFE76B
:1005200041F26000C4F20200016841F00101016083
:10053000006800F0010005900598FFE7089820F09A
:1005400003000821C4F2010140580690089800F009
:10055000030081000F2000FA01F1069888430690FD
:100560000A98B0F1904F03D1FFE70020049042E0D9
:100570000A9840F20041C4F60001884203D1FFE727
:100580000120039034E00A9840F60001C4F600010F
:10059000884203D1FFE70220029026E00A9840F645
:1005A0000041C4F60001884203D1FFE70320019017
:1005B00018E00A9841F20001C4F60001884203D114
:1005C000FFE7042000900AE00A9941F20042C4F6D5
:1005D00000020620914208BF05200090FFE7009826
:1005E0000190FFE701980290FFE702980390FFE770
:1005F00003980490FFE70498089901F0030189002B
:1006000000FA01F10698084306900698089921F02F
:1006100003010822C4F20102885040F20840C4F2EB
:10062000010000680690079906988843069009988B
:100630008079C006002805D5FFE70799069808438A
:100640000690FFE7069840F20841C4F201010860F5
:1006500040F20C40C4F20100006806900799069829
:1006600088430690099880798006002805D5FFE721
:100670000799069808430690FFE7069840F20C4158
:10068000C4F20101086040F20440C4F201000068B5
:100690000690079906988843069009988079800704
:1006A000002805D5FFE70799069808430690FFE75D
:1006B000069840F20441C4F20101086040F2004093
:1006C000C4F20100006806900799069888430690D6
:1006D00009988079C00728B1FFE707990698084371
:1006E0000690FFE7069840F20041C4F2010108605D
:1006F000FFE7FFE708980130089053E60BB070471A
:1007000082B00190ADF802108DF801209DF8010033
:1007100028B1FFE7BDF802000199886104E0BDF847
:10072000020001998862FFE702B0704740F278004A
:10073000C2F200000068704740F20400C2F20000FC
:10074000026840F27801C2F20001086810440860B3
:100750007047000080B582B000208DF807000320AC
:1007600000F090F80F2000F00DF820B1FFE7012015
:100770008DF8070002E000F049F8FFE79DF8070058
:1007800002B080BD80B582B0019000208DF80300DA
:1007900040F20400C2F20000006878B3FFE740F2C4
:1007A0000000C2F20000006840F20401C2F2000141
:1007B0000A684FF47A71B1FBF2F1B0FBF1F000F08E
:1007C0003BFFB0B9FFE701980F280DD8FFE701996B
:1007D0004FF0FF30002200F03DF8019840F2080190
:1007E000C2F20001086003E001208DF80300FFE77A
:1007F00003E001208DF80300FFE703E001208DF8FE
:100800000300FFE79DF8030002B080BD80B582B011
:10081000FFE741F26000C4F20200016841F001010B
:100820000160006800F0010001900198FFE7FFE718
:1008300041F25800C4F20200016841F080510160A9
:10084000006800F0805000900098FFE700F0FCF88E
:1008500002B080BD80B586B08DF817000491039278
:1008600001F04EF802909DF917000190029804994A
:10087000039A00F02FFF0146019801F049F806B0F5
:1008800080BD000080B582B00190019801F062F84F
:1008900002B080BD85B00390039800285ED1FFE7C9
:1008A00047F20000C4F20000006800F4C060B0F538
:1008B000806F49D1FFE747F28001C4F20001086868
:1008C00020F48070086047F20002C4F20002116850
:1008D000012060F34A21116040F20001C2F20001E0
:1008E0000968322251434DF68362C4F21B32A1FBE8
:1008F000022100EB91400290FFE747F21400C4F29E
:1009000000000168002049050029019006D5FFE795
:100910000298002818BF01200190FFE70198C00746
:1009200020B1FFE7029801380290E6E747F2140091
:10093000C4F2000000684005002804D5FFE703204A
:100940008DF813007CE008E047F28001C4F200015A
:10095000086820F480700860FFE76DE00398B0F548
:10096000007F5ED1FFE747F20000C4F2000000689C
:1009700000F4C060B0F5806F49D1FFE747F2800115
:10098000C4F20001086840F48070086047F2000279
:10099000C4F200021168012060F34A21116040F2A4
:1009A0000001C2F200010968322251434DF6836210
:1009B000C4F21B32A1FB022100EB91400290FFE741
:1009C00047F21400C4F20000016800204905002924
:1009D000009006D5FFE70298002818BF012000907C
:1009E000FFE70098C00720B1FFE7029801380290A6
:1009F000E6E747F21400C4F2000000684005002852
:100A000004D5FFE703208DF8130019E008E047F252
:100A10008001C4F20001086840F480700860FFE7BC
:100A200009E047F20001C4F200010868022262F303
:100A30004A200860FFE7FFE700208DF81300FFE77A
:100A40009DF8130005B0704747F20801C4F2000199
:100A5000086840F4804008607047000080B586B0A8
:100A60000490039100200090049820B9FFE7012032
:100A70008DF8170081E1039842F20001C4F20201EF
:100A8000096801F00F01884216D9FFE742F2000021
:100A9000C4F20200016821F00F01039A11430160C2
:100AA000006800F00F000399884204D0FFE701209E
:100AB0008DF8170061E1FFE704980078C00700286F
:100AC00000F0A380FFE704984068032839D1FFE7CE
:100AD00041F20000C4F2020000688001002804D442
:100AE000FFE701208DF8170047E100F02BFE019091
:100AF00001984BF20141C0F2C441884220D3FFE784
:100B000041F20800C4F20200006810F0F00F0AD0B1
:100B1000FFE7049800788007002810D5FFE70498C5
:100B2000806860B9FFE741F20801C4F20201086879
:100B3000082262F30710086080200090FFE7FFE7BB
:100B400038E00498406802280ED1FFE741F2000027
:100B5000C4F2020000688003002804D4FFE70120EB
:100B60008DF8170009E10DE041F20000C4F2020027
:100B700000684005002804D4FFE701208DF8170025
:100B8000FBE0FFE700F0FEF8019001984BF2014115
:100B9000C0F2C44188420CD3FFE741F20801C4F21D
:100BA00002010868082262F30710086080200090A4
:100BB000FFE7FFE741F20801C4F20201086820F0F4
:100BC0000300049A526810430860FFF7AFFD0290DB
:100BD000FFE741F20800C4F20200006800F00C00D8
:100BE00004994968B0EB810F0ED0FFE7FFF79EFD37
:100BF0000299401A41F28931884204D3FFE7032069
:100C00008DF81700B9E0E4E7FFE704980078800763
:100C100000282CD5FFE7049800784007002809D564
:100C2000FFE741F20801C4F20201086840F4E06005
:100C30000860FFE704980078000700280BD5FFE75D
:100C400041F20801C4F20201086840F4E06020F4B7
:100C500060500860FFE741F20801C4F20201086831
:100C600020F0F000049A9268104308600DE00098AC
:100C7000802809D1FFE741F20801C4F202010868A7
:100C800020F0F0000860FFE7FFE7039842F2000160
:100C9000C4F20201096801F00F01884228D2FFE77F
:100CA00042F20001C4F20201086820F00F00039A2A
:100CB00010430860FFF73AFD0290FFE742F20000A0
:100CC000C4F20200006800F00F00039988420ED0C1
:100CD000FFE7FFF72BFD0299401A41F28931884264
:100CE00004D3FFE703208DF8170046E0E6E7FFE7AF
:100CF00004980078400700280CD5FFE741F208016E
:100D0000C4F20201086820F4E060049AD26810433B
:100D10000860FFE704980078000700280DD5FFE77A
:100D200041F20801C4F20201086820F46050049AFC
:100D3000126940EAC2000860FFE700F023F841F2C0
:100D40000801C4F202010968C9B20A0941F6F611A4
:100D5000C0F60001895C01F01F01C84040F20001AB
:100D6000C2F20001086040F20800C2F20000006810
:100D7000FFF708FD8DF81700FFE79DF8170006B094
:100D800080BD000086B041F20800C4F20200006895
:100D900000F00C00042806D1FFE742F20040C0F248
:100DA000F400019069E041F20800C4F2020000681A
:100DB00000F00C00082806D1FFE741F60030C0F231
:100DC000B700019058E041F20800C4F20200006848
:100DD00000F00C000C284BD1FFE741F20C00C4F2EC
:100DE0000200016801F0030104910068C1B2012012
:100DF00000EB1110029004980090022815D0FFE734
:100E00000098032812D1FFE7029941F60030C0F2A2
:100E1000B700B0FBF1F041F20C01C4F20201096825
:100E2000C1F306214843059011E0FFE7029942F221
:100E30000040C0F2F400B0FBF1F041F20C01C4F24A
:100E400002010968C1F3062148430590FFE741F21A
:100E50000C00C4F20200006800F0C061022000EB48
:100E60001160039005980399B0FBF1F0019002E046
:100E700000200190FFE7FFE7FFE7019806B0704709
:100E8000B0B588B00690069820B9FFE701208DF82C
:100E90001F00CCE306980078C007002800F09B8074
:100EA000FFE741F20800C4F20200006800F00C0005
:100EB000049041F20C00C4F20200006800F003004C
:100EC000039004980C2804D1FFE70398032804D06A
:100ED000FFE70498082812D1FFE741F20000C4F2AE
:100EE000020000688003002808D5FFE706984068E4
:100EF00020B9FFE701208DF81F0098E36AE0FFE7C3
:100F000006984068B0F5803F09D1FFE741F2000143
:100F1000C4F20201086840F48030086020E00698BE
:100F20004068B0F5A02F0DD1FFE741F20001C4F2F7
:100F30000201086840F480200860086840F48030AE
:100F400008600CE041F20001C4F20201086820F4DC
:100F500080300860086820F480200860FFE7FFE721
:100F6000FFE706984068D0B1FFE7FFF7DFFB059089
:100F7000FFE741F20000C4F202000068800300288D
:100F80000CD4FFE7FFF7D2FB0599401A652804D37C
:100F9000FFE703208DF81F0049E3EAE719E0FFF7B8
:100FA000C5FB0590FFE741F20000C4F202000068B3
:100FB000800300280CD5FFE7FFF7B8FB0599401A1E
:100FC000652804D3FFE703208DF81F002FE3EAE72D
:100FD000FFE7FFE7FFE7069800788007002840F169
:100FE0009F80FFE741F20800C4F20200006800F0B1
:100FF0000C00049041F20C00C4F20200006800F002
:101000000300039004980C2804D1FFE703980228FA
:1010100004D0FFE7049804282CD1FFE741F2000038
:10102000C4F2020000684005002808D5FFE70698D2
:10103000C06820B9FFE701208DF81F00F7E241F2F8
:101040000401C4F20201086820F0FE40069A126909
:1010500040EA0260086040F20800C2F20000006846
:10106000FFF790FB20B1FFE701208DF81F00DEE2C3
:10107000FFE754E00698C06870B3FFE741F2000153
:10108000C4F20201086840F480700860FFF74EFB6C
:101090000590FFE741F20000C4F20200006840053D
:1010A00000280CD4FFE7FFF741FB0599401A0328FD
:1010B00004D3FFE703208DF81F00B8E2EAE741F20E
:1010C0000401C4F20201086820F0FE40069A126989
:1010D00040EA0260086021E041F20001C4F202012E
:1010E000086820F480700860FFF720FB0590FFE798
:1010F00041F20000C4F202000068400500280CD54F
:10110000FFE7FFF713FB0599401A032804D3FFE715
:1011100003208DF81F008AE2EAE7FFE7FFE7FFE719
:10112000069800780007002849D5FFE7069840692F
:1011300010B3FFE741F29401C4F20201086840F0E5
:1011400001000860FFF7F2FA0590FFE741F2940012
:10115000C4F202000068800700280CD4FFE7FFF704
:10116000E5FA0599401A032804D3FFE703208DF818
:101170001F005CE2EAE721E041F29401C4F20201BF
:10118000086820F001000860FFF7D0FA0590FFE73B
:1011900041F29400C4F202000068800700280CD5D8
:1011A000FFE7FFF7C3FA0599401A032804D3FFE7C6
:1011B00003208DF81F003AE2EAE7FFE7FFE7069811
:1011C00000784007002840F1C680FFE700208DF836
:1011D0000B0041F25800C4F202000068C000002871
:1011E00013D4FFE7FFE741F25800C4F202000168A0
:1011F00041F080510160006800F08050019001983A
:10120000FFE701208DF80B00FFE747F20000C4F272
:1012100000000068C005002822D4FFE747F2000163
:10122000C4F20001086840F480700860FFF77EFA9D
:101230000590FFE747F20000C4F200000068C00517
:1012400000280CD4FFE7FFF771FA0599401A03282C
:1012500004D3FFE703208DF81F00E8E1EAE7FFE78A
:10126000FFE706988068012809D1FFE741F2900165
:10127000C4F20201086840F0010008601FE006980F
:10128000806805280DD1FFE741F29001C4F2020108
:10129000086840F004000860086840F00100086039
:1012A0000CE041F29001C4F20201086820F0010054
:1012B0000860086820F004000860FFE7FFE7FFE728
:1012C00006988068E0B1FFE7FFF730FA0590FFE786
:1012D00041F29000C4F202000068800700280ED49A
:1012E000FFE7FFF723FA0599401A41F28931884256
:1012F00004D3FFE703208DF81F0098E1E8E71BE027
:10130000FFF714FA0590FFE741F29000C4F20200E3
:101310000068800700280ED5FFE7FFF707FA059958
:10132000401A41F28931884204D3FFE703208DF847
:101330001F007CE1E8E7FFE79DF80B00012809D1D9
:10134000FFE741F25801C4F20201086820F0805022
:101350000860FFE7FFE7069800788006002849D577
:10136000FFE70698806910B3FFE741F29801C4F2E5
:101370000201086840F001000860FFF7D7F9059006
:10138000FFE741F29800C4F20200006880070028DD
:101390000CD4FFE7FFF7CAF90599401A032804D3D4
:1013A000FFE703208DF81F0041E1EAE721E041F269
:1013B0009801C4F20201086820F001000860FFF7FC
:1013C000B5F90590FFE741F29800C4F20200006809
:1013D000800700280CD5FFE7FFF7A8F90599401A08
:1013E000032804D3FFE703208DF81F001FE1EAE77D
:1013F000FFE7FFE70698C069002800F01481FFE7C7
:1014000041F20800C4F20200006800F00C000C2851
:1014100000F0B080FFE70698C06902287CD1FFE7A2
:1014200041F20001C4F20201086820F080700860F7
:10143000FFF77CF90590FFE741F20000C4F20200DB
:101440000068800100280CD5FFE7FFF76FF90599C8
:10145000401A032804D3FFE703208DF81F00E6E0BD
:10146000EAE741F20C01C4F20201086848F20C02FA
:10147000C0F29F121040DDF818C0DCF82020DCF824
:101480002450DCF828E0DCF82C306FF00F0404EB7B
:101490000514224342EA0E22DCF8304040F2000EEE
:1014A000CFF6E07E0EEA045EAEF5001E42EA0E02C2
:1014B000DCF834E04FF07E4C0CEA0E6C0CF17E4C04
:1014C00042EA0C0242EAC3621043086041F20002A1
:1014D000C4F20202106840F080701060086840F0AA
:1014E00080700860FFF722F90590FFE741F20000E5
:1014F000C4F202000068800100280CD4FFE7FFF767
:1015000015F90599401A032804D3FFE703208DF845
:101510001F008CE0EAE72CE041F20001C4F2020176
:10152000086820F080700860FFF700F90590FFE779
:1015300041F20000C4F202000068800100280CD5CE
:10154000FFE7FFF7F3F80599401A032804D3FFE7F4
:1015500003208DF81F006AE0EAE741F20C01C4F2B3
:10156000020108684FF6FC72CFF6EE621040086088
:10157000FFE757E00698C069012804D1FFE7012082
:101580008DF81F0053E041F20C00C4F20200006825
:101590000390039800F003000699096A88423BD142
:1015A000FFE7039800F0F00006994A6A6FF00F0118
:1015B00001EB021188422FD1FFE7039800F4FE40AF
:1015C0000699896AB0EB012F26D1FFE7039800F056
:1015D00078400699C96AB0EBC16F1DD1FFE7039847
:1015E00000F4C00006990A6B0021CFF6E07101EA11
:1015F0000251A1F5001188420ED1FFE7039800F0D7
:10160000C06006994A6B4FF07E4101EA026101F128
:101610007E41884204D0FFE701208DF81F0006E0DC
:10162000FFE7FFE7FFE700208DF81F00FFE79DF8C9
:101630001F0008B0B0BD000080B582B001900198D5
:1016400000F0D0F802B080BDFFE7FEE780B58AB0B9
:10165000002009900890079006900590FFE741F25E
:101660004C00C4F20200016841F00401016000680E
:1016700000F0040004900498FFE7FFE741F24C00FB
:10168000C4F20200016841F020010160006800F02E
:10169000200003900398FFE740F60000C4F6000026
:1016A00002904FF40051009100220192FFF728F8B8
:1016B000009A0199029805920122069207910891D9
:1016C00005A9FEF769FE0AB080BD0000FFE7FEE74E
:1016D000FFE7FEE788B0079006910592079800F0B3
:1016E000070004900498C0F10700052803D3FFE722
:1016F0000420019004E00498C0F107000190FFE786
:101700000198039004980430062803D8FFE70020CE
:10171000009003E0049803380090FFE700980290DF
:1017200006980399012202FA01F101390840029B4F
:10173000984005999A40013A1140084308B0704713
:101740007047000086B041F20C00C4F2020001684C
:1017500001F0030104910068C1B2012000EB1110F7
:10176000029004980090022815D0FFE70098032803
:1017700012D1FFE7029941F60030C0F2B700B0FB8A
:10178000F1F041F20C01C4F202010968C1F3062133
:101790004843059011E0FFE7029942F20040C0F291
:1017A000F400B0FBF1F041F20C01C4F2020109684F
:1017B000C1F3062148430590FFE741F20C00C4F253
:1017C0000200006800F0C061022000EB116003908D
:1017D00005980399B0FBF1F00190019806B07047AD
:1017E0007047000080B582B0009000980138B0F1D9
:1017F000807F03D3FFE70120019019E000980138B2
:101800004EF21401CEF2000108604FF0FF300F21BC
:1018100000F07EF84EF21801CEF2000100200860C0
:101820004EF21002CEF20002072111600190FFE794
:10183000019802B080BD000080B540F27400C2F291
:1018400000000168013101600068B0F57A7F0DDBAE
:10185000FFE740F27401C2F200010020086040F28C
:101860007001C2F2000101200860FFE7FEF764FF8B
:1018700080BD000080B594B006A800903821FEF726
:101880001BFD002005900490039002900190FFF74B
:1018900001F80098012106914FF48031079102214F
:1018A0000D9103220E920F925522109211911291D6
:1018B0001391FFF7E5FA18B1FFE7FEF765FDFFE7C3
:1018C0000F200190032002900020039004900590C7
:1018D00001A80421FFF7C2F818B1FFE7FEF754FD95
:1018E000FFE714B080BD00004EF68851CEF2000133
:1018F000086840F47000086070470000FFE7FEE7EA
:101900004EF60C50CEF200000068C0F30220704783
:1019100082B08DF8070000919DF9070000280AD4D5
:10192000FFE7009800019DF907104EF20042CEF249
:10193000000288540BE0009800019DF8071001F0A8
:101940000F014EF61452CEF200028854FFE702B0A7
:101950007047000083B00290029800F007000090EA
:101960004EF60C51CEF200010868019001984FF636
:10197000FF02104001900198009A40EA02200022E4
:10198000C0F2FA52104301900198086003B070470A
:1019900080B582B000200190FEF7DCFEFFF76AFF01
:1019A000FFF754FE4FF47A700090FFE740F27000AA
:1019B000C2F20000006801280FD1FFE740F2700179
:1019C000C2F200010020086040F61401C4F60001D4
:1019D000086880F400500860FFE7E7E7F1EE100ABE
:1019E0004FF6FF71C0F2C03120EA010040F04070B4
:1019F000E1EE100A70470000000000000000010244
:101A00000304060708090000281A00080000002047
:101A10001000000014020008381A0008100000200E
:101A200070060000300200080024F40001000000ED
:081A300010000000000000009E
:04000005080001D915
:00000001FF
