:020000040800F2
:100000001807002079020008252700084525000868
:100010002127000881030008853300080000000044
:10002000000000000000000000000000352800086B
:100030008503000800000000952700088D280008AF
:10004000930200089302000893020008930200083C
:10005000930200089302000893020008930200082C
:10006000930200089302000893020008930200081C
:10007000930200089302000893020008930200080C
:100080009302000800000000930200089302000899
:1000900093020008930200089302000893020008EC
:1000A00093020008930200089302000893020008DC
:1000B00093020008930200089302000893020008CC
:1000C00093020008930200089302000893020008BC
:1000D00093020008930200089302000893020008AC
:1000E000930200089302000893020008930200089C
:1000F0009302000893020008930200080000000029
:1001000000000000930200080000000093020008B5
:100110009302000800000000512900089302000823
:10012000930200089302000893020008930200085B
:100130009302000800000000000000009302000885
:100140009302000893020008000000000000000075
:10015000000000000000000000000000000000009F
:1001600000000000000000000000000093020008F2
:1001700093020008000000000000000000000000E2
:1001800000000000930200080000000000000000D2
:10019000000000000000000000000000000000005F
:1001A0000000000000000000930200089302000815
:1001B0009302000893020008930200080000000068
:1001C0000000000093020008000000000000000092
:1001D000930200089302000800F002F800F03CF8D7
:1001E0000AA090E8000C82448344AAF10107DA4592
:1001F00001D100F031F8AFF2090EBAE80F0013F0A8
:10020000010F18BFFB1A43F001031847CC3B000055
:10021000EC3B0000103A24BF78C878C1FAD85207E6
:1002200024BF30C830C144BF04680C607047000070
:100230000023002400250026103A28BF78C1FBD8EF
:10024000520728BF30C148BF0B6070471FB503F08D
:1002500094FD1FBD10B510BD00F058F81146FFF712
:10026000F5FF03F0F1F800F076F803B4FFF7F2FFC2
:1002700003BC00F07DF800000948804709480047AA
:10028000FEE7FEE7FEE7FEE7FEE7FEE7FEE7FEE746
:10029000FEE7FEE704480549054A064B70470000A3
:1002A0003D290008D9010008180100201807002086
:1002B00018030020180300204FF0000200B5134679
:1002C00094469646203922BFA0E80C50A0E80C5076
:1002D000B1F12001BFF4F7AF090728BFA0E80C5027
:1002E00048BF0CC05DF804EB890028BF40F8042B20
:1002F00008BF704748BF20F8022B11F0804F18BF8D
:1003000000F8012B7047704770477047754600F042
:100310002BF8AE4605006946534620F00700854697
:1003200018B020B5FFF7B6FFBDE820404FF000063B
:100330004FF000074FF000084FF0000BAC46ACE860
:10034000C009ACE8C009ACE8C009ACE8C00921F0BC
:1003500007018D46704710B50446AFF30080204674
:10036000BDE81040FFF781BF004870471000002033
:1003700001491820ABBEFEE72600020070470000CE
:10038000FFE7FEE77047000081B0EFF3108072B620
:100390000090FFE7FEE7000080B584B0039000F016
:1003A000D1F90290039801900198013048B1FFE71C
:1003B00040F20400C2F20000016801980844019074
:1003C000FFE7FFE700F0BEF90299401A0199884261
:1003D00001D2FFE7F6E704B080BD00008BB00A90C1
:1003E000099100200890FFE7099800680899C84023
:1003F000002800F0A581FFE709980068089A01210C
:100400009140084007900798002800F09581FFE789
:100410000998406800F00300012807D0FFE7099819
:10042000406800F0030002282FD1FFE70A98806897
:10043000069008984100032000FA01F106988843CD
:1004400006900998C0680899490000FA01F10698D9
:100450000843069006980A9988600A9840680690B2
:100460000899012000FA01F106988843069009983E
:100470004068C0F30010089900FA01F1069808439B
:10048000069006980A994860FFE70998406800F0CE
:100490000300032818D0FFE70A98C0680690089860
:1004A0004100032000FA01F106988843069009985C
:1004B00080680899490000FA01F1069808430690FF
:1004C00006980A99C860FFE70998406800F00300A1
:1004D000022826D1FFE70A9808996FF0030202EA82
:1004E00051010844006A0690089800F00700810056
:1004F0000F2000FA01F106988843069009980069D8
:10050000089901F00701890000FA01F106980843F3
:10051000069006980A99089B02EA53021144086261
:10052000FFE70A980068069008984100032000FA47
:1005300001F10698884306900998406800F003008E
:100540000899490000FA01F10698084306900698B8
:100550000A990860099880798007002800F0EB80EC
:10056000FFE7FFE741F26000C4F20200016841F0DA
:1005700001010160006800F0010005900598FFE7A7
:10058000089820F003000821C4F2010140580690A9
:10059000089800F0030081000F2000FA01F106988E
:1005A000884306900A98B0F1904F03D1FFE70020EE
:1005B000049042E00A9840F20041C4F600018842EB
:1005C00003D1FFE70120039034E00A9840F60001D0
:1005D000C4F60001884203D1FFE70220029026E022
:1005E0000A9840F60041C4F60001884203D1FFE7B3
:1005F0000320019018E00A9841F20001C4F60001BE
:10060000884203D1FFE7042000900AE00A9941F2F2
:100610000042C4F600020620914208BF0520009067
:10062000FFE700980190FFE701980290FFE702982A
:100630000390FFE703980490FFE70498089901F0FE
:100640000301890000FA01F1069808430690069814
:10065000089921F003010822C4F20102885040F2F7
:100660000840C4F201000068069007990698884384
:10067000069009988079C006002805D5FFE70799FC
:10068000069808430690FFE7069840F20841C4F236
:100690000101086040F20C40C4F2010000680690BD
:1006A0000799069888430690099880798006002863
:1006B00005D5FFE70799069808430690FFE70698D7
:1006C00040F20C41C4F20101086040F20440C4F25F
:1006D00001000068069007990698884306900998DB
:1006E00080798007002805D5FFE707990698084319
:1006F0000690FFE7069840F20441C4F20101086049
:1007000040F20040C4F20100006806900799069884
:100710008843069009988079C00728B1FFE70799B8
:10072000069808430690FFE7069840F20041C4F29D
:1007300001010860FFE7FFE708980130089053E6E1
:100740000BB0704740F21010C2F200000068704712
:1007500040F20400C2F20000026840F21011C2F23E
:1007600000010868104408607047000080B582B03E
:1007700000208DF80700032000F09AF80F2000F009
:100780000DF820B1FFE701208DF8070002E000F02E
:1007900049F8FFE79DF8070002B080BD80B582B040
:1007A000019000208DF8030040F20400C2F2000026
:1007B000006878B3FFE740F20000C2F20000006872
:1007C00040F20401C2F200010A684FF47A71B1FBF1
:1007D000F2F1B0FBF1F000F045FFB0B9FFE701988E
:1007E0000F280DD8FFE701994FF0FF30002200F0ED
:1007F00047F8019840F20801C2F20001086003E0E6
:1008000001208DF80300FFE703E001208DF80300CD
:10081000FFE703E001208DF80300FFE79DF80300E8
:1008200002B080BD80B582B0FFE741F26000C4F243
:100830000200016841F001010160006800F0010060
:1008400001900198FFE7FFE741F25800C4F202006F
:10085000016841F080510160006800F08050009014
:100860000098FFE700F006F902B080BD80B582B0C5
:100870008DF807009DF9070002F086FD02B080BDEB
:1008800080B586B08DF817000491039202F094FDB4
:1008900002909DF91700019002980499039A01F0C3
:1008A00043FF0146019802F08FFD06B080BD0000B5
:1008B00080B582B00190019802F0A8FD02B080BD21
:1008C00085B00390039800285ED1FFE747F200004F
:1008D000C4F20000006800F4C060B0F5806F49D138
:1008E000FFE747F28001C4F20001086820F480703D
:1008F000086047F20002C4F200021168012060F3B0
:100900004A21116040F20001C2F20001096832225E
:1009100051434DF68362C4F21B32A1FB022100EB6E
:1009200091400290FFE747F21400C4F20000016812
:10093000002049050029019006D5FFE7029800280C
:1009400018BF01200190FFE70198C00720B1FFE721
:10095000029801380290E6E747F21400C4F2000062
:1009600000684005002804D5FFE703208DF8130038
:100970007CE008E047F28001C4F20001086820F43E
:1009800080700860FFE76DE00398B0F5007F5ED1EE
:10099000FFE747F20000C4F20000006800F4C06006
:1009A000B0F5806F49D1FFE747F28001C4F2000142
:1009B000086840F48070086047F20002C4F2000248
:1009C0001168012060F34A21116040F20001C2F277
:1009D00000010968322251434DF68362C4F21B3292
:1009E000A1FB022100EB91400290FFE747F21400C7
:1009F000C4F200000168002049050029009006D5D6
:100A0000FFE70298002818BF01200090FFE7009838
:100A1000C00720B1FFE7029801380290E6E747F2ED
:100A20001400C4F2000000684005002804D5FFE768
:100A300003208DF8130019E008E047F28001C4F2AA
:100A40000001086840F480700860FFE709E047F2A1
:100A50000001C4F200010868022262F34A20086023
:100A6000FFE7FFE700208DF81300FFE79DF8130074
:100A700005B0704747F20801C4F20001086840F46D
:100A8000804008607047000080B586B004900391F4
:100A900000200090049820B9FFE701208DF817008E
:100AA00081E1039842F20001C4F20201096801F0F9
:100AB0000F01884216D9FFE742F20000C4F202009B
:100AC000016821F00F01039A11430160006800F0F2
:100AD0000F000399884204D0FFE701208DF817002A
:100AE00061E1FFE704980078C007002800F0A380C8
:100AF000FFE704984068032839D1FFE741F200007E
:100B0000C4F2020000688001002804D4FFE701203D
:100B10008DF8170047E101F03FFE019001984BF27C
:100B20000141C0F2C441884220D3FFE741F20800EE
:100B3000C4F20200006810F0F00F0AD0FFE704983A
:100B400000788007002810D5FFE70498806860B916
:100B5000FFE741F20801C4F202010868082262F3CB
:100B60000710086080200090FFE7FFE738E0049856
:100B7000406802280ED1FFE741F20000C4F20200F3
:100B800000688003002804D4FFE701208DF81700D7
:100B900009E10DE041F20000C4F2020000684005E6
:100BA000002804D4FFE701208DF81700FBE0FFE7E1
:100BB00000F0FEF8019001984BF20141C0F2C441EF
:100BC00088420CD3FFE741F20801C4F20201086831
:100BD000082262F30710086080200090FFE7FFE71B
:100BE00041F20801C4F20201086820F00300049AEF
:100BF000526810430860FFF7A5FD0290FFE741F23D
:100C00000800C4F20200006800F00C000499496872
:100C1000B0EB810F0ED0FFE7FFF794FD0299401A69
:100C200041F28931884204D3FFE703208DF8170091
:100C3000B9E0E4E7FFE704980078800700282CD5A6
:100C4000FFE7049800784007002809D5FFE741F244
:100C50000801C4F20201086840F4E0600860FFE7A0
:100C600004980078000700280BD5FFE741F208013F
:100C7000C4F20201086840F4E06020F460500860AB
:100C8000FFE741F20801C4F20201086820F0F00019
:100C9000049A9268104308600DE00098802809D1FA
:100CA000FFE741F20801C4F20201086820F0F000F9
:100CB0000860FFE7FFE7039842F20001C4F2020177
:100CC000096801F00F01884228D2FFE742F20001D3
:100CD000C4F20201086820F00F00039A1043086074
:100CE000FFF730FD0290FFE742F20000C4F202007D
:100CF000006800F00F00039988420ED0FFE7FFF76D
:100D000021FD0299401A41F28931884204D3FFE75C
:100D100003208DF8170046E0E6E7FFE70498007827
:100D2000400700280CD5FFE741F20801C4F2020198
:100D3000086820F4E060049AD26810430860FFE776
:100D400004980078000700280DD5FFE741F208015C
:100D5000C4F20201086820F46050049A126940EA63
:100D6000C2000860FFE700F023F841F20801C4F276
:100D700002010968C9B20A0943F6A851C0F6000188
:100D8000895C01F01F01C84040F20001C2F200017D
:100D9000086040F20800C2F200000068FFF7FEFCA5
:100DA0008DF81700FFE79DF8170006B080BD000022
:100DB00086B041F20800C4F20200006800F00C00A6
:100DC000042806D1FFE742F20040C0F2F40001908F
:100DD00069E041F20800C4F20200006800F00C0073
:100DE000082806D1FFE741F60030C0F2B7000190B5
:100DF00058E041F20800C4F20200006800F00C0064
:100E00000C284BD1FFE741F20C00C4F2020001684C
:100E100001F0030104910068C1B2012000EB111040
:100E2000029004980090022815D0FFE7009803284C
:100E300012D1FFE7029941F60030C0F2B700B0FBD3
:100E4000F1F041F20C01C4F202010968C1F306217C
:100E50004843059011E0FFE7029942F20040C0F2DA
:100E6000F400B0FBF1F041F20C01C4F20201096898
:100E7000C1F3062148430590FFE741F20C00C4F29C
:100E80000200006800F0C061022000EB11600390D6
:100E900005980399B0FBF1F0019002E00020019069
:100EA000FFE7FFE7FFE7019806B07047B0B588B0ED
:100EB0000690069820B9FFE701208DF81F00CCE3CB
:100EC00006980078C007002800F09B80FFE741F2F9
:100ED0000800C4F20200006800F00C00049041F227
:100EE0000C00C4F20200006800F0030003900498B4
:100EF0000C2804D1FFE70398032804D0FFE70498E7
:100F0000082812D1FFE741F20000C4F20200006895
:100F10008003002808D5FFE70698406820B9FFE75E
:100F200001208DF81F0098E36AE0FFE7069840680B
:100F3000B0F5803F09D1FFE741F20001C4F20201A0
:100F4000086840F48030086020E006984068B0F5FA
:100F5000A02F0DD1FFE741F20001C4F202010868A1
:100F600040F480200860086840F4803008600CE09D
:100F700041F20001C4F20201086820F480300860E8
:100F8000086820F480200860FFE7FFE7FFE7069885
:100F90004068D0B1FFE7FFF7D5FB0590FFE741F2CE
:100FA0000000C4F202000068800300280CD4FFE7B0
:100FB000FFF7C8FB0599401A652804D3FFE7032013
:100FC0008DF81F0049E3EAE719E0FFF7BBFB059046
:100FD000FFE741F20000C4F202000068800300282D
:100FE0000CD5FFE7FFF7AEFB0599401A652804D33F
:100FF000FFE703208DF81F002FE3EAE7FFE7FFE795
:10100000FFE7069800788007002840F19F80FFE7FF
:1010100041F20800C4F20200006800F00C000490E5
:1010200041F20C00C4F20200006800F003000390DB
:1010300004980C2804D1FFE70398022804D0FFE7A6
:10104000049804282CD1FFE741F20000C4F202000A
:1010500000684005002808D5FFE70698C06820B959
:10106000FFE701208DF81F00F7E241F20401C4F20E
:101070000201086820F0FE40069A126940EA026008
:10108000086040F20800C2F200000068FFF786FB2B
:1010900020B1FFE701208DF81F00DEE2FFE754E0FA
:1010A0000698C06870B3FFE741F20001C4F2020184
:1010B000086840F480700860FFF744FB0590FFE784
:1010C00041F20000C4F202000068400500280CD480
:1010D000FFE7FFF737FB0599401A032804D3FFE722
:1010E00003208DF81F00B8E2EAE741F20401C4F2E0
:1010F0000201086820F0FE40069A126940EA026088
:10110000086021E041F20001C4F20201086820F405
:1011100080700860FFF716FB0590FFE741F20000C2
:10112000C4F202000068400500280CD5FFE7FFF775
:1011300009FB0599401A032804D3FFE703208DF823
:101140001F008AE2EAE7FFE7FFE7FFE7069800787B
:101150000007002849D5FFE70698406910B3FFE76C
:1011600041F29401C4F20201086840F001000860F5
:10117000FFF7E8FA0590FFE741F29400C4F202009D
:101180000068800700280CD4FFE7FFF7DBFA059919
:10119000401A032804D3FFE703208DF81F005CE208
:1011A000EAE721E041F29401C4F20201086820F06C
:1011B00001000860FFF7C6FA0590FFE741F29400CE
:1011C000C4F202000068800700280CD5FFE7FFF793
:1011D000B9FA0599401A032804D3FFE703208DF8D4
:1011E0001F003AE2EAE7FFE7FFE7069800784007CA
:1011F000002840F1C680FFE700208DF80B0041F287
:101200005800C4F202000068C000002813D4FFE7B1
:10121000FFE741F25800C4F20200016841F080513A
:101220000160006800F0805001900198FFE7012004
:101230008DF80B00FFE747F20000C4F200000068E1
:10124000C005002822D4FFE747F20001C4F20001E4
:10125000086840F480700860FFF774FA0590FFE7B3
:1012600047F20000C4F200000068C00500280CD45A
:10127000FFE7FFF767FA0599401A032804D3FFE751
:1012800003208DF81F00E8E1EAE7FFE7FFE7069893
:101290008068012809D1FFE741F29001C4F2020100
:1012A000086840F0010008601FE006988068052883
:1012B0000DD1FFE741F29001C4F20201086840F04D
:1012C00004000860086840F0010008600CE041F28A
:1012D0009001C4F20201086820F00100086008686B
:1012E00020F004000860FFE7FFE7FFE7069880684A
:1012F000E0B1FFE7FFF726FA0590FFE741F2900023
:10130000C4F202000068800700280ED4FFE7FFF750
:1013100019FA0599401A41F28931884204D3FFE74E
:1013200003208DF81F0098E1E8E71BE0FFF70AFAB9
:101330000590FFE741F29000C4F2020000688007C8
:1013400000280ED5FFE7FFF7FDF90599401A41F295
:101350008931884204D3FFE703208DF81F007CE128
:10136000E8E7FFE79DF80B00012809D1FFE741F20C
:101370005801C4F20201086820F080500860FFE7BD
:10138000FFE7069800788006002849D5FFE7069811
:10139000806910B3FFE741F29801C4F202010868C6
:1013A00040F001000860FFF7CDF90590FFE741F23A
:1013B0009800C4F202000068800700280CD4FFE700
:1013C000FFF7C0F90599401A032804D3FFE703206B
:1013D0008DF81F0041E1EAE721E041F29801C4F2F3
:1013E0000201086820F001000860FFF7ABF90590E2
:1013F000FFE741F29800C4F202000068800700286D
:101400000CD5FFE7FFF79EF90599401A032804D38E
:10141000FFE703208DF81F001FE1EAE7FFE7FFE782
:101420000698C069002800F01481FFE741F2080027
:10143000C4F20200006800F00C000C2800F0B0803C
:10144000FFE70698C06902287CD1FFE741F200015E
:10145000C4F20201086820F080700860FFF772F99A
:101460000590FFE741F20000C4F20200006880012D
:1014700000280CD5FFE7FFF765F90599401A032806
:1014800004D3FFE703208DF81F00E6E0EAE741F20E
:101490000C01C4F20201086848F20C02C0F29F126B
:1014A0001040DDF818C0DCF82020DCF82450DCF80F
:1014B00028E0DCF82C306FF00F0404EB0514224315
:1014C00042EA0E22DCF8304040F2000ECFF6E07E19
:1014D0000EEA045EAEF5001E42EA0E02DCF834E0CD
:1014E0004FF07E4C0CEA0E6C0CF17E4C42EA0C0282
:1014F00042EAC3621043086041F20002C4F20202F1
:10150000106840F080701060086840F080700860DB
:10151000FFF718F90590FFE741F20000C4F202005E
:101520000068800100280CD4FFE7FFF70BF905994C
:10153000401A032804D3FFE703208DF81F008CE036
:10154000EAE72CE041F20001C4F20201086820F051
:1015500080700860FFF7F6F80590FFE741F20000A1
:10156000C4F202000068800100280CD5FFE7FFF7F5
:10157000E9F80599401A032804D3FFE703208DF802
:101580001F006AE0EAE741F20C01C4F202010868B8
:101590004FF6FC72CFF6EE6210400860FFE757E0AE
:1015A0000698C069012804D1FFE701208DF81F00CB
:1015B00053E041F20C00C4F202000068039003986B
:1015C00000F003000699096A88423BD1FFE70398BF
:1015D00000F0F00006994A6A6FF00F0101EB02116A
:1015E00088422FD1FFE7039800F4FE400699896AEC
:1015F000B0EB012F26D1FFE7039800F07840069961
:10160000C96AB0EBC16F1DD1FFE7039800F4C000B9
:1016100006990A6B0021CFF6E07101EA0251A1F5AB
:10162000001188420ED1FFE7039800F0C0600699D0
:101630004A6B4FF07E4101EA026101F17E4188422E
:1016400004D0FFE701208DF81F0006E0FFE7FFE769
:10165000FFE700208DF81F00FFE79DF81F0008B08E
:10166000B0BD000080B582B00190019801F0E4F8AF
:1016700002B080BD81B0009001B0704781B0009091
:1016800001B0704781B0009001B0704784B0029003
:10169000019100200090FFE7029890F83C0001289B
:1016A00004D1FFE702208DF80F0083E002990120AA
:1016B00081F83C00FFE7FFE7009820F0FF00019968
:1016C000C96808430090009820F440700199896827
:1016D00008430090009820F480600199496808430D
:1016E0000090009820F40060019909680843009078
:1016F000009820F4805001990969084300900098EF
:1017000020F400500199496908430090009820F4A2
:1017100080400199096B08430090009820F47020E4
:101720000199896940EA01400090009820F08050BA
:101730000199C969084300900298006842F6004187
:10174000C4F20101884209D0FFE70298006843F221
:101750000041C4F2010188421ED1FFE7009820F445
:1017600070000199896A40EA01500090009820F0C9
:1017700080700199096A08430090009820F0007079
:101780000199496A08430090009820F0005001999F
:10179000C96A08430090FFE7009802990968486405
:1017A000FFE70299002081F83C00FFE700208DF858
:1017B0000F00FFE79DF80F0004B0704781B0009064
:1017C00001B0704781B0009001B0704781B00090C7
:1017D00001B0704785B003900291FFE7039890F83D
:1017E0003C00012804D1FFE702208DF813008CE0B3
:1017F0000399012081F83C00FFE7FFE703990220ED
:1018000081F83D00039800684068019003980068E3
:10181000806800900398006842F60041C4F201011C
:10182000884209D0FFE70398006843F20041C4F200
:10183000010188420AD1FFE7019820F4700001906D
:1018400002984168019808430190FFE701984FF61C
:101850008F71CFF6FF5108400190029801680198FE
:10186000084301900198039909684860039800684B
:1018700042F60041C4F2010188422AD0FFE70398F2
:101880000068B0F1804F24D0FFE70398006840F271
:101890000041C4F2000188421BD0FFE703980068B2
:1018A00040F60001C4F20001884212D0FFE703981D
:1018B000006843F20041C4F20101884209D0FFE709
:1018C0000398006844F20001C4F2010188420ED17D
:1018D000FFE7009820F0800000900298816800984F
:1018E000084300900098039909688860FFE703990E
:1018F000012081F83D00FFE70399002081F83C00BA
:10190000FFE700208DF81300FFE79DF8130005B0F6
:101910007047000081B0009001B0704780B582B080
:101920000090009820B9FFE701208DF8070045E0FE
:10193000009890F83D0040B9FFE70099002081F839
:101940003C00009800F03EF8FFE70099022081F883
:101950003D00009951F8040B01F002F800990120B4
:1019600081F84800FFE70099012081F83E000099C6
:1019700081F83F00009981F84000009981F841000A
:10198000009981F84200009981F84300FFE7FFE7E2
:101990000099012081F84400009981F845000099E0
:1019A00081F84600009981F84700FFE7009901207F
:1019B00081F83D0000208DF80700FFE79DF8070043
:1019C00002B080BD80B584B003900398006842F6F1
:1019D0000041C4F20101884210D1FFE7FFE741F264
:1019E0006000C4F20200016841F400610160006817
:1019F00000F4006002900298FFE722E0039800687C
:101A000041F20001C4F20001884219D1FFE7FFE76B
:101A100041F25800C4F20200016841F01001016077
:101A2000006800F0100001900198FFE73620009058
:101A300000221146FEF724FF0098FEF717FFFFE78C
:101A4000FFE704B080BD000083B00190019890F8DA
:101A50003D00012804D0FFE701208DF80B005AE07B
:101A60000199022081F83D000198006842F600418A
:101A7000C4F2010188422AD0FFE701980068B0F162
:101A8000804F24D0FFE70198006840F20041C4F283
:101A9000000188421BD0FFE70198006840F6000172
:101AA000C4F20001884212D0FFE70198006843F2B7
:101AB0000041C4F20101884209D0FFE701980068A3
:101AC00044F20001C4F20101884219D1FFE70198F4
:101AD000006880680721C0F201010840009000986A
:101AE00006280CD0FFE70098B0F5803F07D0FFE74D
:101AF00001980168086840F001000860FFE706E00F
:101B000001980168086840F001000860FFE70020C4
:101B10008DF80B00FFE79DF80B0003B07047000045
:101B200080B586B00490039100208DF80B00FFE78C
:101B3000049890F83C00012804D1FFE702208DF8BA
:101B40001700D3E00499012081F83C00FFE7FFE78C
:101B50000499022081F83D00049800688068019093
:101B600001984FF68871CFF6CE7108400190019828
:101B700020F47F40019001980499096888600398D7
:101B800000680090002800F09780FFE70098102878
:101B900000F09280FFE70098202800F08D80FFE79A
:101BA0000098302800F08880FFE70098402876D021
:101BB000FFE70098502858D0FFE70098602861D0D0
:101BC000FFE7009870282CD0FFE70098B0F5805F01
:101BD00026D0FFE70098B0F5005F37D0FFE7009808
:101BE000B0F1101F68D0FFE700982021C0F210016B
:101BF000884261D0FFE700983021C0F2100188428E
:101C00005AD0FFE700984021C0F21001884253D01B
:101C1000FFE700987021C0F2100188424CD052E0DA
:101C200055E004980068039B5A689968DB6800F0E7
:101C30007FFF0498006880680190019840F0770069
:101C40000190019804990968886040E00498006850
:101C5000039B5A689968DB6800F06AFF0498016882
:101C6000886840F48040886031E004980068039AF6
:101C70005168D26801F034FB04980068502100F0EC
:101C800071FF24E004980068039A5168D26801F05B
:101C90004FFB04980068602100F064FF17E004988F
:101CA0000068039A5168D26801F01AFB0498006832
:101CB000402100F057FF0AE0049800680399096882
:101CC00000F050FF03E001208DF80B00FFE70499BE
:101CD000012081F83D00FFE70499002081F83C00D5
:101CE000FFE79DF80B008DF81700FFE79DF8170040
:101CF00006B080BD81B0009001B0704780B584B05F
:101D0000039003980068C068029003980068006917
:101D100001909DF804008007002824D5FFE79DF876
:101D20000800800700281DD5FFE7039801686FF0C1
:101D30000200086103990120087703980068806910
:101D4000800720B1FFE70398FFF7D4FF06E0039870
:101D500000F088F9039800F0B9FAFFE70399002032
:101D60000877FFE7FFE79DF804004007002825D526
:101D7000FFE79DF80800400700281ED5FFE70398FD
:101D800001686FF004000861039902200877039846
:101D90000068806910F4407F04D0FFE70398FFF7E4
:101DA000A9FF06E0039800F05DF9039800F08EFAB1
:101DB000FFE7039900200877FFE7FFE79DF804009D
:101DC0000007002824D5FFE79DF808000007002839
:101DD0001DD5FFE7039801686FF0080008610399BB
:101DE0000420087703980068C069800720B1FFE7E6
:101DF0000398FFF77FFF06E0039800F033F903989C
:101E000000F064FAFFE7039900200877FFE7FFE797
:101E10009DF80400C006002825D5FFE79DF80800BE
:101E2000C00600281ED5FFE7039801686FF0100078
:101E3000086103990820087703980068C06910F4C6
:101E4000407F04D0FFE70398FFF754FF06E00398B4
:101E500000F008F9039800F039FAFFE70399002031
:101E60000877FFE7FFE79DF80400C00778B1FFE7B8
:101E70009DF80800C00748B1FFE7039801686FF0BC
:101E800001000861039800F055FBFFE7FFE70198A8
:101E900000F08000802806D0FFE79DF8050080064E
:101EA000002810D5FFE79DF808000006002809D596
:101EB000FFE7039801686FF4025008610398FFF789
:101EC000DDFBFFE7FFE79DF80500C00780B1FFE7F6
:101ED0009DF808000006002809D5FFE7039801686F
:101EE0006FF4807008610398FFF7C4FBFFE7FFE71A
:101EF0009DF804004006002810D5FFE79DF8080073
:101F00004006002809D5FFE7039801686FF04000FC
:101F10000861039800F012FBFFE7FFE79DF804005B
:101F20008006002810D5FFE79DF8080080060028ED
:101F300009D5FFE7039801686FF020000861039856
:101F4000FFF7A0FBFFE7FFE79DF80600C0060028AB
:101F500010D5FFE79DF80A00C006002809D5FFE765
:101F6000039801686FF4801008610398FFF72AFC5A
:101F7000FFE7FFE79DF806008006002810D5FFE781
:101F80009DF80A008006002809D5FFE7039801683C
:101F90006FF4001008610398FFF710FCFFE7FFE7FC
:101FA0009DF806004006002810D5FFE79DF80A00BE
:101FB0004006002809D5FFE7039801686FF4800008
:101FC00008610398FFF702FCFFE7FFE79DF80600B2
:101FD0000006002810D5FFE79DF80A00000600283B
:101FE00009D5FFE7039801686FF4000008610398C2
:101FF000FFF790FCFFE7FFE704B080BD80B588B035
:102000000790002006900590049003900290079896
:10201000006842F60041C4F2010188421FD1FFE787
:10202000FFE741F24C00C4F20200016841F00101F7
:102030000160006800F0010001900198FFE74FF493
:1020400080700290022003900020049005900620EA
:1020500006904FF0904002A9FEF7C0F9FFE708B0E4
:1020600080BD000081B0009001B0704780B586B09F
:1020700004900391029200208DF80700FFE7049876
:1020800090F83C00012804D1FFE702208DF81700EA
:10209000C0E00499012081F83C00FFE7FFE70298C7
:1020A0000090142800F2A7800099DFE801F00BA44B
:1020B000A4A424A4A4A43EA4A4A457A4A4A471A446
:1020C000A4A48A0004980068039900F063FD0498B2
:1020D0000168886940F0080088610498016888698F
:1020E00020F00400886103980269049801688869F7
:1020F0001043886183E004980068039900F0F4FDC0
:1021000004980168886940F4006088610498016857
:10211000886920F4806088610398026904980168E6
:10212000886940EA0220886169E0049800680399A0
:1021300000F092FE04980168C86940F00800C86188
:1021400004980168C86920F00400C8610398026916
:1021500004980168C8691043C86150E00498006899
:10216000039900F031FF04980168C86940F40060E9
:10217000C86104980168C86920F48060C861039848
:10218000026904980168C86940EA0220C86136E023
:1021900004980068039900F0CFFF04980168086D67
:1021A00040F00800086504980168086D20F00400FC
:1021B00008650398026904980168086D1043086572
:1021C0001DE004980068039901F020F80498016864
:1021D000086D40F40060086504980168086D20F4FB
:1021E000806008650398026904980168086D40EAF8
:1021F0000220086503E001208DF80700FFE7FFE7F4
:102200000499002081F83C00FFE79DF807008DF855
:102210001700FFE79DF8170006B080BD80B582B0BB
:102220000090009820B9FFE701208DF8070045E0F5
:10223000009890F83D0040B9FFE70099002081F830
:102240003C00009800F03EF8FFE70099022081F87A
:102250003D00009951F8040B00F082FB0099012029
:1022600081F84800FFE70099012081F83E000099BD
:1022700081F83F00009981F84000009981F8410001
:10228000009981F84200009981F84300FFE7FFE7D9
:102290000099012081F84400009981F845000099D7
:1022A00081F84600009981F84700FFE70099012076
:1022B00081F83D0000208DF80700FFE79DF807003A
:1022C00002B080BD81B0009001B0704781B0009035
:1022D00001B0704780B590B00E900D910D9828B95F
:1022E000FFE70E9890F83E000B9034E00D9804281C
:1022F00005D1FFE70E9890F83F000A9028E00D986E
:10230000082805D1FFE70E9890F8400009901CE0DE
:102310000D980C2805D1FFE70E9890F84100089021
:1023200010E00D98102805D1FFE70E9890F84200B4
:10233000079004E00E9890F843000790FFE7079895
:102340000890FFE708980990FFE709980A90FFE7CF
:102350000A980B90FFE70B98012804D0FFE70120B3
:102360008DF83F00E1E00D9828B9FFE70E990220B3
:1023700081F83E0038E00D98042806D1FFE70E9959
:10238000022081F83F0006902CE00D98082806D125
:10239000FFE70E99022081F8400005901FE00D989C
:1023A0000C2806D1FFE70E99022081F84100049025
:1023B00012E00D98102806D1FFE70E99022081F84F
:1023C0004200039005E00E99022081F8430003903B
:1023D000FFE703980490FFE704980590FFE705984E
:1023E0000690FFE70698FFE70E9800680D99012216
:1023F000019200F081FB01980E99096842F60042B3
:10240000C4F20102914202902DD0FFE70E980168BC
:10241000012043F20042C4F201029142029022D014
:10242000FFE70E980168012044F20002C4F20102A5
:102430009142029017D0FFE70E980168012044F204
:102440000042C4F20102914202900CD0FFE70E98C4
:1024500000684BF60001CBF6FE710844B0FA80F03C
:1024600040090290FFE70298C00738B1FFE70E98D5
:102470000168486C40F400404864FFE70E9800682B
:1024800042F60041C4F2010188422AD0FFE70E98CB
:102490000068B0F1804F24D0FFE70E98006840F24A
:1024A0000041C4F2000188421BD0FFE70E9800688B
:1024B00040F60001C4F20001884212D0FFE70E98F6
:1024C000006843F20041C4F20101884209D0FFE7ED
:1024D0000E98006844F20001C4F20101884219D14B
:1024E000FFE70E98006880680721C0F201010840EC
:1024F0000C900C9806280CD0FFE70C98B0F5803FA4
:1025000007D0FFE70E980168086840F001000860F6
:10251000FFE706E00E980168086840F001000860D7
:10252000FFE700208DF83F00FFE79DF83F0010B067
:1025300080BD000081B0009001B0704781B0009074
:1025400001B07047FFE7FEE782B0FFE741F24C00C1
:10255000C4F20200016841F020010160006800F04F
:10256000200001900198FFE7FFE741F24C00C4F220
:102570000200016841F001010160006800F0010003
:1025800000900098FFE702B07047000080B59EB051
:10259000002001901D901C901B901A90199018908B
:1025A000179016901590149013901290119010900F
:1025B00003A83421FDF780FE019940F27800C2F2B1
:1025C0000000029042F60042C4F20102026042F2B0
:1025D0000F724260816040F2E732C2600161416186
:1025E0008161FFF79BF918B1FFE7FDF7CDFEFFE72B
:1025F0004FF480501A9040F27800C2F200001AA9FD
:10260000FFF78EFA18B1FFE7FDF7BEFEFFE740F2D5
:102610007800C2F20000FFF701FE18B1FFE7FDF7F6
:10262000B3FEFFE7002017901890199040F2780051
:10263000C2F2000017A9FFF7CDF818B1FFE7FDF7C8
:10264000A3FEFFE7602010904FF4FA701190002273
:102650001292139214921592169240F27800C2F2DE
:10266000000010A9FFF702FD18B1FFE7FDF78CFE8F
:10267000FFE70020009003900490059006900790DB
:102680004FF40051089109900A900B904FF000719F
:102690000C910D900E900F9040F27800C2F2000065
:1026A00003A9FEF7F3FF18B1FFE7FDF76DFEFFE7A3
:1026B00040F27800C2F20000FFF7A0FC1EB080BD1F
:1026C00080B584B0002103910291019140F2C400D1
:1026D000C2F2000041F20002C4F20002026044F2C1
:1026E00067224260816041F28732C2608161FFF7F8
:1026F00015F918B1FFE7FDF747FEFFE7002001904D
:10270000039040F2C400C2F2000001A9FFF762F892
:1027100018B1FFE7FDF738FEFFE704B080BD000009
:10272000FFE7FEE7FFE7FEE788B007900691059216
:10273000079800F0070004900498C0F107000528EE
:1027400003D3FFE70420019004E00498C0F10700E0
:102750000190FFE70198039004980430062803D8FD
:10276000FFE70020009003E0049803380090FFE7A3
:102770000098029006980399012202FA01F10139AA
:102780000840029B984005999A40013A114008433D
:1027900008B070477047000086B041F20C00C4F2E8
:1027A0000200016801F0030104910068C1B2012038
:1027B00000EB1110029004980090022815D0FFE75A
:1027C0000098032812D1FFE7029941F60030C0F2C9
:1027D000B700B0FBF1F041F20C01C4F2020109684C
:1027E000C1F306214843059011E0FFE7029942F248
:1027F0000040C0F2F400B0FBF1F041F20C01C4F271
:1028000002010968C1F3062148430590FFE741F240
:102810000C00C4F20200006800F0C061022000EB6E
:102820001160039005980399B0FBF1F001900198B5
:1028300006B070477047000080B582B000900098E5
:102840000138B0F1807F03D3FFE70120019019E048
:10285000009801384EF21401CEF2000108604FF0EA
:10286000FF300F2100F0B0FD4EF21801CEF2000152
:10287000002008604EF21002CEF200020721116023
:102880000190FFE7019802B080BD000080B540F2E2
:102890007400C2F200000168013101600068B0F507
:1028A000FA7F0DDBFFE740F27001C2F20001012068
:1028B000086040F27401C2F2000100200860FFE7E6
:1028C000FDF746FF80BD000080B594B006A80090DB
:1028D0003821FDF7F1FC0020059004900390029050
:1028E0000190FDF7EDFF0098012106914FF4803132
:1028F000079102210D9103220E920F925522109200
:10290000119112911391FEF7D1FA18B1FFE7FDF77B
:102910003BFDFFE70F200190032002900020039071
:102920000490059001A80421FEF7AEF818B1FFE766
:10293000FDF72AFDFFE714B080BD00004EF6885178
:10294000CEF20001086840F4700008607047000093
:1029500080B540F2C400C2F20000FFF7CFF980BD9D
:1029600083B002900191029800680090029842F6AC
:102970000041C4F2010188421DD0FFE70298B0F186
:10298000804F18D0FFE7029840F20041C4F20001E6
:10299000884210D0FFE7029840F60001C4F200011F
:1029A000884208D0FFE7029843F20041C4F20101D7
:1029B00088420AD1FFE7009820F07000009001984B
:1029C0004168009808430090FFE7029842F60041F2
:1029D000C4F20101884235D0FFE70298B0F1804F80
:1029E00030D0FFE7029840F20041C4F20001884273
:1029F00028D0FFE7029840F60001C4F200018842A7
:102A000020D0FFE7029843F20041C4F2010188425E
:102A100018D0FFE7029844F20001C4F20101884295
:102A200010D0FFE7029844F20041C4F2010188424D
:102A300008D0FFE7029844F60001C4F20101884281
:102A40000AD1FFE7009820F4407000900198C16817
:102A5000009808430090FFE7009820F0800001995B
:102A600049690843009000980299086001988068BD
:102A70000299C8620198006802998862029842F639
:102A80000041C4F20101884220D0FFE7029843F2DE
:102A90000041C4F20101884218D0FFE7029844F2D5
:102AA0000001C4F20101884210D0FFE7029844F20D
:102AB0000041C4F20101884208D0FFE7029844F6C1
:102AC0000001C4F20101884205D1FFE701980069C5
:102AD00002990863FFE702990120486102980069A2
:102AE000C00730B1FFE70299086920F001000861D2
:102AF000FFE703B07047000084B003900291019299
:102B0000029800F01F01012088400090009A03996C
:102B1000086A904308620198029901F01F0100FAC7
:102B200001F20399086A1043086204B0704700007C
:102B300085B00490039102920193049880680090FC
:102B4000009820F47F40009003980299019A41EA8E
:102B5000022101430098084300900098049988607E
:102B600005B0704783B00290019102988068009090
:102B700000984FF68F71CFF6CF7108400090019802
:102B80000099084340F0070000900098029988607F
:102B900003B0704785B0049003910498006A0190D7
:102BA0000499086A20F001000862049840680090C7
:102BB00004988069029002984FF68F71CFF6FE71EB
:102BC00008400290029820F00300029003980168E8
:102BD000029808430290019820F0020001900398A7
:102BE0008168019808430190049842F60041C4F2BC
:102BF0000101884220D0FFE7049843F20041C4F26B
:102C00000101884218D0FFE7049844F20001C4F2A1
:102C10000101884210D0FFE7049844F20041C4F259
:102C20000101884208D0FFE7049844F60001C4F28D
:102C3000010188420ED1FFE7019820F008000190C1
:102C40000398C168019808430190019820F004009E
:102C50000190FFE7049842F60041C4F20101884266
:102C600020D0FFE7049843F20041C4F201018842FA
:102C700018D0FFE7049844F20001C4F20101884231
:102C800010D0FFE7049844F20041C4F201018842E9
:102C900008D0FFE7049844F60001C4F2010188421D
:102CA00013D1FFE7009820F480700090009820F482
:102CB00000700090039841690098084300900398C1
:102CC0008169009808430090FFE7009804994860E4
:102CD00002980499886103984068049948630198B0
:102CE0000499086205B0704785B004900391049878
:102CF000006A01900499086A20F0100008620498A4
:102D000040680090049880690290029848F6FF712C
:102D1000CFF6FF6108400290029820F440700290C4
:102D200003980168029840EA01200290019820F07F
:102D30002000019003988168019840EA01100190F9
:102D4000049842F60041C4F20101884229D0FFE70D
:102D5000049843F20041C4F20101884221D0FFE708
:102D6000049844F20001C4F20101884203D1FFE754
:102D70000020B0B9FFE7049844F20041C4F2010119
:102D8000884203D1FFE7002058B9FFE7049844F6D2
:102D90000001C4F20101884212D1FFE7012078B995
:102DA000FFE7019820F0800001900398C168019826
:102DB00040EA01100190019820F040000190FFE7E7
:102DC000049842F60041C4F20101884220D0FFE796
:102DD000049843F20041C4F20101884218D0FFE791
:102DE000049844F20001C4F20101884210D0FFE7C8
:102DF000049844F20041C4F20101884208D0FFE780
:102E0000049844F60001C4F20101884215D1FFE79D
:102E1000009820F480600090009820F400600090FA
:102E200003984169009840EA810000900398816905
:102E3000009840EA81000090FFE7009804994860FC
:102E400002980499886103984068049988630198FE
:102E50000499086205B0704785B004900391049806
:102E6000006A01900499086A20F48070086204984E
:102E7000406800900498C069029002984FF68F71E4
:102E8000CFF6FE7108400290029820F003000290F5
:102E900003980168029808430290019820F400709A
:102EA000019003988168019840EA012001900498FC
:102EB00042F60041C4F20101884229D0FFE704989C
:102EC00043F20041C4F20101884221D0FFE7049897
:102ED00044F20001C4F20101884203D1FFE700205F
:102EE000B0B9FFE7049844F20041C4F201018842FE
:102EF00003D1FFE7002058B9FFE7049844F600012A
:102F0000C4F20101884212D1FFE7012078B9FFE73E
:102F1000019820F4006001900398C168019840EA8C
:102F200001200190019820F480600190FFE704984F
:102F300042F60041C4F20101884220D0FFE7049824
:102F400043F20041C4F20101884218D0FFE704981F
:102F500044F20001C4F20101884210D0FFE7049856
:102F600044F20041C4F20101884208D0FFE704980E
:102F700044F60001C4F20101884215D1FFE7009830
:102F800020F480500090009820F4005000900398A6
:102F90004169009840EA0110009003988169009807
:102FA00040EA01100090FFE70098049948600298F9
:102FB0000499C861039840680499C863019804990A
:102FC000086205B07047000085B004900391049832
:102FD000006A01900499086A20F4805008620498FD
:102FE000406800900498C0690290029848F6FF710A
:102FF000CFF6FF6108400290029820F440700290E2
:1030000003980168029840EA01200290019820F498
:103010000050019003988168019840EA01300190C6
:10302000049842F60041C4F20101884229D0FFE72A
:10303000049843F20041C4F20101884221D0FFE725
:10304000049844F20001C4F20101884203D1FFE771
:103050000020B0B9FFE7049844F20041C4F2010136
:10306000884203D1FFE7002058B9FFE7049844F6EF
:103070000001C4F20101884212D1FFE7012078B9B2
:10308000FFE7019820F4004001900398C16801987F
:1030900040EA01300190019820F480400190FFE760
:1030A000049842F60041C4F20101884220D0FFE7B3
:1030B000049843F20041C4F20101884218D0FFE7AE
:1030C000049844F20001C4F20101884210D0FFE7E5
:1030D000049844F20041C4F20101884208D0FFE79D
:1030E000049844F60001C4F20101884215D1FFE7BB
:1030F000009820F480400090009820F40040009058
:1031000003984169009840EA811000900398816912
:10311000009840EA81100090FFE700980499486009
:1031200002980499C861039840680499086401985A
:103130000499086205B0704785B004900391049823
:10314000006A01900499086A20F4803008620498AB
:10315000406800900498006D029002984FF68F71BD
:10316000CFF6FE7108400290039801680298084368
:103170000290019820F40030019003988168019832
:1031800040EA01400190049842F60041C4F2010176
:10319000884220D0FFE7049843F20041C4F20101C5
:1031A000884218D0FFE7049844F20001C4F20101FC
:1031B000884210D0FFE7049844F20041C4F20101B4
:1031C000884208D0FFE7049844F60001C4F20101E8
:1031D00088420BD1FFE7009820F4803000900398DC
:1031E0004169009840EA01200090FFE700980499A7
:1031F00048600298049908650398406804998864B7
:1032000001980499086205B07047000085B00490E9
:1032100003910498006A01900499086A20F48010D0
:1032200008620498406800900498006D029002982B
:1032300048F6FF71CFF6FF610840029003980168DD
:10324000029840EA01200290019820F400100190B9
:1032500003988168019840EA01500190049842F671
:103260000041C4F20101884220D0FFE7049843F2F4
:103270000041C4F20101884218D0FFE7049844F2EB
:103280000001C4F20101884210D0FFE7049844F223
:103290000041C4F20101884208D0FFE7049844F6D7
:1032A0000001C4F2010188420BD1FFE7009820F42D
:1032B0008020009003984169009840EA81200090A6
:1032C000FFE70098049948600298049908650398FC
:1032D00040680499C86401980499086205B0704771
:1032E00085B00490039102920498006A00900499BA
:1032F000086A20F001000862049880690190019832
:1033000020F0F00001900299019840EA011001902C
:10331000009820F00A00009003990098084300905C
:1033200001980499886100980499086205B0704773
:1033300085B00490039102920498006A0090049969
:10334000086A20F0100008620498806901900198D2
:1033500020F4704001900299019840EA01300190F8
:10336000009820F0A00000900399009840EA011016
:10337000009001980499886100980499086205B04A
:1033800070470000FFE7FEE781B08DF803009DF96C
:10339000030000280ED4FFE79DF9031001F01F027F
:1033A000012090404A094EF20011CEF2000141F88E
:1033B0002200FFE701B070474EF60C50CEF200003D
:1033C0000068C0F30220704782B08DF807000091BA
:1033D0009DF9070000280AD4FFE7009800019DF935
:1033E00007104EF20042CEF2000288540BE0009823
:1033F00000019DF8071001F00F014EF61452CEF2B5
:1034000000028854FFE702B07047000083B00290CA
:10341000029800F0070000904EF60C51CEF2000129
:103420000868019001984FF6FF0210400190019842
:10343000009A40EA02200022C0F2FA5210430190A2
:103440000198086003B07047B0B59EB000200490AA
:103450001D90FDF78BF9049843F6B852C0F60002B0
:10346000059211685368D2F808C0D2F80CE01469CC
:1034700055691A951994CDF860E0CDF85CC01693A3
:1034800015919169D2691C921B911490139012901E
:10349000119010900F900E900D9043F6945CC0F632
:1034A000000CDCF80000DCF80410DCF80820DCF884
:1034B0000C30DCF810C0CDF830C00B930A920991A3
:1034C000089001200790FFE7079807282ADCFFE70C
:1034D0000799039115A850F8210000F0DDFB41EC9D
:1034E000100B53EC102B9FED2E0B51EC100B00F03A
:1034F00007F941EC100B51EC100B9FED2B0B53EC2B
:10350000102B00F055F841EC100B51EC100B00F0B3
:1035100051FA039A0DA941F82200FFE707980130FC
:103520000790D1E7FFF7D0F9FFF70EF8FFF72EF875
:10353000FFF7C6F800200190069040F27800C2F232
:1035400000000290FEF780FA01990298FEF7C2FE91
:10355000FFE7FFE7069804281DDCFFE7069908A8A7
:1035600050F821100DA850F8210040F27801C2F265
:1035700000010091096888624FF4FA70FCF70CFFB3
:103580000098016800204863C820FCF705FF0698F2
:1035900001300690DEE700200690DAE700BF00BFAA
:1035A0000000000080C00441000000000000F0BFE7
:1035B00010B591EA030F48BF83F0004300F1868203
:1035C000841A71EB030C05D2121943EB0C03001B98
:1035D00061EB0C014FEA1154A4EB135CDFF81CE122
:1035E0001EEA430F18BF9EEA445F00F0748021EA90
:1035F000045123EA0E0343F48013DCF1200E32D38E
:1036000022FA0CFE10EB0E0023FA0CFE41EB0E0129
:10361000CCF1200E03FA0EFE10EB0E00CCF1200EC2
:1036200051F10001B1F5801F32D201EB045112FAC1
:103630000EF2BDE8104058BF7047401C38BF5FEA2B
:10364000420218BF7047002814BF20F0010041F16A
:1036500000014FEA410313F5001F38BF7047A1F185
:10366000C04100F024BA012A43EB0302ACF1200C64
:10367000DCF11F0E32BF4FF0000E23FA0CF310EBFB
:10368000030041EB0451B4EB115FD0D0A1EB045126
:1036900001F58011490801EB04515FEA30000ED3B7
:1036A00050F1000038BF12FA0EFE08D1BDE81040FC
:1036B000C9E7401C38BF5FEA4202CAD1C3E7BDE890
:1036C00010404FEA410313F5001F38BF7047A1F1C6
:1036D000C04100F0ECB99EEA445F08D011EA5E0FE9
:1036E000BDE8104004BF01F0004100207047BDE874
:1036F000104070B500F08DF964FBBE3E0000E0FFA5
:103700002DE9C04130B4DFF8A4C23CEA111418BF5F
:103710003CEA131400F0ED801CEA111481EA030561
:1037200044EAD57418BF1CEA131500F0C880A4EB56
:10373000050404F17F7404F500344FF0004545EAB8
:10374000C12145EAC32341EA505143EA52534FEAAB
:10375000C0204FEAC222994208BF904200F09D80EB
:103760004FEA13650FF24416765D4FEA134506FBE8
:1037700005F7C7F1807706FB07F74FEAD737A7FBB6
:1037800003687642A7FB06CEC8F5803838BFA8F19B
:10379000010807FB08E6A6FB028C4FF0000EE6FBD3
:1037A00003CEDCF1000CCEF1004E38BFAEF1010EBD
:1037B000A6FB0C584FF00007E6FB0E87A1FB08C6DE
:1037C000A0FB07CE16EB0E064FF0000545F10005F5
:1037D000E1FB076515F1E04E7EBFA4F580345FEA9A
:1037E00046066D4116F1800745F100054FEA17279F
:1037F00047EA05674FEA15254FEA0666A6F1DE4659
:10380000B6F1805F20D9384605EBC47124F0010C75
:1038100001EB0C11BCF1FE6F02D8F0BCBDE80081D9
:1038200024425CBF01F5801E9EEAC47F02D4F0BC36
:10383000BDE80081244200F13980A1F1C041F0BC13
:10384000BDE8004100F033B94FEAD02040EA4150D2
:103850004FEAD1214FEAD22242EA43524FEAD32320
:10386000A7FB028607FB036605FB02661EEA0E0F36
:1038700058BFA6EB0056B6EB00564FEA520E4EEA82
:10388000C37E18EB0E0E56EB530EBCD518EB020898
:103890005E417F1C55F10005B5E74FF480154FF0F0
:1038A00000074FF000064FF00008ACE701F1C041FF
:1038B00001F000414FF00000F0BCBDE800810CEACF
:1038C000131511EA0C1F00D00CE013EA0C1F00F0D6
:1038D00026804FF0000081EA030101F00041F0BCB6
:1038E000BDE80081F0BCBDE8004181EA030100F0C1
:1038F000DEB8F0BCBDE8004170B500F08AF800BF4A
:10390000097EFC3E00F007B84FF0000081EA030199
:1039100001F00041704781EA030100F0C8B8F0BC33
:10392000BDE8004122494FF000007047FFFDFBF960
:10393000F7F5F4F2F0EEEDEBE9E8E6E4E3E1E0DEE2
:10394000DDDBDAD8D7D5D4D3D1D0CFCDCCCBCAC854
:10395000C7C6C5C4C2C1C0BFBEBDBCBBBAB9B8B77B
:10396000B6B5B4B3B2B1B0AFAEADACABAAA9A8A86E
:10397000A7A6A5A4A3A3A2A1A09F9F9E9D9C9C9B3C
:103980009A999998979796959594939392919190E7
:103990008F8F8E8E8D8C8C8B8B8A89898888878778
:1039A0008685858484838382828181800000FF07ED
:1039B0000000F87F4FEA41034FEA5353A3F58063B9
:1039C000D3F11E03C8BFD3F1210C0CDD4FF0004230
:1039D00042EAC12242EA505232FA03FC8CEAE17C0C
:1039E000ACEBE1707047102BC4BF0020704703F5AB
:1039F000787CBCF1FF3F04D06FF0004282EA2100E6
:103A0000704770B500F005F8499224800020704797
:103A1000F2E70EF1020E2EF0030E5EF8046B364252
:103A200005D4012A43EB030515F5001F12D8012820
:103A300041EB010C1CF5001F0CD80ED14FEAD17CD4
:103A40000CEB4C0C0CF1020C15F5001F08BF4CEBF5
:103A5000D37C04E04FF0080C01E04FEAD37C0CEB80
:103A60004C0526FA05F606F00706B6F1040C06D258
:103A70000EEB860CBDE870404CF0010C6047DFE8AF
:103A80000CF0090B02024FF00041A1F500214FF0AC
:103A9000000070BD19461046012851EB010418BF03
:103AA000D4F5001484BF002001F0004170BD080867
:103AB000A0F500114FEA31017047000010B591EAFE
:103AC000030F48BF83F000433FF57AAD841A71EBD2
:103AD000030C07D28CF0004C121943EB0C03001BB3
:103AE00061EB0C014FEA1154A4EB135CDFF8A4E185
:103AF0001EEA430F18BF9EEA445F00F0B48021EA3B
:103B0000045123EA6E035242C3EB6E0338BF5B1EBF
:103B1000DCF1200E25D322FA0CFE10EB0E0043FA46
:103B20000CFE41EB0E01CCF1200E03FA0EFE10EB61
:103B30000E00CCF1200E51F1000129D401EB04510B
:103B400012FA0EF2BDE8104058BF7047401C1CBF6F
:103B5000B2F1004F704700280CBF491C20F0010053
:103B6000704712EB020E43EB030218BF4FF0010E39
:103B70004EEA4202ACF1200CDCF11E0E56D943FA9B
:103B80000CFE10EB0E00CCF11E0E51F1FF31D5D51D
:103B90000EF1010E12FA0EFE404141EB010101EB64
:103BA000445C5FEA5C5C10D901EB045110EBDE7001
:103BB00038BFBEF1004FBDE8104018BF7047002865
:103BC0000CBF491C20F00100704734D24FEAD42CBE
:103BD00024F4006411F500111BD0B1FA81F20B3A04
:103BE000A41AA41ED2F12003914030FA03F3194322
:103BF000904001EBCC7101EB0451002CBDE810406A
:103C0000A8BF704701F1C04101F000414FF0000032
:103C10007047B0FA80F310FA03F102D1BDE810400A
:103C20007047E41A173C4805C90AE2E701EB045162
:103C3000BDE81040704749104FEA300001EB0451D5
:103C4000BDE8104002E04FF0000170474A0008BF95
:103C50000042F8D0B2F5001F28BF704701F00041C4
:103C60004FF0000070479EEA445F07D011EA5E0FF4
:103C7000BDE8104004BF002100207047BDE810409F
:103C800070B5FFF7C6FE00BF40DFF63E104683F07A
:103C9000004170470000E0FF43004FEAD30C4FEAB9
:103CA0003C0C43401FBF40070CF1605113F0FE4F26
:103CB00070471CF0006F03D10CF0004100207047EA
:103CC0000CF0004343EA507040EACC0010B500F01D
:103CD0000EF800BF000000924FEA0001FFF7E7BEB8
:103CE0004FF00041A1F500214FF0000070470EF1A8
:103CF000020E2EF0030E5EF8044B244204D44FEA69
:103D00004102B2F17F4F11D84FEA4003B3F17F4F28
:103D10000CD80ED14FEAD07C0CEB4C0C0CF1020C01
:103D2000B2F17F4F08BF4CEBD17C04E04FF0080CA0
:103D300001E04FEAD17C0CEB4C0324FA03F404F0CD
:103D40000704B4F1040C06D20EEB840CBDE810405D
:103D50004CF0010C6047DFE80CF0070802024FF05E
:103D60000040A0F5800010BD0846420018BFD2F107
:103D7000807288BF00F0004010BDF1EE100A4FF6CF
:103D8000FF71C0F2C03120EA010040F04070E1EE66
:103D9000100A70470100000002000000030000004C
:103DA000040000000500000000000000000000000A
:103DB000010203040607080900005C43CDCC8243DE
:103DC000CDCC9243CDCCA4439A99AE430000C443DA
:103DD0000000DC4366E6F643F83D000800000020E2
:103DE0001000000014020008083E00081000002027
:103DF00008070000300200080024F4000100000061
:083E00001000000000000000AA
:04000005080001D915
:00000001FF
