:020000040800F2
:10000000600700207902000809350008DD2B000890
:1000100005350008A1030008453B0008000000006A
:10002000000000000000000000000000513900083E
:10003000650400080000000079350008A9390008AF
:10004000930200089302000893020008930200083C
:10005000930200089302000893020008930200082C
:10006000930200089302000893020008A503000809
:10007000930200089302000893020008930200080C
:100080009302000800000000930200089302000899
:1000900093020008930200089302000893020008EC
:1000A00093020008930200089302000893020008DC
:1000B00093020008930200089302000893020008CC
:1000C00093020008930200089302000893020008BC
:1000D00093020008930200089302000893020008AC
:1000E000930200089302000893020008930200089C
:1000F0009302000893020008930200080000000029
:1001000000000000930200080000000093020008B5
:100110009302000800000000930200089302000808
:10012000930200089302000893020008930200085B
:100130009302000800000000000000009302000885
:100140009302000893020008000000000000000075
:10015000000000000000000000000000000000009F
:1001600000000000000000000000000093020008F2
:1001700093020008000000000000000000000000E2
:1001800000000000930200080000000000000000D2
:10019000000000000000000000000000000000005F
:1001A0000000000000000000930200089302000815
:1001B0009302000893020008930200080000000068
:1001C0000000000093020008000000000000000092
:1001D000930200089302000800F002F800F03CF8D7
:1001E0000AA090E8000C82448344AAF10107DA4592
:1001F00001D100F031F8AFF2090EBAE80F0013F0A8
:10020000010F18BFFB1A43F0010318474084000098
:1002100060840000103A24BF78C878C1FAD8520729
:1002200024BF30C830C144BF04680C607047000070
:100230000023002400250026103A28BF78C1FBD8EF
:10024000520728BF30C148BF0B6070471FB504F08C
:1002500052FF1FBD10B510BD00F06CF81146FFF73E
:10026000F5FF03F0D1FC00F08AF803B4FFF7F2FFCA
:1002700003BC00F08DF8000009488047094800479A
:10028000FEE7FEE7FEE7FEE7FEE7FEE7FEE7FEE746
:10029000FEE7FEE704480549054A064B70470000A3
:1002A000313B0008D90100086001002060070020F0
:1002B00060030020600300204FF0000200B51346E9
:1002C00094469646203922BFA0E80C50A0E80C5076
:1002D000B1F12001BFF4F7AF090728BFA0E80C5027
:1002E00048BF0CC05DF804EB890028BF40F8042B20
:1002F00008BF704748BF20F8022B11F0804F18BF8D
:1003000000F8012B704770477047704710B500F038
:1003100009F8006810BD10B5044600F003F8046049
:1003200010BD0000004870472000002000487047C2
:10033000200000207546FFF7F9FFAE46050069462C
:10034000534620F00700854618B020B5FFF7A2FFFE
:10035000BDE820404FF000064FF000074FF00008C6
:100360004FF0000BAC46ACE8C009ACE8C009ACE803
:10037000C009ACE8C00921F007018D46704710B5EF
:100380000446AFF300802046BDE81040FFF76DBF84
:1003900001491820ABBEFEE72600020070470000AE
:1003A000FFE7FEE780B540F28C00C2F2000000F0EB
:1003B000B3FE80BD84B003900398006840F207410B
:1003C000C4F20201884206D8FFE740F60000C4F2FA
:1003D0000200009005E040F62000C4F20200009008
:1003E000FFE7009802900398007808384CF6CD415A
:1003F000CCF6CC41A0FB01100009019002980399B2
:100400004A6C22F0030210448864039940F680008D
:10041000C4F20200C864019800F01F010120884066
:100420000399086504B0704782B001900198007983
:100430000090009940F6FC00C4F2020000EB81003D
:1004400001994865019940F64010C4F202008865A0
:100450000098013800F01F01012088400199C8650B
:1004600002B070477047000080B592B08C207821B0
:1004700064224FF6FF7300F0FBFC00201190FFE7B1
:1004800011980B2800F3BA80FFE71198C0EB001019
:10049000400004F09CFB41EC100B9FEDBB1B53ECA8
:1004A000112B51EC100B04F0BDFB41EC100B51EC87
:1004B000100B9FEDB70B53EC102B04F0FFF941EC40
:1004C000100B51EC100B04F01FF91090109804F071
:1004D000A1FD41EC100B03F087FC9FEDBB1B53EC1F
:1004E000112B51EC100B04F09DFB41EC100B51EC67
:1004F000100B9FEDAB0B53EC102B0793069204F0FF
:1005000035F941EC100B51EC100B04F031FBADF858
:100510003E00109804F07EFD41EC100B03F000FC4F
:100520009FEDAB1B53EC112B51EC100B04F07AFB3D
:1005300041EC100B51EC100B9FED9D0B53EC102B6D
:100540000993089204F012F941EC100B51EC100BD6
:1005500004F00EFBADF83C00109804F05BFD41EC9C
:10056000100B03F041FC9FED941B53EC112B51EC4D
:10057000100B04F057FB069A079B41EC100B51EC53
:10058000100B04F0F3F841EC100B51EC100B04F0DD
:10059000EFFAADF83A00109804F03CFD41EC100B76
:1005A00003F0BEFB9FED861B53EC112B51EC100B9F
:1005B00004F038FB089A099B41EC100B51EC100B2E
:1005C00004F0D4F841EC100B51EC100B04F0D0FA0D
:1005D000ADF83800BDF83E00BDF83C10BDF83A203B
:1005E000BDF83830EE464FF6FF7CCEF800C002F082
:1005F00021FBFFE711980130119041E700200D9099
:10060000FFE70D983B2800F3BA80FFE70D9800EB59
:100610004000400004F0DBFA41EC100B9FED5A1B48
:1006200053EC112B51EC100B04F0FCFA41EC100BC5
:1006300051EC100B9FED560B53EC102B04F03EF9D0
:1006400041EC100B51EC100B04F05EF80C900C9880
:1006500004F0E0FC41EC100B03F0C6FB9FED4E1BD9
:1006600053EC112B51EC100B04F0DCFA41EC100BA5
:1006700051EC100B9FED4A0B53EC102B039302929D
:1006800004F074F841EC100B51EC100B04F070FA0C
:10069000ADF82E000C9804F0BDFC41EC100B03F0FB
:1006A0003FFB9FED411B53EC112B51EC100B04F061
:1006B000B9FA41EC100B51EC100B9FED3D0B53ECD4
:1006C000102B0593049204F051F841EC100B51ECFF
:1006D000100B04F04DFAADF82C000C9804F09AFCC5
:1006E00041EC100B03F080FB9FED331B53EC112BFF
:1006F00051EC100B04F096FA029A039B41EC100B9C
:1007000051EC100B04F032F841EC100B51EC100BD3
:1007100004F02EFAADF82A000C9804F07BFC41ECB2
:10072000100B03F0FDFA9FED261B53EC112B51EC3F
:10073000100B04F077FA049A059B41EC100B51EC76
:10074000100B04F013F841EC100B51EC100B04F0FB
:100750000FFAADF82800BDF82E00BDF82C10BDF83A
:100760002A20BDF82830EE464FF6FF7CCEF800C0B8
:1007700002F060FAFFE70D9801300D9041E712B0EA
:1007800080BD00BF00BF00BF6E861BF0F92109408D
:1007900000000000008066400000000000C05740DC
:1007A00000000000008061400000000000C057C051
:1007B0000000000000005E40000000000000594002
:1007C00000000000000059C00000000000805640FA
:1007D00000000000008056C010B5B6B08C468646BA
:1007E000399838998DF8D7E08DF8D6C08DF8D52096
:1007F0008DF8D4308DF8D3108DF8D2009DF8D50047
:1008000000EB4000400004F0E2F941EC100B51EC29
:10081000100B9FEDFB0B53EC102B1193109204F077
:1008200001FA41EC100B51EC100B9FEDF70B53EC60
:10083000102B1393129204F041F841EC100B51EC81
:10084000100B03F061FF33909DF8D60004F0BFF960
:1008500041EC100B8DED020B9DF8D50004F0B7F9BB
:1008600041EC100B51EC100B9FEDE90B53EC102BEE
:100870001993189204F022F89DED020B41EC110B34
:1008800053EC112B51EC100B03F070FF41EC100BEB
:1008900051EC100B9FEDE00B53EC102B0A930992D7
:1008A00004F0C0F9109A119B41EC100B51EC100BA5
:1008B00004F0B8F9129A139B41EC100B51EC100B99
:1008C00003F0FCFF41EC100B51EC100B03F01CFF8C
:1008D00032909DF8D7004AF6AB21CAF6AA210B91B7
:1008E000A0FB0121C90801EB4101A0EB810004F04C
:1008F0006EF941EC100B8DED040B9DF8D60004F061
:1009000066F9189A199B41EC100B51EC100B03F08F
:10091000D5FF9DED040B41EC110B53EC112B51EC69
:10092000100B03F023FF41EC100B51EC100B9FED6B
:10093000BC0B53EC102B0F930E9204F073F9109A2A
:10094000119B41EC100B51EC100B04F06BF9129A57
:10095000139B41EC100B51EC100B03F0AFFF41EC7B
:10096000100B51EC100B03F0CFFE31909DF8D2002C
:1009700000EB4000400004F02AF9109A119B41EC72
:10098000100B51EC100B04F04DF9129A139B41EC33
:10099000100B51EC100B03F091FF41EC100B51ECDC
:1009A000100B03F0B1FE30909DF8D30004F00FF966
:1009B00041EC100B8DED060B9DF8D20004F007F909
:1009C000189A199B41EC100B51EC100B03F076FFB9
:1009D0009DED060B41EC110B53EC112B51EC100B60
:1009E00003F0C4FE099A0A9B41EC100B51EC100B6A
:1009F00004F018F9109A119B41EC100B51EC100BFC
:100A000004F010F9129A139B41EC100B51EC100BEF
:100A100003F054FF41EC100B51EC100B03F074FE8B
:100A20000B992F909DF8D400A0FB0121C90801EB80
:100A30004101A0EB810004F0CAF841EC100B8DEDF0
:100A40000C0B9DF8D30004F0C2F8189A199B41ECE6
:100A5000100B51EC100B03F031FF9DED0C0B41EC32
:100A6000110B53EC112B51EC100B03F07FFE0E9A7F
:100A70000F9B41EC100B51EC100B04F0D3F8109AC3
:100A8000119B41EC100B51EC100B04F0CBF8129AB7
:100A9000139B41EC100B51EC100B03F00FFF41ECDA
:100AA000100B51EC100B03F02FFE2E90339804F036
:100AB000B1FA41EC100B03F097F9189A199B51EC1D
:100AC000100B04F0AFF841EC100B51EC100B9FED44
:100AD000DA0B53EC102B2593249203F047FE41ECE4
:100AE000100B51EC100B04F043F81490339804F001
:100AF00091FA41EC100B03F013F951EC100B9FED40
:100B0000D00B53EC102B1B931A9204F08BF841EC92
:100B1000100B51EC100B9FEDCC0B53EC102B2993C9
:100B2000289203F023FE41EC100B51EC100B04F063
:100B30001FF8149A034669461F20169008608C20FF
:100B40002D9078212B9102F075F8329804F062FA1A
:100B500041EC100B03F048F951EC100B9FEDBC0B6E
:100B600053EC102B1E931D9204F05CF8249A259BE5
:100B700041EC100B51EC100B03F0F8FD41EC100BA5
:100B800051EC100B03F0F4FF1590329804F042FA88
:100B900041EC100B03F0C4F851EC100B9FEDAE0BC1
:100BA00053EC102B20931F9204F03CF8289A299BB9
:100BB00041EC100B51EC100B03F0D8FD41EC100B85
:100BC00051EC100B03F0D4FF159ADDF858C02B99A7
:100BD00003462D98EE46CEF800C002F02BF831986F
:100BE00004F018FA41EC100B03F0FEF851EC100B76
:100BF0009FED9B0B53EC102B2393229200F014B823
:100C00006E861BF0F921094000000000008066405C
:100C10000000000000004E400000000000001840EE
:100C20000000000000003E4003F0FCFF249A259BDA
:100C300041EC100B51EC100B03F098FD41EC100B44
:100C400051EC100B03F094FF1790319804F0E2F987
:100C500041EC100B03F064F851EC100B9FED820B8C
:100C600053EC102B2793269203F0DCFF289A299B44
:100C700041EC100B51EC100B03F078FD41EC100B24
:100C800051EC100B03F074FFDDF858C0179A2B9944
:100C900003462D98EE46CEF800C001F0CBFF309809
:100CA00004F0B8F941EC100B03F09EF8189A199B68
:100CB00051EC100B03F0B6FF249A259B41EC100B6E
:100CC00051EC100B03F052FD41EC100B51EC100BEA
:100CD00003F04EFF1C90309804F09CF941EC100B8F
:100CE00003F01EF81A9A1B9B51EC100B03F09AFFAD
:100CF000289A299B41EC100B51EC100B03F036FDA8
:100D000041EC100B51EC100B03F032FF1C9A2B99A5
:100D100003462D98EE464FF6FF7CCDF8A8C0CEF8DE
:100D200000C001F087FF2F9804F074F941EC100B1C
:100D300003F05AF81D9A1E9B51EC100B03F072FF42
:100D4000249A259B41EC100B51EC100B03F00EFD87
:100D500041EC100B51EC100B03F00AFF21902F987F
:100D600004F058F941EC100B02F0DAFF1F9A209BB7
:100D700051EC100B03F056FF289A299B41EC100B05
:100D800051EC100B03F0F2FC41EC100B51EC100B8A
:100D900003F0EEFE219ADDF8A8C02B9903462D98AA
:100DA000EE46CEF800C001F045FF2E9804F032F96F
:100DB00041EC100B03F018F8229A239B51EC100B16
:100DC00003F030FF249A259B41EC100B51EC100BE3
:100DD00003F0CCFC41EC100B51EC100B03F0C8FEFF
:100DE0002C902E9804F016F941EC100B02F098FFAD
:100DF000269A279B51EC100B03F014FF289A299B8D
:100E000041EC100B51EC100B03F0B0FC41EC100B5B
:100E100051EC100B03F0ACFEDDF8A8C02B992C9A16
:100E200003462D98EE46CEF800C001F003FF36B021
:100E300010BD00BF00BF00BF000000000080614087
:100E40000000000000004EC00000000000005E40F6
:100E5000000000000000444000000000000044C00A
:100E6000000000000000344000000000000034C01A
:100E700080B584B0ADF80E00ADF80C108DF80B20E5
:100E8000ADF80830002001909DF80B000090FFE7BE
:100E900001980099884200F38480FFE7BDF80E00B6
:100EA0000099401ABDF80C10019A891ABDF8082063
:100EB00080B289B201F056FFBDF80E0000990844D7
:100EC000BDF80C10019A891ABDF8082080B289B2C9
:100ED00001F048FFBDF80E000199401ABDF80C1052
:100EE000009A1144BDF8082080B289B201F03AFF9F
:100EF000BDF80E000199401ABDF80C10009A891A2D
:100F0000BDF8082080B289B201F02CFFBDF80E00B8
:100F100000990844BDF80C10019A1144BDF808204E
:100F200080B289B201F01EFFBDF80E00019908449D
:100F3000BDF80C10009A891ABDF8082080B289B259
:100F400001F010FFBDF80E0001990844BDF80C1027
:100F5000009A1144BDF8082080B289B201F002FF66
:100F6000BDF80E000099401ABDF80C10019A11440A
:100F7000BDF8082080B289B201F0F4FE019801307A
:100F8000019001980099494300FB00109DF80B1057
:100F90004943884204DDFFE7009801380090FFE7ED
:100FA00076E704B080BD000080B586B001200590D2
:100FB000FFE705980C2800F38A80FFE70598C0EB4F
:100FC0000010400003F003FE41EC100B9FED421BAC
:100FD00053EC112B51EC100B03F024FE41EC100BE1
:100FE00051EC100B9FED3E0B53EC102B03F066FC05
:100FF00041EC100B51EC100B03F086FB04900498AD
:1010000004F008F841EC100B02F0EEFE9FED361BE9
:1010100053EC112B51EC100B03F004FE41EC100BC0
:1010200051EC100B9FED320B53EC102B03F09EFB99
:1010300041EC100B51EC100B03F09AFDADF80E00D3
:10104000049803F0E7FF41EC100B02F069FE9FEDFE
:101050002A1B53EC112B51EC100B03F0E3FD41EC78
:10106000100B51EC100B9FED260B53EC102B03F0E3
:101070007DFB41EC100B51EC100B03F079FDADF84A
:101080000C00BDF80E00BDF80C10059A46F267631F
:10109000C6F2666352FB03FC4FEA9C0303EBDC736E
:1010A0000133EE464FF00C0CCEF808C04FF01F0C89
:1010B000CEF804C04FF6FF7CCEF800C0DBB292B28F
:1010C00002F0A4F8FFE705980130059071E706B03B
:1010D00080BD00BF00BF00BF6E861BF0F921094034
:1010E00000000000008066400000000000805B40BF
:1010F00000000000008061400000000000805BC034
:101100000000000000005E4081B0EFF3108072B676
:101110000090FFE7FEE7000080B584B003900398DD
:10112000006C0068029003980068006801900298C3
:101130000399496C01F01F01C8404007002825D5DC
:10114000FFE79DF80400400700281FD5FFE703983C
:10115000006800688006002807D4FFE7039801684C
:10116000086820F004000860FFE70398016C406CF9
:1011700000F01F020420904048600398006B20B1EB
:10118000FFE70398016B8847FFE76EE00298039939
:10119000496C01F01F01C840800700282FD5FFE7E8
:1011A0009DF804008007002829D5FFE70398006810
:1011B0000068800600280BD4FFE7039801680868E0
:1011C00020F00A0008600399012081F82500FFE75C
:1011D0000398016C406C00F01F02022090404860B0
:1011E000FFE70399002081F82400FFE70398C06A15
:1011F00020B1FFE70398C16A8847FFE734E002980F
:101200000399496C01F01F01C8400007002829D547
:10121000FFE79DF804000007002823D5FFE70398A7
:101220000168086820F00E0008600398026C406CAA
:1012300000F01F01012000FA01F151600399C86319
:10124000039981F82500FFE70399002081F8240025
:10125000FFE70398406B20B1FFE70398416B884795
:10126000FFE700E0FFE7FFE7FFE704B080BD000015
:1012700080B584B00290029820B9FFE701208DF874
:101280000F009CE00298006840F20741C4F202019E
:10129000884218D8FFE7029908684FF6F872CBF633
:1012A000FD7210444CF6CD42CCF6CC42A0FB0202BB
:1012B0006FF0030000EA9200486402990020C4F233
:1012C0000200086418E0029908684FF6F832CBF67D
:1012D000FD7210444CF6CD42CCF6CC42A0FB02028B
:1012E0006FF0030000EA92004864029940F2004067
:1012F000C4F202000864FFE70299022081F8250089
:101300000298006800680190019847F6F0718843E0
:10131000019002998868D1F80CC00B694A6940EACB
:101320000C00184310438A691043CA691043096AC4
:1013300001430198084301900198029909680860E7
:101340000298FFF737F802988068B0F5804F04D113
:10135000FFE7029900204860FFE702990879896C4D
:1013600008600298C16C006D48600298406888B1BE
:10137000FFE70298406804280CD8FFE70298FFF7BF
:1013800053F80298416D002008600298816DC06D8D
:10139000486007E002990020486502998865029933
:1013A000C865FFE702990020C863029A012182F80C
:1013B0002510029981F824008DF80F00FFE79DF8B1
:1013C0000F0004B080BD000080B584B0039000F031
:1013D000E7F90290039801900198013048B1FFE7C6
:1013E00040F21400C2F20000016801980844019024
:1013F000FFE7FFE700F0D4F90299401A019988420B
:1014000001D2FFE7F6E704B080BD00008BB00A9080
:10141000099100200890FFE7099800680899C840E2
:10142000002800F0A581FFE709980068089A0121CB
:101430009140084007900798002800F09581FFE749
:101440000998406800F00300012807D0FFE70998D9
:10145000406800F0030002282FD1FFE70A98806857
:10146000069008984100032000FA01F1069888438D
:1014700006900998C0680899490000FA01F1069899
:101480000843069006980A9988600A984068069072
:101490000899012000FA01F10698884306900998FE
:1014A0004068C0F30010089900FA01F1069808435B
:1014B000069006980A994860FFE70998406800F08E
:1014C0000300032818D0FFE70A98C0680690089820
:1014D0004100032000FA01F106988843069009981C
:1014E00080680899490000FA01F1069808430690BF
:1014F00006980A99C860FFE70998406800F0030061
:10150000022826D1FFE70A9808996FF0030202EA41
:1015100051010844006A0690089800F00700810015
:101520000F2000FA01F10698884306900998006997
:10153000089901F00701890000FA01F106980843B3
:10154000069006980A99089B02EA53021144086221
:10155000FFE70A980068069008984100032000FA07
:1015600001F10698884306900998406800F003004E
:101570000899490000FA01F1069808430690069878
:101580000A990860099880798007002800F0EB80AC
:10159000FFE7FFE741F26000C4F20200016841F09A
:1015A00001010160006800F0010005900598FFE767
:1015B000089820F003000821C4F201014058069069
:1015C000089800F0030081000F2000FA01F106984E
:1015D000884306900A98B0F1904F03D1FFE70020AE
:1015E000049042E00A9840F20041C4F600018842AB
:1015F00003D1FFE70120039034E00A9840F6000190
:10160000C4F60001884203D1FFE70220029026E0E1
:101610000A9840F60041C4F60001884203D1FFE772
:101620000320019018E00A9841F20001C4F600017D
:10163000884203D1FFE7042000900AE00A9941F2B2
:101640000042C4F600020620914208BF0520009027
:10165000FFE700980190FFE701980290FFE70298EA
:101660000390FFE703980490FFE70498089901F0BE
:101670000301890000FA01F10698084306900698D4
:10168000089921F003010822C4F20102885040F2B7
:101690000840C4F201000068069007990698884344
:1016A000069009988079C006002805D5FFE70799BC
:1016B000069808430690FFE7069840F20841C4F2F6
:1016C0000101086040F20C40C4F20100006806907D
:1016D0000799069888430690099880798006002823
:1016E00005D5FFE70799069808430690FFE7069897
:1016F00040F20C41C4F20101086040F20440C4F21F
:10170000010000680690079906988843069009989A
:1017100080798007002805D5FFE7079906980843D8
:101720000690FFE7069840F20441C4F20101086008
:1017300040F20040C4F20100006806900799069844
:101740008843069009988079C00728B1FFE7079978
:10175000069808430690FFE7069840F20041C4F25D
:1017600001010860FFE7FFE708980130089053E6A1
:101770000BB0704782B00190ADF802108DF80120D7
:101780009DF8010028B1FFE7BDF8020001998861CA
:1017900004E0BDF8020001998862FFE702B07047DB
:1017A00040F25810C2F200000068704740F2140086
:1017B000C2F20000026840F25811C2F2000108684B
:1017C000104408607047000080B582B000208DF89A
:1017D0000700032000F09AF80F2000F00DF820B168
:1017E000FFE701208DF8070002E000F049F8FFE76D
:1017F0009DF8070002B080BD80B582B00190002046
:101800008DF8030040F21400C2F20000006878B3C3
:10181000FFE740F20000C2F20000006840F214014D
:10182000C2F200010A684FF47A71B1FBF2F1B0FB29
:10183000F1F001F0CBF9B0B9FFE701980F280DD80E
:10184000FFE701994FF0FF30002200F047F80198C0
:1018500040F21801C2F20001086003E001208DF897
:101860000300FFE703E001208DF80300FFE703E03A
:1018700001208DF80300FFE79DF8030002B080BD52
:1018800080B582B0FFE741F26000C4F20200016857
:1018900041F001010160006800F001000190019831
:1018A000FFE7FFE741F25800C4F20200016841F08F
:1018B00080510160006800F0805000900098FFE7C0
:1018C00000F006F902B080BD80B582B08DF8070047
:1018D0009DF9070002F038F902B080BD80B586B0EE
:1018E0008DF817000491039202F046F902909DF9D9
:1018F0001700019002980499039A01F007FE01462F
:10190000019802F041F906B080BD000080B582B0B8
:101910000190019802F05AF902B080BD85B00390A1
:10192000039800285ED1FFE747F20000C4F20000F0
:10193000006800F4C060B0F5806F49D1FFE747F25E
:101940008001C4F20001086820F48070086047F24A
:101950000002C4F200021168012060F34A21116004
:1019600040F20001C2F200010968322251434DF6F3
:101970008362C4F21B32A1FB022100EB9140029072
:10198000FFE747F21400C4F2000001680020490597
:101990000029019006D5FFE70298002818BF012012
:1019A0000190FFE70198C00720B1FFE702980138D6
:1019B0000290E6E747F21400C4F200000068400518
:1019C000002804D5FFE703208DF813007CE008E031
:1019D00047F28001C4F20001086820F480700860BA
:1019E000FFE76DE00398B0F5007F5ED1FFE747F2B7
:1019F0000000C4F20000006800F4C060B0F5806F21
:101A000049D1FFE747F28001C4F20001086840F4C1
:101A10008070086047F20002C4F2000211680120E1
:101A200060F34A21116040F20001C2F2000109682E
:101A3000322251434DF68362C4F21B32A1FB0221D4
:101A400000EB91400290FFE747F21400C4F200005F
:101A50000168002049050029009006D5FFE702989B
:101A6000002818BF01200090FFE70098C00720B1B0
:101A7000FFE7029801380290E6E747F21400C4F24B
:101A8000000000684005002804D5FFE703208DF81A
:101A9000130019E008E047F28001C4F20001086871
:101AA00040F480700860FFE709E047F20001C4F2EB
:101AB00000010868022262F34A200860FFE7FFE79E
:101AC00000208DF81300FFE79DF8130005B0704764
:101AD00047F20801C4F20001086840F48040086041
:101AE0007047000080B586B00490039100200090FC
:101AF000049820B9FFE701208DF8170081E10398D1
:101B000042F20001C4F20201096801F00F018842AB
:101B100016D9FFE742F20000C4F20200016821F08A
:101B20000F01039A11430160006800F00F00039950
:101B3000884204D0FFE701208DF8170061E1FFE73C
:101B400004980078C007002800F0A380FFE70498FD
:101B50004068032839D1FFE741F20000C4F20200D7
:101B600000688001002804D4FFE701208DF81700E9
:101B700047E101F003FD019001984BF20141C0F2F1
:101B8000C441884220D3FFE741F20800C4F20200BA
:101B9000006810F0F00F0AD0FFE704980078800783
:101BA000002810D5FFE70498806860B9FFE741F28C
:101BB0000801C4F202010868082262F307100860F5
:101BC00080200090FFE7FFE738E004984068022893
:101BD0000ED1FFE741F20000C4F20200006880036A
:101BE000002804D4FFE701208DF8170009E10DE07B
:101BF00041F20000C4F2020000684005002804D44D
:101C0000FFE701208DF81700FBE0FFE700F0FEF88A
:101C1000019001984BF20141C0F2C44188420CD3BB
:101C2000FFE741F20801C4F202010868082262F3EA
:101C30000710086080200090FFE7FFE741F20801ED
:101C4000C4F20201086820F00300049A52681043AD
:101C50000860FFF7A5FD0290FFE741F20800C4F21B
:101C60000200006800F00C0004994968B0EB810F95
:101C70000ED0FFE7FFF794FD0299401A41F2893137
:101C8000884204D3FFE703208DF81700B9E0E4E7AA
:101C9000FFE704980078800700282CD5FFE7049818
:101CA00000784007002809D5FFE741F20801C4F297
:101CB0000201086840F4E0600860FFE704980078DB
:101CC000000700280BD5FFE741F20801C4F202012A
:101CD000086840F4E06020F460500860FFE741F2DB
:101CE0000801C4F20201086820F0F000049A92682A
:101CF000104308600DE00098802809D1FFE741F209
:101D00000801C4F20201086820F0F0000860FFE753
:101D1000FFE7039842F20001C4F20201096801F0F2
:101D20000F01884228D2FFE742F20001C4F202010B
:101D3000086820F00F00039A10430860FFF730FD99
:101D40000290FFE742F20000C4F20200006800F0D7
:101D50000F00039988420ED0FFE7FFF721FD02999B
:101D6000401A41F28931884204D3FFE703208DF8FD
:101D7000170046E0E6E7FFE70498007840070028F0
:101D80000CD5FFE741F20801C4F20201086820F413
:101D9000E060049AD26810430860FFE70498007876
:101DA000000700280DD5FFE741F20801C4F2020147
:101DB000086820F46050049A126940EAC200086082
:101DC000FFE700F023F841F20801C4F202010968BC
:101DD000C9B20A0945F24821C0F60001895C01F048
:101DE0001F01C84040F20001C2F20001086040F249
:101DF0001800C2F200000068FFF7FEFC8DF8170023
:101E0000FFE79DF8170006B080BD000086B041F2E4
:101E10000800C4F20200006800F00C00042806D19B
:101E2000FFE742F20040C0F2F400019069E041F2A5
:101E30000800C4F20200006800F00C00082806D177
:101E4000FFE741F60030C0F2B700019058E041F2E0
:101E50000800C4F20200006800F00C000C284BD10E
:101E6000FFE741F20C00C4F20200016801F0030137
:101E700004910068C1B2012000EB11100290049897
:101E80000090022815D0FFE70098032812D1FFE741
:101E9000029941F60030C0F2B700B0FBF1F041F218
:101EA0000C01C4F202010968C1F306214843059000
:101EB00011E0FFE7029942F20040C0F2F400B0FBEB
:101EC000F1F041F20C01C4F202010968C1F30621EC
:101ED00048430590FFE741F20C00C4F2020000689D
:101EE00000F0C061022000EB116003900598039997
:101EF000B0FBF1F0019002E000200190FFE7FFE766
:101F0000FFE7019806B07047B0B588B00690069814
:101F100020B9FFE701208DF81F00CCE30698007878
:101F2000C007002800F09B80FFE741F20800C4F2E0
:101F30000200006800F00C00049041F20C00C4F2B2
:101F40000200006800F00300039004980C2804D1FC
:101F5000FFE70398032804D0FFE70498082812D16C
:101F6000FFE741F20000C4F202000068800300288D
:101F700008D5FFE70698406820B9FFE701208DF8F3
:101F80001F0098E36AE0FFE706984068B0F5803FDD
:101F900009D1FFE741F20001C4F20201086840F4F0
:101FA0008030086020E006984068B0F5A02F0DD181
:101FB000FFE741F20001C4F20201086840F480200A
:101FC0000860086840F4803008600CE041F20001CD
:101FD000C4F20201086820F480300860086820F428
:101FE00080200860FFE7FFE7FFE706984068D0B170
:101FF000FFE7FFF7D5FB0590FFE741F20000C4F2D1
:1020000002000068800300280CD4FFE7FFF7C8FB3C
:102010000599401A652804D3FFE703208DF81F00B7
:1020200049E3EAE719E0FFF7BBFB0590FFE741F260
:102030000000C4F202000068800300280CD5FFE70E
:10204000FFF7AEFB0599401A652804D3FFE703208C
:102050008DF81F002FE3EAE7FFE7FFE7FFE70698A9
:1020600000788007002840F19F80FFE741F20800D8
:10207000C4F20200006800F00C00049041F20C0071
:10208000C4F20200006800F00300039004980C28DA
:1020900004D1FFE70398022804D0FFE7049804283E
:1020A0002CD1FFE741F20000C4F2020000684005B5
:1020B000002808D5FFE70698C06820B9FFE701208F
:1020C0008DF81F00F7E241F20401C4F20201086832
:1020D00020F0FE40069A126940EA0260086040F271
:1020E0001800C2F200000068FFF786FB20B1FFE78E
:1020F00001208DF81F00DEE2FFE754E00698C0687B
:1021000070B3FFE741F20001C4F20201086840F435
:1021100080700860FFF744FB0590FFE741F2000084
:10212000C4F202000068400500280CD4FFE7FFF766
:1021300037FB0599401A032804D3FFE703208DF8E5
:102140001F00B8E2EAE741F20401C4F202010868A4
:1021500020F0FE40069A126940EA0260086021E021
:1021600041F20001C4F20201086820F480700860A6
:10217000FFF716FB0590FFE741F20000C4F20200F2
:102180000068400500280CD5FFE7FFF709FB05991B
:10219000401A032804D3FFE703208DF81F008AE2CA
:1021A000EAE7FFE7FFE7FFE7069800780007002867
:1021B00049D5FFE70698406910B3FFE741F2940163
:1021C000C4F20201086840F001000860FFF7E8FA75
:1021D0000590FFE741F29400C4F202000068800716
:1021E00000280CD4FFE7FFF7DBFA0599401A032813
:1021F00004D3FFE703208DF81F005CE2EAE721E04B
:1022000041F29401C4F20201086820F00100086064
:10221000FFF7C6FA0590FFE741F29400C4F202000E
:102220000068800700280CD5FFE7FFF7B9FA059989
:10223000401A032804D3FFE703208DF81F003AE279
:10224000EAE7FFE7FFE7069800784007002840F13B
:10225000C680FFE700208DF80B0041F25800C4F261
:1022600002000068C000002813D4FFE7FFE741F236
:102270005800C4F20200016841F08051016000681A
:1022800000F0805001900198FFE701208DF80B00CD
:10229000FFE747F20000C4F200000068C005002814
:1022A00022D4FFE747F20001C4F20001086840F4BD
:1022B00080700860FFF774FA0590FFE747F20000AE
:1022C000C4F200000068C00500280CD4FFE7FFF747
:1022D00067FA0599401A032804D3FFE703208DF815
:1022E0001F00E8E1EAE7FFE7FFE7069880680128BA
:1022F00009D1FFE741F29001C4F20201086840F001
:10230000010008601FE00698806805280DD1FFE7EE
:1023100041F29001C4F20201086840F00400086034
:10232000086840F0010008600CE041F29001C4F23E
:102330000201086820F001000860086820F004002D
:102340000860FFE7FFE7FFE706988068E0B1FFE776
:10235000FFF726FA0590FFE741F29000C4F2020071
:102360000068800700280ED4FFE7FFF719FA0599E7
:10237000401A41F28931884204D3FFE703208DF8E7
:102380001F0098E1E8E71BE0FFF70AFA0590FFE776
:1023900041F29000C4F202000068800700280ED5C8
:1023A000FFE7FFF7FDF90599401A41F289318842AC
:1023B00004D3FFE703208DF81F007CE1E8E7FFE787
:1023C0009DF80B00012809D1FFE741F25801C4F242
:1023D0000201086820F080500860FFE7FFE70698D8
:1023E00000788006002849D5FFE70698806910B379
:1023F000FFE741F29801C4F20201086840F00100D1
:102400000860FFF7CDF90590FFE741F29800C4F2AC
:1024100002000068800700280CD4FFE7FFF7C0F92E
:102420000599401A032804D3FFE703208DF81F0005
:1024300041E1EAE721E041F29801C4F202010868B3
:1024400020F001000860FFF7ABF90590FFE741F2CB
:102450009800C4F202000068800700280CD5FFE74E
:10246000FFF79EF90599401A032804D3FFE70320DC
:102470008DF81F001FE1EAE7FFE7FFE70698C06954
:10248000002800F01481FFE741F20800C4F20200C6
:10249000006800F00C000C2800F0B080FFE7069800
:1024A000C06902287CD1FFE741F20001C4F20201B9
:1024B000086820F080700860FFF772F90590FFE768
:1024C00041F20000C4F202000068800100280CD52F
:1024D000FFE7FFF765F90599401A032804D3FFE7E2
:1024E00003208DF81F00E6E0EAE741F20C01C4F298
:1024F0000201086848F20C02C0F29F121040DDF899
:1025000018C0DCF82020DCF82450DCF828E0DCF8E7
:102510002C306FF00F0404EB0514224342EA0E2224
:10252000DCF8304040F2000ECFF6E07E0EEA045EAA
:10253000AEF5001E42EA0E02DCF834E04FF07E4CAD
:102540000CEA0E6C0CF17E4C42EA0C0242EAC362C9
:102550001043086041F20002C4F20202106840F029
:1025600080701060086840F080700860FFF718F90C
:102570000590FFE741F20000C4F20200006880010C
:1025800000280CD4FFE7FFF70BF90599401A032840
:1025900004D3FFE703208DF81F008CE0EAE72CE06E
:1025A00041F20001C4F20201086820F08070086066
:1025B000FFF7F6F80590FFE741F20000C4F20200D1
:1025C0000068800100280CD5FFE7FFF7E9F80599BE
:1025D000401A032804D3FFE703208DF81F006AE0A8
:1025E000EAE741F20C01C4F2020108684FF6FC72FE
:1025F000CFF6EE6210400860FFE757E00698C0692A
:10260000012804D1FFE701208DF81F0053E041F2BB
:102610000C00C4F2020000680390039800F003006D
:102620000699096A88423BD1FFE7039800F0F00061
:1026300006994A6A6FF00F0101EB021188422FD10F
:10264000FFE7039800F4FE400699896AB0EB012F7A
:1026500026D1FFE7039800F078400699C96AB0EBED
:10266000C16F1DD1FFE7039800F4C00006990A6B03
:102670000021CFF6E07101EA0251A1F50011884274
:102680000ED1FFE7039800F0C06006994A6B4FF047
:102690007E4101EA026101F17E41884204D0FFE7F8
:1026A00001208DF81F0006E0FFE7FFE7FFE70020AD
:1026B0008DF81F00FFE79DF81F0008B0B0BD0000B7
:1026C00080B584B00290029820B9FFE701208DF810
:1026D0000F0097E00298406A60B9FFE702984068EF
:1026E000B0F5827F01D1FFE703E002990020C861C5
:1026F000FFE705E002990020086102994861FFE7C1
:10270000029900208862029890F85D0040B9FFE7C6
:102710000299002081F85C00029800F077F8FFE74A
:102720000299022081F85D0002980168086820F093
:10273000400008600298C068B0F5E06F03D9FFE779
:102740000020019003E04FF480500190FFE70298D1
:10275000C068B0F5706F0AD0FFE70298C068B0F5A6
:10276000E06F04D0FFE7029900208862FFE7029A39
:10277000009211685068D2F808C0136900F48270A2
:102780000CF4044C604403F002031844536903F052
:1027900001031844936903F400731844D36903F0E8
:1027A00038031844136A03F080031844926A02F451
:1027B000005210430860029B588B00F00400196817
:1027C000DA68D3F824C05B6B0CF0100C604403F0A3
:1027D0000803184402F470621044019A02F4805213
:1027E0001044486002980168C86920F40060C8611C
:1027F000029900200866029A012182F85D108DF886
:102800000F00FFE79DF80F0004B080BD80B58AB0CF
:102810000990002008900790069005900490099870
:10282000006843F20001C4F20101884255D1FFE77C
:10283000FFE741F26000C4F20200016841F48051F8
:102840000160006800F4805003900398FFE7FFE701
:1028500041F24C00C4F20200016841F00101016044
:10286000006800F0010002900298FFE7A0200490A9
:10287000022005900020009006900320079005207C
:1028800008904FF0904004A9FEF7C0FD009940F277
:102890008C00C2F2000001900822C4F20202026021
:1028A0000B22426010228260C1608022026141617D
:1028B0008161C1610162FEF7DBFC18B1FFE7FEF741
:1028C00023FCFFE7FFE7099840F28C01C2F2000108
:1028D000416509988862FFE7FFE70AB080BD000004
:1028E00080B588B006900591ADF8122003930020C2
:1028F0008DF80700FFE7069890F85C00012804D1E6
:10290000FFE702208DF81F005CE10699012081F8A5
:102910005C00FFE7FFE7FEF743FF0290BDF81200FF
:10292000ADF80400069890F85D00012804D0FFE798
:1029300002208DF807003AE1059820B1FFE7BDF8C5
:10294000120020B9FFE701208DF807002FE106995A
:10295000032081F85D000699002008660599069A13
:102960009163BDF81210069A9187BDF81210069A6D
:10297000D187069908640699A1F844000699A1F840
:102980004600069908650699C86406988068B0F5FF
:10299000004F0DD1FFE706980168086820F040005D
:1029A000086006980168086840F480400860FFE706
:1029B00006980068006800F04000402807D0FFE754
:1029C00006980168086840F040000860FFE7069834
:1029D000C068B0F5E06F4BD9FFE70698406828B1B2
:1029E000FFE7BDF8040001280ED1FFE70698016853
:1029F000806B0088C8600699886B023088630699EE
:102A0000C88F0138C887FFE7FFE70698C08F70B30B
:102A1000FFE7069800688068800700280ED5FFE76A
:102A200006980168806B0088C8600699886B023040
:102A300088630699C88F0138C88717E0FEF7B0FE93
:102A40000299401A0399884204D3FFE703980130A2
:102A500018B9FFE7039840B9FFE703208DF8070096
:102A60000699012081F85D00A1E0FFE7CDE773E062
:102A70000698406828B1FFE7BDF80400012822D17C
:102A8000FFE70698C08F02280ED3FFE7069801687B
:102A9000806B0088C8600699886B0230886306994D
:102AA000C88F0238C8870DE006980168806B0078EF
:102AB00008730699886B013088630699C88F0138BE
:102AC000C887FFE7FFE7FFE70698C08F002842D0DE
:102AD000FFE70698006880688007002822D5FFE796
:102AE0000698C08F02280ED3FFE706980168806B16
:102AF0000088C8600699886B023088630699C88F81
:102B00000238C8870DE006980168806B007808736A
:102B10000699886B013088630699C88F0138C88789
:102B2000FFE717E0FEF73CFE0299401A039988423E
:102B300004D3FFE70398013018B9FFE7039840B9C1
:102B4000FFE703208DF807000699012081F85D005A
:102B50002DE0FFE7B8E7FFE706980399029A00F037
:102B60006FFD20B1FFE7069920200866FFE7069871
:102B7000806870B9FFE7FFE70020009006980068C2
:102B8000C068009006980068806800900098FFE791
:102B9000FFE70698006E20B1FFE701208DF80700DF
:102BA00004E00699012081F85D00FFE7FFE7FFE7F9
:102BB0000699002081F85C00FFE79DF807008DF87A
:102BC0001F00FFE79DF81F0008B080BD80B582B0F0
:102BD0000190019800F0BEFE02B080BDFFE7FEE765
:102BE00080B582B0ADF80600ADF80410ADF8022053
:102BF000ADF800302A2000F0C1FBBDF8060014300B
:102C000080B200F0A3FBBDF80200143080B200F0E7
:102C10009DFB2B2000F0B2FBBDF8040000F096FBFA
:102C2000BDF8000000F092FB2C2000F0A7FB02B0E2
:102C300080BD000080B58CB084460E98ADF82EC0E3
:102C4000ADF82C10ADF82A20ADF82830ADF82600EC
:102C5000002008900790BDF82A00BDF82E10401AF9
:102C60000690BDF82800BDF82C10401A0590BDF85C
:102C70002E000190BDF82C0000900698012803DB7F
:102C8000FFE7012003900DE0069818B9FFE7002048
:102C9000039006E04FF0FF30039006984042069004
:102CA000FFE7FFE70598012803DBFFE7012002901B
:102CB0000DE0059818B9FFE70020029006E04FF0FC
:102CC000FF300290059840420590FFE7FFE7069825
:102CD0000599884203DDFFE70698049002E0059815
:102CE0000490FFE70020ADF82400FFE7BDF82400C2
:102CF00004990131884233DAFFE7BDF80400BDF8DA
:102D00000010BDF8262000F02DF806990898084418
:102D100008900599079808440790089804998842F4
:102D200009DDFFE704990898401A08900399019873
:102D300008440190FFE707980499884209DDFFE7FE
:102D400004990798401A0790029900980844009047
:102D5000FFE7FFE7BDF824000130ADF82400C5E728
:102D60000CB080BD80B582B0ADF80600ADF804109F
:102D7000ADF80220BDF80620BDF804301046194613
:102D8000FFF72EFFBDF8020000F0E0FA02B080BDB0
:102D900080B584B084460698ADF80EC0ADF80C102E
:102DA000ADF80A20ADF80830ADF80600BDF80E0009
:102DB000BDF80C10BDF80A20013ABDF80830013BFF
:102DC00092B29BB2FFF70CFFBDF80C00ADF8040007
:102DD000FFE7BDF80400BDF8081088421EDAFFE7DF
:102DE000BDF80E00ADF80200FFE7BDF80200BDF827
:102DF0000A1088420BDAFFE7BDF8060000F0A6FAD9
:102E0000FFE7BDF802000130ADF80200EDE7FFE793
:102E1000BDF804000130ADF80400DAE704B080BD6D
:102E200080B592B04FF09040019040210122059270
:102E3000FEF7A0FC01980821089100220492FEF7F9
:102E400099FC64200290FEF7BFFA0198059A089950
:102E5000FEF790FC0298FEF7B7FA0298FEF7B4FA74
:102E6000112000F08BFA7820FEF7AEFA362000F041
:102E700085FA702000F078FA3A2000F07FFA0520F9
:102E8000069000F071FAB22000F078FA0C2003905E
:102E900000F06AFA039800F067FA049800F064FA08
:102EA00033200B9000F060FA0B9800F05DFAB72029
:102EB00000F064FA352000F057FABB2000F05EFA0B
:102EC000322000F051FAC22000F058FA059800F0C4
:102ED0004BFAC32000F052FA15200F9000F044FA8C
:102EE000C42000F04BFA202000F03EFAC62000F08B
:102EF00045FA0F2000F038FAD020079000F03EFA93
:102F0000A42000F031FAA12000F02EFAE02000F019
:102F100035FA079800F028FA089800F025FA0E20F4
:102F2000099000F021FA09200A9000F01DFA0A9891
:102F300000F01AFA069800F017FA3120109000F00D
:102F400013FA0B9800F010FA48200C9000F00CFADD
:102F500017200D9000F008FA14200E9000F004FAEB
:102F60000F9800F001FA109800F0FEF9342011904B
:102F700000F0FAF9E12000F001FA079800F0F4F906
:102F8000089800F0F1F9099800F0EEF90A9800F0BD
:102F9000EBF90A9800F0E8F90F9800F0E5F91098BD
:102FA00000F0E2F90B9800F0DFF90C9800F0DCF982
:102FB0000D9800F0D9F90E9800F0D6F90F9800F0AE
:102FC000D3F9109800F0D0F9119800F0CDF9212034
:102FD00000F0D4F9292000F0D1F912B080BD000032
:102FE000B0B588B094468E4604460E980D990C9A5A
:102FF000ADF81E40ADF81CE08DF81BC0ADF81830E0
:10300000ADF816208DF815108DF8140000200190F1
:103010008DF81000BDF81E00ADF80A009DF81500EF
:1030200040088DF812009DF81220D008012101EB14
:10303000D2015207002A18BF08469DF815104843D0
:10304000ADF80C009DF81B0020388DF81B00BDF872
:103050001E00BDF81C109DF812200244013A9DF894
:1030600015300B44013B92B29BB2FFF7B9FD0198BA
:10307000ADF80E00FFE7BDF80E00BDF80C10884259
:1030800080F2C180FFE79DF815000C2810D1FFE702
:103090009DF81B0000EB400145F25820C0F60000EF
:1030A00000EB8100BDF80E10405C8DF813003EE08F
:1030B0009DF8150010280ED1FFE79DF81B1045F272
:1030C000CC60C0F6000000EB0110BDF80E10405CB3
:1030D0008DF813002AE09DF81500182810D1FFE79D
:1030E0009DF81B0000EB400145F6BC40C0F6000017
:1030F00000EB0110BDF80E10405C8DF8130014E0D9
:103100009DF8150020280ED1FFE79DF81B1046F60C
:103110008C60C0F6000000EB8110BDF80E10405C22
:103120008DF8130000E06EE0FFE7FFE7FFE7002007
:103130008DF81100FFE79DF8110007285CDCFFE720
:103140009DF8140030BBFFE79DF813009DF81110A7
:10315000C840C00728B1FFE7BDF8180000F0F6F836
:1031600004E0BDF8160000F0F1F8FFE79DF810004C
:1031700001308DF810009DF810209DF81210B2FB60
:10318000F1F000FB112020B9FFE700208DF81000BE
:1031900032E02AE09DF813009DF81110C840C007E6
:1031A00048B1FFE7BDF81E00BDF81C10BDF818209F
:1031B000FFF7D8FDFFE7BDF81E000130ADF81E0097
:1031C000BDF81E00BDF80A10401A9DF81210884282
:1031D0000AD1FFE7BDF80A00ADF81E00BDF81C00DB
:1031E0000130ADF81C0007E0FFE7FFE79DF8110094
:1031F00001308DF811009EE7FFE7BDF80E000130A9
:10320000ADF80E0037E708B0B0BD0000B0B58AB029
:1032100094468E46044610980F990E9AADF82640B3
:10322000ADF824E0ADF822C08DF82130ADF81E20B5
:10323000ADF81C108DF81B0000208DF818009DF8CB
:103240001B1049088DF817108DF81A00FFE79DF83C
:103250001A009DF82110884276DAFFE7BDF82200B7
:1032600004909DF821109DF81A00C0430844C1B293
:103270000A2000F023FD01460498B0FBF1F04CF663
:10328000CD41CCF6CC41A0FB0121C90801EB810165
:10329000A0EB41008DF819009DF8180070BBFFE706
:1032A0009DF81A009DF821100139884226DAFFE7BF
:1032B0009DF81900E8B9FFE7BDF826209DF81A002F
:1032C0009DF8171010FB0120BDF82410BDF81E302A
:1032D000BDF81C209DF81BE0EC460024CCF808400B
:1032E000CCF804E0CCF8002080B22022FFF778FE72
:1032F00024E001208DF81800FFE7FFE7BDF8262045
:103300009DF81A009DF8171010FB0120BDF824103D
:103310009DF819203032BDF81E30BDF81CC09DF854
:103320001B40EE460025CEF80850CEF80440CEF8FB
:1033300000C080B2D2B2FFF753FEFFE79DF81A003B
:1033400001308DF81A0082E70AB0B0BD80B582B0B6
:10335000ADF806009DF8070000F028F89DF806007B
:1033600000F024F802B080BD80B582B08DF807006F
:103370009DF8070000F01AF802B080BD80B584B057
:103380008DF80F004FF09040019010210291002223
:10339000FEF7F0F99DF80F0000F008F80198029987
:1033A0000122FEF7E7F904B080BD000080B584B0CB
:1033B0008DF80F004FF090400290042101910022FF
:1033C000FEF7D8F99DF80F0000F026F90199029850
:1033D0000122FEF7CFF904B080BD000080B584B0B3
:1033E000FFE741F24800C4F20200016841F0040125
:1033F0000160006800F0040003900398FFE7FFE716
:1034000041F24800C4F20200016841F0010101608C
:10341000006800F0010002900298FFE70B20019085
:1034200000221146FEF75AFA0198FEF74DFA04B051
:1034300080BD000080B58AB00020099008900790F8
:1034400006900590FFE741F24C00C4F202000168CB
:1034500041F020010160006800F020000490049811
:10346000FFE7FFE741F24C00C4F20200016841F0BF
:1034700001010160006800F0010003900398FFE77C
:103480004FF0904002905C21009100220192FEF7E3
:1034900071F9009A0199029805920122069207910A
:1034A000089105A9FDF7B2FF0AB080BD80B582B0D2
:1034B00040F2EC00C2F20000019043F20001C4F2BD
:1034C000010101604FF482714160002282604FF47B
:1034D000E061C160026142614FF4007181610821C5
:1034E000C1610262426282620723C3620263416376
:1034F000FFF7E6F818B1FFE7FDF706FEFFE702B0B9
:1035000080BD0000FFE7FEE7FFE7FEE788B0079019
:1035100006910592079800F0070004900498C0F106
:103520000700052803D3FFE70420019004E0049876
:10353000C0F107000190FFE7019803900498043060
:10354000062803D8FFE70020009003E00498033822
:103550000090FFE70098029006980399012202FA72
:1035600001F101390840029B984005999A40013ABF
:103570001140084308B070477047000086B041F220
:103580000C00C4F20200016801F00301049100681C
:10359000C1B2012000EB11100290049800900228A3
:1035A00015D0FFE70098032812D1FFE7029941F6F2
:1035B0000030C0F2B700B0FBF1F041F20C01C4F2F0
:1035C00002010968C1F306214843059011E0FFE7B5
:1035D000029942F20040C0F2F400B0FBF1F041F277
:1035E0000C01C4F202010968C1F3062148430590A9
:1035F000FFE741F20C00C4F20200006800F0C06175
:10360000022000EB1160039005980399B0FBF1F0E4
:103610000190019806B0704780B582B08DF8070020
:1036200040F2EC00C2F200000DF1070101220A2372
:10363000FFF756F98DF806009DF8060002B080BD30
:1036400080B586B00490039102920498039B02997E
:103650006A4611604FF4C051002200F03DF848B1B5
:10366000FFE70499086E40F02000086603208DF8FB
:1036700017002CE00498039B02996A461160802190
:10368000002200F0CFF848B1FFE70499086E40F03F
:103690002000086603208DF8170018E00498039BAB
:1036A00002996A4611604FF4C061002200F014F8DC
:1036B00048B1FFE70499086E40F020000866032037
:1036C0008DF8170003E000208DF81700FFE79DF844
:1036D000170006B080BD000080B58CB0DDF838C0A2
:1036E0000A9009910892079300208DF80B00079823
:1036F0000190FEF755F8024601980E99891A084480
:103700000590FEF74DF804900A9800680C3003907D
:10371000059840F20001C2F20001096823225143DA
:10372000090D48430690FFE70A98006880680999E8
:103730000840089988426DD0FFE70998B0F5C06F3E
:103740000AD1FFE7089838B9FFE7039800788DF8A9
:103750000B009DF80B00FFE707980130002858D0B8
:10376000FFE7FEF71DF80499401A0599884204D234
:10377000FFE70598002842D1FFE70A9801684868EA
:1037800020F0E00048600A984068B0F5827F13D1CD
:10379000FFE70A988068B0F5004F06D0FFE70A9867
:1037A0008068B0F5806F07D1FFE70A980168086864
:1037B00020F040000860FFE70A98806AB0F5005FDB
:1037C0000FD1FFE7FFE70A980168086820F400506E
:1037D00008600A980168086840F400500860FFE734
:1037E000FFE70A99012081F85D00FFE70A990020B0
:1037F00081F85C00FFE703208DF82F000EE00698AB
:1038000018B9FFE700200590FFE7069801380690F9
:10381000FFE789E700208DF82F00FFE79DF82F00D4
:103820000CB080BD80B58AB0DDF830C0089007913B
:103830008DF81B20059305980190FDF7B1FF024616
:1038400001980C99891A08440390FDF7A9FF02908A
:10385000039840F20001C2F200010968C1F3CB31C4
:1038600048430490FFE7089800688068079908407B
:10387000401AB0FA80F040099DF81B1088425ED0D3
:10388000FFE705980130002858D0FFE7FDF788FFD3
:103890000299401A0399884204D2FFE7039800284E
:1038A00042D1FFE708980168486820F0E0004860CE
:1038B00008984068B0F5827F13D1FFE708988068C8
:1038C000B0F5004F06D0FFE708988068B0F5806F2C
:1038D00007D1FFE708980168086820F040000860F9
:1038E000FFE70898806AB0F5005F0FD1FFE7FFE7B8
:1038F00008980168086820F400500860089801687A
:10390000086840F400500860FFE7FFE708990120CD
:1039100081F85D00FFE70899002081F85C00FFE76F
:1039200003208DF827000EE0049818B9FFE7002067
:103930000390FFE7049801380490FFE793E7002025
:103940008DF82700FFE79DF827000AB080BD000032
:103950007047000080B582B0009000980138B0F147
:10396000807F03D3FFE70120019019E00098013820
:103970004EF21401CEF2000108604FF0FF300F212B
:1039800000F002F94EF21801CEF2000100200860AA
:103990004EF21002CEF20002072111600190FFE703
:1039A000019802B080BD000080B540F28400C2F2F0
:1039B000000001680131016040F28802C2F2000299
:1039C0001168013111600068B0F57A7F2EDBFFE7E6
:1039D00040F28001C2F200010120086040F284013F
:1039E000C2F200010020086040F21001C2F20001A2
:1039F000086840F20C02C2F20002106040F250105F
:103A0000C2F20000006840F25412C2F200021060DC
:103A100040F20400C2F20000006840F20802C2F264
:103A200000021060086801300860FFE740F21000F3
:103A3000C2F2000000683C2811DBFFE740F21001F1
:103A4000C2F200010020086040F25012C2F20002EF
:103A5000106801301060086801300860FFE740F22C
:103A60005010C2F2000000683C2811DBFFE740F272
:103A70005011C2F200010020086040F20402C2F2BC
:103A80000002106801301060086801300860FFE72C
:103A900040F20400C2F2000000680C280ADBFFE7D5
:103AA00040F20401C2F20001002008600868013001
:103AB0000860FFE7FDF77AFE80BD000080B594B096
:103AC00006A800903821FCF7F7FB00200590049031
:103AD000039002900190FDF721FF009801210691CB
:103AE0004FF48031079102210D9103220E920F9223
:103AF00055221092119112911391FEF705FA18B107
:103B0000FFE7FDF701FBFFE70F2001900320029084
:103B1000002003900490059001A80421FDF7E2FF26
:103B200018B1FFE7FDF7F0FAFFE714B080BD000021
:103B30004EF68851CEF20001086840F4700008602B
:103B400070470000FFE7FEE781B08DF803009DF9A4
:103B5000030000280ED4FFE79DF9031001F01F02B7
:103B6000012090404A094EF20011CEF2000141F8C6
:103B70002200FFE701B070474EF60C50CEF2000075
:103B80000068C0F30220704782B08DF807000091F2
:103B90009DF9070000280AD4FFE7009800019DF96D
:103BA00007104EF20042CEF2000288540BE000985B
:103BB00000019DF8071001F00F014EF61452CEF2ED
:103BC00000028854FFE702B07047000083B0029003
:103BD000029800F0070000904EF60C51CEF2000162
:103BE0000868019001984FF6FF021040019001987B
:103BF000009A40EA02200022C0F2FA5210430190DB
:103C00000198086003B0704710B584B0002002909E
:103C10000390FDF7D9FDFFF751FFFFF70BFCFFF70E
:103C2000DDFBFFF743FCFFF7FBF8FFF7F9F802991C
:103C30006A461F2010604FF48C72F0230846FFF78D
:103C4000A7F8FCF711FCFDF7AFF9FFE740F28000A1
:103C5000C2F20000006801282ED1FFE740F2080000
:103C6000C2F20000007840F25411C2F2000109785B
:103C700040F20C02C2F20002127840F20403C2F2D7
:103C800000031B7840F2501CC2F2000C9CF800C0EC
:103C900040F2100EC2F2000E9EF80040EE46CEF842
:103CA0000440CEF800C0FCF797FD40F28001C2F25C
:103CB000000100200860FFE7C8E7000082B08DF82F
:103CC00007008DF8061001200090FFE79DF8060020
:103CD000411E8DF8061030B1FFE79DF807100098DF
:103CE00048430090F2E7009802B0704703B401988F
:103CF0004100009850EAC12018BF04204A0D18BFA7
:103D000040F0010040F2FF72B2EB515F08BF40F09B
:103D10000200012808BF052002B070470000000023
:103D200010B52F499FED2C1B2DED020B84B005988B
:103D300020F000408842D8BF9DED040B2DDD2949BD
:103D4000884209D1049840B94FF00100FCF7E3FA2A
:103D500000F0A2FC06B010BD05DB9DED040B00F0E9
:103D60008FFC06B010BD68469DED040B00F0A0F876
:103D700010F0030004BF9DED021B9DED000B0CD065
:103D800001280ED09DED021B9DED000B022817D0DF
:103D9000012000F0DDFB06B010BD00F0A5FA06B072
:103DA00010BD9DED021B9DED000B012000F0D0FB2E
:103DB00051EC100B00F09CFC06B041EC100B10BD58
:103DC00000F092FA51EC100B00F092FC06B041ECBE
:103DD000100B10BD000000000000000000000000FB
:103DE000FB21E93F0000F07F10B52F499FED2C1B10
:103DF0002DED020B84B0059820F000408842DCBF16
:103E000000209DED040B32DD2849884209D1049839
:103E100040B94FF00100FCF77EFA00F03DFC06B01F
:103E200010BD05DB9DED040B00F02AFC06B010BDB3
:103E300068469DED040B00F03BF810F0030011D034
:103E4000012818D09DED021B9DED000B02281AD011
:103E500000F04AFA51EC100B00F04AFC06B041ECBD
:103E6000100B10BD9DED021B9DED000B012000F01D
:103E70006FFB06B010BD9DED021B9DED000B00F029
:103E800033FA06B010BD012000F062FB51EC100BBC
:103E900000F02EFC06B041EC100B10BD000000003D
:103EA0000000000000000000FB21E93F0000F07F5F
:103EB0002DE9F14F04462DED020B2DED088B8AB054
:103EC0009FEDE70B80ED020B139EE74826F00045BF
:103ED00085420ADC9DED120B002084ED000B0AB038
:103EE000BDEC088B03B0BDE8F08FE0489FEDE0AB80
:103EF0009FEDE1BBA84247DDE14F9FEDE39B9FEDC6
:103F0000E48B9DED120B53EC1A2B51EC100B002E91
:103F10001CDD00F091FF41EC100BBD4208D053ECCA
:103F20001B2B51EC100B00F087FFC4E900010BE0E4
:103F300053EC192B51EC100B00F07EFF53EC182BB7
:103F400000F07AFFC4E900010120C8E700F00EFC90
:103F500041EC100BBD4208D053EC1B2B51EC100B65
:103F600000F004FCC4E900010BE053EC192B51EC08
:103F7000100B00F0FBFB53EC182B00F0F7FBC4E92F
:103F800000014FF0FF30AAE7C348A84279DB9DED5E
:103F9000120B51EC100B00F09FFB41EC180B9FED46
:103FA000C00B53EC102B00F03DFE9FEDBF1B53ECFC
:103FB000112B00F0DBFB00F0DBFD074600F007FEF5
:103FC00041EC190B53EC1A2B00F02CFE53EC182B80
:103FD00000F026FF41EC180B53EC1B2B51EC190B96
:103FE00000F020FEDFF8C8A241EC100B4FEA155894
:103FF0000125FA4453EC102B51EC180B00F01CFF78
:10400000032DC4E900013DD0C1F30A5005EB451171
:10401000A8EB00001139814234DA0AEB051BB0EE3F
:1040200048AA9BED000BF0EE68AA53EC102B51EC64
:10403000190B00F0F7FD41EC1B0B51EC1A0B53EC84
:104040001B2B00F0F9FE41EC180B51EC1A0B53EC52
:10405000182B00F0F1FE53EC1B2B00F0EDFE9BED56
:10406000020B41EC1A0B53EC102B51EC190B00F026
:10407000D9FD53EC1A2B00F0DFFE41EC100B6D1C48
:10408000B8E70EE0002EA8BF3846BFF628AF94ED83
:10409000000B51EC100B00F02BFBC4E9000178423F
:1040A0001DE7C6F3130040F4801EC6F30A50A0F2C9
:1040B000F530471100F01F05C5F12000DDF848B0CC
:1040C00008900020069007900520EC467949002DC5
:1040D00007EB0002794408BF51F8221009D051F8CB
:1040E000223001EB8201AB404A68089922FA01F1C3
:1040F0001943A1FB0E26A1FB0B131A449A4234BFAD
:104100000123002303EB06080CEB8003D3E901A68F
:104110000E448E4234BF0121002192448A4411B1E1
:10412000924502D903E0924501D2012100E000212D
:10413000C3E901A641444CF82010011EA0F1010082
:10414000C4DC029800F10050850F0298DDE9036796
:104150008000DDF8148000F03AFD41EC1A0B304687
:1041600000F04CFD9FED541B53EC112B00F05AFD59
:1041700041EC1B0B384600F041FD9FED511B53EC09
:10418000112B00F04FFD41EC180B404600F036FDBE
:104190009FED4D1B53EC112B00F044FD41EC190B2E
:1041A00051EC180B53EC192B00F0E0FA53EC1B2BDD
:1041B00000F0DCFA53EC1A2B00F0D8FACDE9080134
:1041C000002008909DED080B53EC1A2B51EC100BBE
:1041D00000F032FE53EC1B2B00F02EFE53EC182B9C
:1041E00000F02AFE53EC192B00F01AFE9FED381B4D
:1041F00053EC112B00F016FD9FED370B41EC180B23
:1042000053EC102B9DED080B51EC100B00F00AFD48
:1042100053EC182B00F0AAFA9FED310B41EC180B70
:1042200053EC102B9DED080B51EC100B00F0FAFC39
:1042300053EC182B00F09AFA41EC100B139810F085
:10424000004F06D06D4251EC100B00F051FA41ECDA
:10425000100B284684ED000B41E600000000000032
:104260000000000000000000FB21E93F7CD9024073
:1042700000004054FB21F93F3163621A61B4D03D24
:10428000FB21F93F000000000000601A61B4D03D3E
:104290007370032E8A19A33BFB21394100000000F3
:1042A00083C8C96D305FE43F000000000000E03FBC
:1042B0005A110000A8100000000000000000103E8D
:1042C000000000000000103C000000000000103A58
:1042D000182D4454FB21F93D3326A611460B113C01
:1042E00000000054FB21F93D10B52DED040B2DED20
:1042F000088B82B0B0EE419AF0EE619A0B9820F0F4
:1043000000449FED4BABB4F1795F11DA9DED0A0BE0
:1043100051EC100B00F02CFC002801BFB0EE4A0A53
:10432000F0EE6A0A02B0BDEC088B04BF04B010BD09
:104330009DED0A0B53EC102B51EC100B00F072FCAE
:1043400041EC180B3C480621B0EE480AF0EE680A32
:10435000784400F081F853EC182B51EC100B00F06E
:1043600061FC9DED0A0B41EC1B0B53EC192B51EC3E
:10437000100B00F057FC41EC190B53EC1B2B51ECCC
:10438000180B00F04FFC53EC192B00F055FD9FED7E
:104390002C0B41EC190B53EC102B51EC180B00F0CB
:1043A00041FC41EC100B2848844210DA53EC192BE5
:1043B00051EC100B00F040FD53EC1A2B00F030FDD7
:1043C00041EC100B02B0BDEC088B04B010BD1F48CF
:1043D000A042BCBF9FED1E1B8DED001B06DBA4F5AC
:1043E00000100190002000909DED001B51EC100B7F
:1043F00053EC112B00F020FD9DED000B41EC180B50
:1044000053EC102B51EC1A0B00F016FD41EC1A0B7B
:1044100053EC192B51EC180B00F00EFD53EC1A2B3A
:1044200000F0FEFC41EC100BCCE7000000000000A7
:10443000000000000000F03FCC0D00000000000074
:10444000000000000000E03F3333D33F0000E93FAD
:10445000000000000000D23F70B504462DED028B35
:104460004D1E00EBC500B0EE408AF0EE608A90ED84
:10447000000B35F0060017D053EC182B51EC100B45
:1044800000F0D0FB41EC100B6D1E04EBC50090ED6D
:10449000001B51EC100B53EC112B00F067F941ECB1
:1044A000100B35F00600E7D1022D36D0042D1CD0BC
:1044B000062D1CBFBDEC028B70BD53EC182B51ECCC
:1044C000100B00F0AFFB94ED0A1B53EC112B00F026
:1044D0004DF953EC182B00F0A5FB94ED081B53ECA1
:1044E000112B00F043F941EC100B53EC182B51EC5D
:1044F000100B00F097FB94ED061B53EC112B00F012
:1045000035F953EC182B00F08DFB94ED040B53ECB4
:10451000102B00F02BF941EC100B53EC182B51EC45
:10452000100B00F07FFB94ED021B53EC112B00F0FD
:104530001DF953EC182B00F075FB94ED001B53ECA8
:10454000112B00F013F9BDEC028B41EC100B70BD88
:1045500031B504462DED040B2DED0A8BB0EE41BABA
:10456000F0EE61BA0B989DED0A0B20F00040B0F11F
:10457000795F0DDA51EC100BFFF7B8FB042808BF88
:1045800000F09AF89DED0A0BBDEC0A8B05B030BD2A
:1045900053EC102B51EC100B00F044FB41EC180BCA
:1045A0009DED0A0B53EC182B51EC100B00F03AFB6D
:1045B00041EC190B2C48B0EE480AF0EE680A0521D0
:1045C0007844FFF749FF9FED2ACBB0EE40AAF0EE0A
:1045D00060AA9CB353EC1C2B51EC190B00F022FB8E
:1045E00041EC1C0B53EC1A2B51EC190B00F01AFB8D
:1045F0009FED210B41EC190B53EC102B51EC1B0BD5
:1046000000F010FB53EC192B00F016FC53EC182BA8
:1046100000F008FB53EC1B2B00F00EFC53EC1C2BA2
:1046200000F00AFC9DED0A1B53EC112B00F0F8FB87
:10463000BDEC0A8B05B041EC100B30BDFFE753EC2D
:104640001A2B51EC180B00F0EDFA53EC1C2B00F078
:104650008DF853EC192B00F0E5FA9DED0A1B53EC95
:10466000112B00F083F8E3E75C0C00000000000071
:10467000495555555555C5BF000000000000E03FA5
:1046800010B553EC102B51EC100B00F06FF841EC0F
:10469000100B10BD000000009FED050B10B553EC92
:1046A000102B51EC100B00F009F941EC100B10BD70
:1046B00000000000000000009FED050B10B553EC5A
:1046C000102B51EC100B00F0ADFA41EC100B10BDAB
:1046D000000000000000001082B0CDE9000121F0D0
:1046E000004001909DED000B02B051EC100B7047A3
:1046F00081F00041704780F00040704721F0004198
:10470000704720F00040704721F0004201F0004364
:10471000A2F16052B2F5801F28BFD2F17F6C0BD995
:104720005FEA001C43EAC20242EB507018BF7047B8
:1047300028BF20F001007047B2F5801FBCBF1846AB
:1047400070474FEA410C1CF5001F02D2084600F0EA
:10475000DFBC70B500F010FB00000089FFF7F6BF6A
:104760004FF00040A0F580007047000010B591EABE
:10477000030F48BF83F0004300F16683841A71EB96
:10478000030C05D2121943EB0C03001B61EB0C0167
:104790004FEA1154A4EB135CDFF81CE11EEA430F4F
:1047A00018BF9EEA445F00F0748021EA045123EAB6
:1047B0000E0343F48013DCF1200E32D322FA0CFEF8
:1047C00010EB0E0023FA0CFE41EB0E01CCF1200E93
:1047D00003FA0EFE10EB0E00CCF1200E51F1000199
:1047E000B1F5801F32D201EB045112FA0EF2BDE88E
:1047F000104058BF7047401C38BF5FEA420218BFE4
:104800007047002814BF20F0010041F100014FEA79
:10481000410313F5001F38BF7047A1F1C04100F0FC
:10482000F9BA012A43EB0302ACF1200CDCF11F0EB4
:1048300032BF4FF0000E23FA0CF310EB030041EBF4
:104840000451B4EB115FD0D0A1EB045101F58011FC
:10485000490801EB04515FEA30000ED350F100002B
:1048600038BF12FA0EFE08D1BDE81040C9E7401C5F
:1048700038BF5FEA4202CAD1C3E7BDE810404FEA41
:10488000410313F5001F38BF7047A1F1C04100F08C
:10489000C1BA9EEA445F08D011EA5E0FBDE810403D
:1048A00004BF01F0004100207047BDE8104070B522
:1048B00000F062FA64FBBE3E0000E0FF2DE9C0415B
:1048C00030B4DFF8A4C23CEA111418BF3CEA131458
:1048D00000F0ED801CEA111481EA030544EAD57466
:1048E00018BF1CEA131500F0C880A4EB050404F1FE
:1048F0007F7404F500344FF0004545EAC12145EAD4
:10490000C32341EA505143EA52534FEAC0204FEAD1
:10491000C222994208BF904200F09D804FEA136581
:104920000FF24416765D4FEA134506FB05F7C7F113
:10493000807706FB07F74FEAD737A7FB0368764275
:10494000A7FB06CEC8F5803838BFA8F1010807FBE1
:1049500008E6A6FB028C4FF0000EE6FB03CEDCF16E
:10496000000CCEF1004E38BFAEF1010EA6FB0C5884
:104970004FF00007E6FB0E87A1FB08C6A0FB07CEA1
:1049800016EB0E064FF0000545F10005E1FB07654B
:1049900015F1E04E7EBFA4F580345FEA46066D4116
:1049A00016F1800745F100054FEA172747EA05672A
:1049B0004FEA15254FEA0666A6F1DE46B6F1805F9E
:1049C00020D9384605EBC47124F0010C01EB0C1121
:1049D000BCF1FE6F02D8F0BCBDE8008124425CBF90
:1049E00001F5801E9EEAC47F02D4F0BCBDE80081C0
:1049F000244200F13980A1F1C041F0BCBDE8004182
:104A000000F008BA4FEAD02040EA41504FEAD121E5
:104A10004FEAD22242EA43524FEAD323A7FB02864F
:104A200007FB036605FB02661EEA0E0F58BFA6EBE6
:104A30000056B6EB00564FEA520E4EEAC37E18EB14
:104A40000E0E56EB530EBCD518EB02085E417F1CD0
:104A500055F10005B5E74FF480154FF000074FF012
:104A600000064FF00008ACE701F1C04101F0004141
:104A70004FF00000F0BCBDE800810CEA131511EA0C
:104A80000C1F00D00CE013EA0C1F00F026804FF042
:104A9000000081EA030101F00041F0BCBDE80081A3
:104AA000F0BCBDE8004181EA030100F0B3B9F0BCFD
:104AB000BDE8004170B500F05FF900BF097EFC3E23
:104AC00000F007B84FF0000081EA030101F0004157
:104AD000704781EA030100F09DB9F0BCBDE80041D8
:104AE00022494FF000007047FFFDFBF9F7F5F4F2A3
:104AF000F0EEEDEBE9E8E6E4E3E1E0DEDDDBDAD879
:104B0000D7D5D4D3D1D0CFCDCCCBCAC8C7C6C5C4D6
:104B1000C2C1C0BFBEBDBCBBBAB9B8B7B6B5B4B3ED
:104B2000B2B1B0AFAEADACABAAA9A8A8A7A6A5A4D8
:104B3000A3A3A2A1A09F9F9E9D9C9C9B9A9999989C
:104B40009797969595949393929191908F8F8E8E3F
:104B50008D8C8C8B8B8A89898888878786858584CC
:104B600084838382828181800000FF070000F87FB8
:104B70004FEA41034FEA5353A3F58063D3F11E0379
:104B8000C8BFD3F1210C0CDD4FF0004242EAC12234
:104B900042EA505232FA03FC8CEAE17CACEBE17061
:104BA0007047102BC4BF0020704703F5787CBCF120
:104BB000FF3F04D06FF0004282EA2100704770B5D9
:104BC00000F0DAF84992248000207047F2E710F0F4
:104BD000004248BF4042B0FA80F310FA03F10AD015
:104BE000C3F11D0303F5806302EB03524FEA41500A
:104BF00002EBD12170474FF000007047B0FA80F30C
:104C000010FA03F10AD0C3F11D0303F580634FEAE4
:104C100003524FEA415002EBD12170474FF00000A0
:104C20007047000070B5DFF848C11CEA111E1EBFB6
:104C30001CEA13159EEA0C0F95EA0C0F00F06F802A
:104C400081EA03044EEAD47EAE4421EA4C1123EA01
:104C50004C1341F4801143F48013AEF17F7EA1FB2D
:104C6000024CA0FB0365361955EB0C05A1FB034C68
:104C70004CF10003A0FB021C16EB0C06654153F13E
:104C80000003094218BF46F0010613F4007F0BD160
:104C90004FEA03314FEA053041EA155140EA165018
:104CA00034036FF003020AE04FEAC3214FEAC52044
:104CB00041EA555140EA5650F4026FF0020202EB0D
:104CC0002E4201EB025585EACE710AD05FEA440C10
:104CD00018BF24F0004450F1000041F1000120EA27
:104CE000D47040F2FE7C624500D270BDA84214BF71
:104CF0004FF080444FF04044002E08BF0024BEF126
:104D0000806FA8BFA1F1C041BDE8704080F28280F1
:104D100001F1C04101F000414FF0000070470CEA82
:104D200013159EEA0C0F18BF95EA0C0F06D081EA06
:104D3000030E4FF000000EF0004170BD00F01CF8B3
:104D40008900013E00F007B800F009B84FEA430CB3
:104D50005FEA5C5C08D081EA030100F05BB84FEACF
:104D6000410C5FEA5C5CF6D102494FF000007047ED
:104D70000000FF070000F87F0EF1020E2EF0030E78
:104D80005EF8046B364205D4012A43EB030515F5A2
:104D9000001F12D8012841EB010C1CF5001F0CD894
:104DA0000ED14FEAD17C0CEB4C0C0CF1020C15F53A
:104DB000001F08BF4CEBD37C04E04FF0080C01E06F
:104DC0004FEAD37C0CEB4C0526FA05F606F00706F5
:104DD000B6F1040C06D20EEB860CBDE870404CF028
:104DE000010C6047DFE80CF0090B02024FF00041B4
:104DF000A1F500214FF0000070BD194610460128B2
:104E000051EB010418BFD4F5001484BF002001F059
:104E1000004170BD0808A0F500114FEA310170474C
:104E200010B591EA030F81F000413FF5A7AC83F084
:104E3000004300F009B8000010B591EA030F48BF25
:104E400083F000433FF59AAC841A71EB030C07D250
:104E50008CF0004C121943EB0C03001B61EB0C01AE
:104E60004FEA1154A4EB135CDFF8A4E11EEA430FF0
:104E700018BF9EEA445F00F0B48021EA045123EA9F
:104E80006E035242C3EB6E0338BF5B1EDCF1200E93
:104E900025D322FA0CFE10EB0E0043FA0CFE41EB78
:104EA0000E01CCF1200E03FA0EFE10EB0E00CCF139
:104EB000200E51F1000129D401EB045112FA0EF237
:104EC000BDE8104058BF7047401C1CBFB2F1004FF6
:104ED000704700280CBF491C20F00100704712EBFE
:104EE000020E43EB030218BF4FF0010E4EEA4202DE
:104EF000ACF1200CDCF11E0E56D943FA0CFE10EB7F
:104F00000E00CCF11E0E51F1FF31D5D50EF1010E80
:104F100012FA0EFE404141EB010101EB445C5FEAF5
:104F20005C5C10D901EB045110EBDE7038BFBEF1B0
:104F3000004FBDE8104018BF704700280CBF491C47
:104F400020F00100704734D24FEAD42C24F40064DE
:104F500011F500111BD0B1FA81F20B3AA41AA41E6C
:104F6000D2F12003914030FA03F31943904001EB52
:104F7000CC7101EB0451002CBDE81040A8BF704774
:104F800001F1C04101F000414FF000007047B0FA5C
:104F900080F310FA03F102D1BDE810407047E41A23
:104FA000173C4805C90AE2E701EB0451BDE810408F
:104FB000704749104FEA300001EB0451BDE8104042
:104FC00002E04FF0000170474A0008BF0042F8D0ED
:104FD000B2F5001F28BF704701F000414FF00000FC
:104FE00070479EEA445F07D011EA5E0FBDE81040AB
:104FF00004BF002100207047BDE8104070B5FFF7E6
:10500000BBFE00BF40DFF63E104683F00041704714
:105010000000E0FF43004FEAD30C4FEA3C0C434052
:105020001FBF40070CF1605113F0FE4F70471CF09A
:10503000006F03D10CF00041002070470CF00043DA
:1050400043EA507040EACC0010B500F00EF800BF03
:10505000000000924FEA0001FFF7DCBE4FF0004174
:10506000A1F500214FF0000070470EF1020E2EF066
:10507000030E5EF8044B244204D44FEA4102B2F11D
:105080007F4F11D84FEA4003B3F17F4F0CD80ED1B8
:105090004FEAD07C0CEB4C0C0CF1020CB2F17F4FC0
:1050A00008BF4CEBD17C04E04FF0080C01E04FEA64
:1050B000D17C0CEB4C0324FA03F404F00704B4F1A4
:1050C000040C06D20EEB840CBDE810404CF0010C31
:1050D0006047DFE80CF0070802024FF00040A0F53F
:1050E000800010BD0846420018BFD2F1807288BF10
:1050F00000F0004010BDF1EE100A4FF6FF71C0F253
:10510000C03120EA010040F04070E1EE100A704723
:10511000FF2141EAD050C0057047000000000000A8
:105120004C5555555555A53F7751C1166CC156BFC5
:105130009015CB19A001FA3EAD529C804F7E92BED5
:10514000C4B1B4BD9EEE213ED43888BEE9FAA8BDF4
:1051500000004054FB21F93F3163621A61B4D03D35
:105160000000601A61B4D03D7370032E8A19A33B0E
:105170000000002E8A19A33BC14920259A837B3960
:1051800000000000000000006E83F9A22915444EC3
:10519000D15727FCC0DD34F5999562DB4190433C43
:1051A000AB6351FE61C5BBDE3A6E24B7E0D24D421F
:1051B000EA2E49061C92D1091CEB1DFE3EA729B11F
:1051C000F53582E88444BB2E26709CE9417E5FB4AD
:1051D00039D69139F43953838B5F849C3B28F9BDD0
:1051E000FF97F81F0F9805DE8B112FEF1F6D0A5ADE
:1051F000CF7E366DB709CB27663F464F2DEA5F9EBF
:10520000C7BA27757BF1E5EBF739073DEA92528A79
:10521000B15FFB6B085D8D1F463003560000000038
:10522000A6F810111111813FD561C119A0012ABF43
:105230007DFEB157E31DC73EEB9C2B8AE6E55ABEC7
:105240007CD5CF5A3AD9E53D0000000000000000AF
:105250000102030406070809000000000000000026
:105260000000000000000404040404000004000026
:1052700014140A00000000000000000000000A0AE8
:105280001F0A0A1F0A0A000000040E1505060C1466
:10529000150E0400000012150D152E2C2A12000008
:1052A0000000040A0A361515291600000202010042
:1052B00000000000000000001008080404040404BA
:1052C0000808100002040408080808080404020082
:1052D00000000004150E0E15040000000000000878
:1052E000083E080800000000000000000000000068
:1052F0000202010000000000003F0000000000006A
:10530000000000000000000000020000002010105B
:10531000080804040202010000000E11111111110D
:10532000110E00000000040604040404040E000032
:1053300000000E1111080402011F000000000E11F0
:10534000100C1010110E00000000080C0C0A091FB0
:10535000081C000000001F01010F1110110E0000B9
:1053600000000C12010D1311110E000000001E10A0
:10537000080804040404000000000E11110E1111AD
:10538000110E000000000E11111916100906000080
:105390000000000004000000000400000000000005
:1053A00000040000000404000000100804020204CD
:1053B00008100000000000003F003F000000000057
:1053C00000000204081010080402000000000E1182
:1053D000110804040004000000001C22292D2D1DCA
:1053E000221C0000000004040C0A0A1E12330000F4
:1053F00000000F12120E1212120F000000001E11F8
:1054000001010101110E000000000F121212121210
:10541000120F000000001F120A0E0A02121F0000E5
:1054200000001F120A0E0A020207000000001C12F0
:1054300001013911120C000000003312121E121269
:105440001233000000001F0404040404041F0000C1
:1054500000003E080808080808080907000037127D
:105460000A060A12123700000000070202020202B6
:10547000223F000000003B1B1B1B151515350000CB
:1054800000003B1216161A1A1217000000000E1127
:1054900011111111110E000000000F12120E020264
:1054A0000207000000000E1111111117190E18004B
:1054B00000000F12120E0A121237000000001E1117
:1054C00001060810110F000000001F150404040459
:1054D000040E00000000331212121212120C00000F
:1054E00000003312120A0A0C040400000000151513
:1054F00015150E0A0A0A000000001B0A0A04040A15
:105500000A1B000000001B0A0A0A0404040E000023
:1055100000001F0908040402121F00001C040404F8
:105520000404040404041C00000202040404080827
:10553000081010000E0808080808080808080E00DF
:10554000040A00000000000000000000000000004D
:10555000000000000000003F020400000000000006
:105560000000000000000000000C121C123C0000B3
:1055700000030202020E1212120E000000000000D0
:10558000001C1202120C000000181010101C121245
:10559000123C000000000000000C121E021C000063
:1055A00000182404041E0404041E0000000000006F
:1055B000003C120C021C221C00030202020E1212FA
:1055C000123700000004040000060404040E00006A
:1055D00000080800000C0808080808070003020279
:1055E000021A0A060A130000000704040404040453
:1055F000041F000000000000000F15151515000025
:1056000000000000000F121212370000000000001E
:10561000000C1212120C000000000000000F121209
:10562000120E020700000000001C1212121C10389B
:1056300000000000001B060202070000000000003E
:10564000001E020C101E000000000004041E0404D2
:10565000041C000000000000001B1212123C00009D
:1056600000000000001B0A0A040400000000000003
:105670000015150E0A0A000000000000001B0A04B5
:105680000A1B000000000000003312120C08040383
:1056900000000000001E0804041E0000180808088E
:1056A000080C08080808180008080808080808086E
:1056B0000808080806040404040804040404060096
:1056C00016090000000000000000000000000000BB
:1056D00000000000000000000000000000000008C2
:1056E00008080808080800001818000000486C2482
:1056F0001200000000000000000000000000002474
:1057000024247F1212127F12121200000000081CC3
:105710002A2A0A0C1828282A2A1C08080000002215
:10572000251515152A585454542200000000000C69
:105730001212120A76252911916E00000006060445
:1057400003000000000000000000000000402010E6
:10575000100808080808081010204000000204087B
:1057600008101010101010080804020000000000BB
:1057700008086B1C1C6B08080000000000000000FB
:10578000080808087F08080808000000000000005A
:1057900000000000000000000606040300000000F6
:1057A00000000000FE0000000000000000000000FB
:1057B000000000000000000006060000000080401D
:1057C0004020201010080804040202000000001805
:1057D0002442424242424242241800000000000893
:1057E0000E08080808080808083E00000000003CF1
:1057F0004242422020100804427E00000000003C8B
:105800004242201820404042221C0000000000209C
:105810003028242422227E20207800000000007EF0
:105820000202021A26404042221C000000000038FA
:105830002402021A26424242241800000000007E80
:105840002222101008080808080800000000003C88
:105850004242422418244242423C00000000001808
:105860002442424264584040241C000000000000D2
:1058700000001818000000001818000000000000C8
:1058800000000008000000000008080400000040BC
:10589000201008040204081020400000000000004E
:1058A00000007F0000007F000000000000000002F8
:1058B0000408102040201008040200000000003CF2
:1058C0004242464020101000181800000000001C42
:1058D000225A555555552D42221C00000000000843
:1058E00008181414243C224242E700000000001F64
:1058F0002222221E22424242221F00000000007C7F
:105900004242010101010142221C00000000001F6F
:105910002242424242424242221F00000000003F17
:105920004212121E12120242423F00000000003FCB
:105930004212121E12120202020700000000003C76
:105940002222010101712122221C0000000000E737
:10595000424242427E42424242E700000000003E94
:105960000808080808080808083E00000000007C35
:1059700010101010101010101010110F00000077F0
:1059800022120A0E0A1212222277000000000007DB
:105990000202020202020202427F000000000077BF
:1059A000363636362A2A2A2A2A6B0000000000E3FF
:1059B00046464A4A52525262624700000000001CAA
:1059C0002241414141414141221C00000000003F71
:1059D000424242423E020202020700000000001C56
:1059E0002241414141414D53321C60000000003FC3
:1059F0004242423E1212222242C700000000007CB6
:105A00004242020418204042423E00000000007F53
:105A10004908080808080808081C0000000000E7FA
:105A20004242424242424242423C0000000000E701
:105A30004242222424141418080800000000006BBD
:105A4000494949495555362222220000000000E705
:105A5000422424181818242442E70000000000778C
:105A60002222141408080808081C00000000007E08
:105A70002120101008040442423F0000007808086A
:105A8000080808080808080808087800000002024A
:105A9000040408080810102020204040001E1010A8
:105AA000101010101010101010101E0000384400BC
:105AB00000000000000000000000000000000000E6
:105AC0000000000000000000000000FF00060800C9
:105AD00000000000000000000000000000000000C6
