:020000040800F2
:10000000D8070020790200080D41000825350008B6
:1000100009410008A1030008F15400080000000095
:10002000000000000000000000000000E948000897
:1000300065040008000000007D41000841490008F7
:10004000930200089302000893020008930200083C
:10005000930200089302000893020008930200082C
:10006000930200089302000893020008A503000809
:10007000930200089302000893020008930200080C
:100080009302000800000000930200089302000899
:1000900093020008930200089302000893020008EC
:1000A00093020008930200089302000893020008DC
:1000B00093020008930200089302000893020008CC
:1000C00093020008930200089302000893020008BC
:1000D00093020008930200089302000893020008AC
:1000E000930200089302000893020008930200089C
:1000F0009302000893020008930200080000000029
:1001000000000000930200080000000093020008B5
:100110009302000800000000930200089302000808
:10012000930200089302000893020008930200085B
:100130009302000800000000000000009302000885
:100140009302000893020008000000000000000075
:10015000000000000000000000000000000000009F
:1001600000000000000000000000000093020008F2
:1001700093020008000000000000000000000000E2
:1001800000000000930200080000000000000000D2
:10019000000000000000000000000000000000005F
:1001A0000000000000000000930200089302000815
:1001B0009302000893020008930200080000000068
:1001C0000000000093020008000000000000000092
:1001D000930200089302000800F002F800F03CF8D7
:1001E0000AA090E8000C82448344AAF10107DA4592
:1001F00001D100F031F8AFF2090EBAE80F0013F0A8
:10020000010F18BFFB1A43F001031847A0A000001C
:10021000C0A00000103A24BF78C878C1FAD85207AD
:1002200024BF30C830C144BF04680C607047000070
:100230000023002400250026103A28BF78C1FBD8EF
:10024000520728BF30C148BF0B6070471FB506F08A
:1002500082FD1FBD10B510BD00F06CF81146FFF710
:10026000F5FF05F0A7F900F08AF803B4FFF7F2FFF5
:1002700003BC00F08DF8000009488047094800479A
:10028000FEE7FEE7FEE7FEE7FEE7FEE7FEE7FEE746
:10029000FEE7FEE704480549054A064B70470000A3
:1002A000F14A0008D9010008D8010020D807002031
:1002B000D8030020D80300204FF0000200B51346F9
:1002C00094469646203922BFA0E80C50A0E80C5076
:1002D000B1F12001BFF4F7AF090728BFA0E80C5027
:1002E00048BF0CC05DF804EB890028BF40F8042B20
:1002F00008BF704748BF20F8022B11F0804F18BF8D
:1003000000F8012B704770477047704710B500F038
:1003100009F8006810BD10B5044600F003F8046049
:1003200010BD0000004870473800002000487047AA
:10033000380000207546FFF7F9FFAE460500694614
:10034000534620F00700854618B020B5FFF7A2FFFE
:10035000BDE820404FF000064FF000074FF00008C6
:100360004FF0000BAC46ACE8C009ACE8C009ACE803
:10037000C009ACE8C00921F007018D46704710B5EF
:100380000446AFF300802046BDE81040FFF76DBF84
:1003900001491820ABBEFEE72600020070470000AE
:1003A000FFE7FEE780B540F2C000C2F2000000F0B7
:1003B00013FF80BD84B003900398006840F20741AA
:1003C000C4F20201884206D8FFE740F60000C4F2FA
:1003D0000200009005E040F62000C4F20200009008
:1003E000FFE7009802900398007808384CF6CD415A
:1003F000CCF6CC41A0FB01100009019002980399B2
:100400004A6C22F0030210448864039940F680008D
:10041000C4F20200C864019800F01F010120884066
:100420000399086504B0704782B001900198007983
:100430000090009940F6FC00C4F2020000EB81003D
:1004400001994865019940F64010C4F202008865A0
:100450000098013800F01F01012088400199C8650B
:1004600002B070477047000082B0019000200090F9
:100470000198F0B9FFE740F20400C2F200000078F2
:1004800040F2B001C2F20001C87106200090FFE7FF
:10049000009800280CD4FFE7009A40F2B001C2F2A5
:1004A000000100208854FFE7009801380090EFE732
:1004B00038E007200090FFE70098002831D4FFE7DC
:1004C000019840B9FFE7009A40F2B001C2F2000182
:1004D0000020885420E0019846F26761C6F2666108
:1004E00050FB01F39A1002EBD37202EB8202A0EBF5
:1004F000420240F20400C2F20000805C009B40F225
:10050000B002C2F20002D054019850FB01F18810F1
:1005100000EBD1700190FFE7FFE7009801380090F1
:10052000CAE7FFE702B0704780B592B08C2078210F
:1005300064224FF6FF7300F0FBFC00201190FFE7F0
:1005400011980B2800F3BA80FFE71198C0EB001058
:10055000400006F06CF941EC100B9FEDBB1B53EC17
:10056000112B51EC100B06F08DF941EC100B51ECF6
:10057000100B9FEDB70B53EC102B05F0CFFF41ECA8
:10058000100B51EC100B05F0EFFE1090109806F0D8
:1005900071FB41EC100B05F057FA9FEDBB1B53ECC0
:1005A000112B51EC100B06F06DF941EC100B51ECD6
:1005B000100B9FEDAB0B53EC102B0793069205F03D
:1005C00005FF41EC100B51EC100B06F001F9ADF8F2
:1005D0003E00109806F04EFB41EC100B05F0D0F9F0
:1005E0009FEDAB1B53EC112B51EC100B06F04AF9AD
:1005F00041EC100B51EC100B9FED9D0B53EC102BAD
:100600000993089205F0E2FE41EC100B51EC100B3F
:1006100006F0DEF8ADF83C00109806F02BFB41EC3C
:10062000100B05F011FA9FED941B53EC112B51ECBC
:10063000100B06F027F9069A079B41EC100B51ECC2
:10064000100B05F0C3FE41EC100B51EC100B06F043
:10065000BFF8ADF83A00109806F00CFB41EC100B17
:1006600005F08EF99FED861B53EC112B51EC100B0E
:1006700006F008F9089A099B41EC100B51EC100B9D
:1006800005F0A4FE41EC100B51EC100B06F0A0F8A5
:10069000ADF83800BDF83E00BDF83C10BDF83A207A
:1006A000BDF83830EE464FF6FF7CCEF800C002F0C1
:1006B000C9FFFFE711980130119041E700200D902C
:1006C000FFE70D983B2800F3BA80FFE70D9800EB99
:1006D0004000400006F0ABF841EC100B9FED5A1BB8
:1006E00053EC112B51EC100B06F0CCF841EC100B35
:1006F00051EC100B9FED560B53EC102B05F00EFF39
:1007000041EC100B51EC100B05F02EFE0C900C98E8
:1007100006F0B0FA41EC100B05F096F99FED4E1B78
:1007200053EC112B51EC100B06F0ACF841EC100B14
:1007300051EC100B9FED4A0B53EC102B03930292DC
:1007400005F044FE41EC100B51EC100B06F040F8A4
:10075000ADF82E000C9806F08DFA41EC100B05F068
:100760000FF99FED411B53EC112B51EC100B06F0D0
:1007700089F841EC100B51EC100B9FED3D0B53EC45
:10078000102B0593049205F021FE41EC100B51EC67
:10079000100B06F01DF8ADF82C000C9806F06AFA64
:1007A00041EC100B05F050F99FED331B53EC112B6E
:1007B00051EC100B06F066F8029A039B41EC100B0B
:1007C00051EC100B05F002FE41EC100B51EC100B3C
:1007D00005F0FEFFADF82A000C9806F04BFA41EC4C
:1007E000100B05F0CDF89FED261B53EC112B51ECAF
:1007F000100B06F047F8049A059B41EC100B51ECE6
:10080000100B05F0E3FD41EC100B51EC100B05F063
:10081000DFFFADF82800BDF82E00BDF82C10BDF8A4
:100820002A20BDF82830EE464FF6FF7CCEF800C0F7
:1008300002F008FFFFE70D9801300D9041E712B07C
:1008400080BD00BF00BF00BF6E861BF0F9210940CC
:1008500000000000008066400000000000C057401B
:1008600000000000008061400000000000C057C090
:100870000000000000005E40000000000000594041
:1008800000000000000059C0000000000080564039
:1008900000000000008056C010B5B6B08C468646F9
:1008A000399838998DF8D7E08DF8D6C08DF8D520D5
:1008B0008DF8D4308DF8D3108DF8D2009DF8D50086
:1008C00000EB4000400005F0B2FF41EC100B51EC92
:1008D000100B9FEDFB0B53EC102B1193109205F0B6
:1008E000D1FF41EC100B51EC100B9FEDF70B53ECCB
:1008F000102B1393129205F011FE41EC100B51ECEA
:10090000100B05F031FD33909DF8D60005F08FFFF8
:1009100041EC100B8DED020B9DF8D50005F087FF23
:1009200041EC100B51EC100B9FEDE90B53EC102B2D
:100930001993189205F0F2FD9DED020B41EC110B9D
:1009400053EC112B51EC100B05F040FD41EC100B5A
:1009500051EC100B9FEDE00B53EC102B0A93099216
:1009600005F090FF109A119B41EC100B51EC100B0D
:1009700005F088FF129A139B41EC100B51EC100B01
:1009800005F0CCFD41EC100B51EC100B05F0ECFC2C
:1009900032909DF8D7004AF6AB21CAF6AA210B91F6
:1009A000A0FB0121C90801EB4101A0EB810005F08A
:1009B0003EFF41EC100B8DED040B9DF8D60005F0C9
:1009C00036FF189A199B41EC100B51EC100B05F0F7
:1009D000A5FD9DED040B41EC110B53EC112B51ECDB
:1009E000100B05F0F3FC41EC100B51EC100B9FEDDC
:1009F000BC0B53EC102B0F930E9205F043FF109A93
:100A0000119B41EC100B51EC100B05F03BFF129ABF
:100A1000139B41EC100B51EC100B05F07FFD41ECEA
:100A2000100B51EC100B05F09FFC31909DF8D2009B
:100A300000EB4000400005F0FAFE109A119B41ECDB
:100A4000100B51EC100B05F01DFF129A139B41EC9B
:100A5000100B51EC100B05F061FD41EC100B51EC4B
:100A6000100B05F081FC30909DF8D30005F0DFFEFF
:100A700041EC100B8DED060B9DF8D20005F0D7FE72
:100A8000189A199B41EC100B51EC100B05F046FD28
:100A90009DED060B41EC110B53EC112B51EC100B9F
:100AA00005F094FC099A0A9B41EC100B51EC100BD9
:100AB00005F0E8FE109A119B41EC100B51EC100B65
:100AC00005F0E0FE129A139B41EC100B51EC100B59
:100AD00005F024FD41EC100B51EC100B05F044FC2B
:100AE0000B992F909DF8D400A0FB0121C90801EBC0
:100AF0004101A0EB810005F09AFE41EC100B8DED59
:100B00000C0B9DF8D30005F092FE189A199B41EC4E
:100B1000100B51EC100B05F001FD9DED0C0B41ECA1
:100B2000110B53EC112B51EC100B05F04FFC0E9AEE
:100B30000F9B41EC100B51EC100B05F0A3FE109A2B
:100B4000119B41EC100B51EC100B05F09BFE129A1F
:100B5000139B41EC100B51EC100B05F0DFFC41EC4A
:100B6000100B51EC100B05F0FFFB2E90339806F0A4
:100B700081F841EC100B04F067FF189A199B51ECB7
:100B8000100B05F07FFE41EC100B51EC100B9FEDAC
:100B9000DA0B53EC102B2593249205F017FC41EC53
:100BA000100B51EC100B05F013FE1490339806F067
:100BB00061F841EC100B04F0E3FE51EC100B9FEDDB
:100BC000D00B53EC102B1B931A9205F05BFE41ECFB
:100BD000100B51EC100B9FEDCC0B53EC102B299309
:100BE000289205F0F3FB41EC100B51EC100B05F0D3
:100BF000EFFD149A034669461F20169008608C206A
:100C00002D9078212B9102F01DFD329806F032F8DC
:100C100041EC100B04F018FF51EC100B9FEDBC0BD6
:100C200053EC102B1E931D9205F02CFE249A259B4D
:100C300041EC100B51EC100B05F0C8FB41EC100B14
:100C400051EC100B05F0C4FD1590329806F012F827
:100C500041EC100B04F094FE51EC100B9FEDAE0B29
:100C600053EC102B20931F9205F00CFE289A299B21
:100C700041EC100B51EC100B05F0A8FB41EC100BF4
:100C800051EC100B05F0A4FD159ADDF858C02B9916
:100C900003462D98EE46CEF800C002F0D3FC319802
:100CA00005F0E8FF41EC100B04F0CEFE51EC100B08
:100CB0009FED9B0B53EC102B2393229200F014B862
:100CC0006E861BF0F921094000000000008066409C
:100CD0000000000000004E4000000000000018402E
:100CE0000000000000003E4005F0CCFD249A259B4A
:100CF00041EC100B51EC100B05F068FB41EC100BB4
:100D000051EC100B05F064FD1790319805F0B2FF1F
:100D100041EC100B04F034FE51EC100B9FED820BF4
:100D200053EC102B2793269205F0ACFD289A299BB3
:100D300041EC100B51EC100B05F048FB41EC100B93
:100D400051EC100B05F044FDDDF858C0179A2B99B3
:100D500003462D98EE46CEF800C002F073FC3098A2
:100D600005F088FF41EC100B04F06EFE189A199BF9
:100D700051EC100B05F086FD249A259B41EC100BDD
:100D800051EC100B05F022FB41EC100B51EC100B59
:100D900005F01EFD1C90309805F06CFF41EC100B27
:100DA00004F0EEFD1A9A1B9B51EC100B05F06AFD46
:100DB000289A299B41EC100B51EC100B05F006FB17
:100DC00041EC100B51EC100B05F002FD1C9A2B9915
:100DD00003462D98EE464FF6FF7CCDF8A8C0CEF81E
:100DE00000C002F02FFC2F9805F044FF41EC100BDF
:100DF00004F02AFE1D9A1E9B51EC100B05F042FDDB
:100E0000249A259B41EC100B51EC100B05F0DEFAF7
:100E100041EC100B51EC100B05F0DAFC21902F98EF
:100E200005F028FF41EC100B04F0AAFD1F9A209B4F
:100E300051EC100B05F026FD289A299B41EC100B74
:100E400051EC100B05F0C2FA41EC100B51EC100BF9
:100E500005F0BEFC219ADDF8A8C02B9903462D9819
:100E6000EE46CEF800C002F0EDFB2E9805F002FF32
:100E700041EC100B04F0E8FD229A239B51EC100B7F
:100E800005F000FD249A259B41EC100B51EC100B52
:100E900005F09CFA41EC100B51EC100B05F098FC9E
:100EA0002C902E9805F0E6FE41EC100B04F068FD46
:100EB000269A279B51EC100B05F0E4FC289A299BFD
:100EC00041EC100B51EC100B05F080FA41EC100BCB
:100ED00051EC100B05F07CFCDDF8A8C02B992C9A86
:100EE00003462D98EE46CEF800C002F0ABFB36B0BC
:100EF00010BD00BF00BF00BF0000000000806140C7
:100F00000000000000004EC00000000000005E4035
:100F1000000000000000444000000000000044C049
:100F2000000000000000344000000000000034C059
:100F300080B584B0ADF80E00ADF80C108DF80B2024
:100F4000ADF80830002001909DF80B000090FFE7FD
:100F500001980099884200F38480FFE7BDF80E00F5
:100F60000099401ABDF80C10019A891ABDF80820A2
:100F700080B289B202F0FEFBBDF80E000099084471
:100F8000BDF80C10019A891ABDF8082080B289B208
:100F900002F0F0FBBDF80E000199401ABDF80C10EC
:100FA000009A1144BDF8082080B289B202F0E2FB39
:100FB000BDF80E000199401ABDF80C10009A891A6C
:100FC000BDF8082080B289B202F0D4FBBDF80E0053
:100FD00000990844BDF80C10019A1144BDF808208E
:100FE00080B289B202F0C6FBBDF80E000199084438
:100FF000BDF80C10009A891ABDF8082080B289B299
:1010000002F0B8FBBDF80E0001990844BDF80C10C1
:10101000009A1144BDF8082080B289B202F0AAFB00
:10102000BDF80E000099401ABDF80C10019A114449
:10103000BDF8082080B289B202F09CFB0198013013
:10104000019001980099494300FB00109DF80B1096
:101050004943884204DDFFE7009801380090FFE72C
:1010600076E704B080BD000080B586B00120059011
:10107000FFE705980C2800F38A80FFE70598C0EB8E
:101080000010400005F0D3FB41EC100B9FED421B1C
:1010900053EC112B51EC100B05F0F4FB41EC100B51
:1010A00051EC100B9FED3E0B53EC102B05F036FA74
:1010B00041EC100B51EC100B05F056F9049004981C
:1010C00005F0D8FD41EC100B04F0BEFC9FED361B83
:1010D00053EC112B51EC100B05F0D4FB41EC100B31
:1010E00051EC100B9FED320B53EC102B05F06EF909
:1010F00041EC100B51EC100B05F06AFBADF80E0043
:10110000049805F0B7FD41EC100B04F039FC9FED9D
:101110002A1B53EC112B51EC100B05F0B3FB41ECE7
:10112000100B51EC100B9FED260B53EC102B05F020
:101130004DF941EC100B51EC100B05F049FBADF8EB
:101140000C00BDF80E00BDF80C10059A46F267635E
:10115000C6F2666352FB03FC4FEA9C0303EBDC73AD
:101160000133EE464FF00C0CCEF808C04FF01F0CC8
:10117000CEF804C04FF6FF7CCEF800C0DBB292B2CE
:1011800002F04CFDFFE705980130059071E706B0CD
:1011900080BD00BF00BF00BF6E861BF0F921094073
:1011A00000000000008066400000000000805B40FE
:1011B00000000000008061400000000000805BC073
:1011C0000000000000005E4081B0EFF3108072B6B6
:1011D0000090FFE7FEE7000080B584B0039003981D
:1011E000006C006802900398006800680190029803
:1011F0000399496C01F01F01C8404007002825D51C
:10120000FFE79DF80400400700281FD5FFE703987B
:10121000006800688006002807D4FFE7039801688B
:10122000086820F004000860FFE70398016C406C38
:1012300000F01F020420904048600398006B20B12A
:10124000FFE70398016B8847FFE76EE00298039978
:10125000496C01F01F01C840800700282FD5FFE727
:101260009DF804008007002829D5FFE7039800684F
:101270000068800600280BD4FFE70398016808681F
:1012800020F00A0008600399012081F82500FFE79B
:101290000398016C406C00F01F02022090404860EF
:1012A000FFE70399002081F82400FFE70398C06A54
:1012B00020B1FFE70398C16A8847FFE734E002984E
:1012C0000399496C01F01F01C8400007002829D587
:1012D000FFE79DF804000007002823D5FFE70398E7
:1012E0000168086820F00E0008600398026C406CEA
:1012F00000F01F01012000FA01F151600399C86359
:10130000039981F82500FFE70399002081F8240064
:10131000FFE70398406B20B1FFE70398416B8847D4
:10132000FFE700E0FFE7FFE7FFE704B080BD000054
:1013300080B584B00290029820B9FFE701208DF8B3
:101340000F009CE00298006840F20741C4F20201DD
:10135000884218D8FFE7029908684FF6F872CBF672
:10136000FD7210444CF6CD42CCF6CC42A0FB0202FA
:101370006FF0030000EA9200486402990020C4F272
:101380000200086418E0029908684FF6F832CBF6BC
:10139000FD7210444CF6CD42CCF6CC42A0FB0202CA
:1013A0006FF0030000EA92004864029940F20040A6
:1013B000C4F202000864FFE70299022081F82500C8
:1013C0000298006800680190019847F6F071884320
:1013D000019002998868D1F80CC00B694A6940EA0B
:1013E0000C00184310438A691043CA691043096A04
:1013F0000143019808430190019802990968086027
:101400000298FEF7D7FF02988068B0F5804F04D1AC
:10141000FFE7029900204860FFE702990879896C8C
:1014200008600298C16C006D48600298406888B1FD
:10143000FFE70298406804280CD8FFE70298FEF7FF
:10144000F3FF0298416D002008600298816DC06D25
:10145000486007E002990020486502998865029972
:10146000C865FFE702990020C863029A012182F84B
:101470002510029981F824008DF80F00FFE79DF8F0
:101480000F0004B080BD000080B584B0039000F070
:10149000E7F90290039801900198013048B1FFE705
:1014A00040F22C00C2F2000001680198084401904B
:1014B000FFE7FFE700F0D4F90299401A019988424A
:1014C00001D2FFE7F6E704B080BD00008BB00A90C0
:1014D000099100200890FFE7099800680899C84022
:1014E000002800F0A581FFE709980068089A01210B
:1014F0009140084007900798002800F09581FFE789
:101500000998406800F00300012807D0FFE7099818
:10151000406800F0030002282FD1FFE70A98806896
:10152000069008984100032000FA01F106988843CC
:1015300006900998C0680899490000FA01F10698D8
:101540000843069006980A9988600A9840680690B1
:101550000899012000FA01F106988843069009983D
:101560004068C0F30010089900FA01F1069808439A
:10157000069006980A994860FFE70998406800F0CD
:101580000300032818D0FFE70A98C068069008985F
:101590004100032000FA01F106988843069009985B
:1015A00080680899490000FA01F1069808430690FE
:1015B00006980A99C860FFE70998406800F00300A0
:1015C000022826D1FFE70A9808996FF0030202EA81
:1015D00051010844006A0690089800F00700810055
:1015E0000F2000FA01F106988843069009980069D7
:1015F000089901F00701890000FA01F106980843F3
:10160000069006980A99089B02EA53021144086260
:10161000FFE70A980068069008984100032000FA46
:1016200001F10698884306900998406800F003008D
:101630000899490000FA01F10698084306900698B7
:101640000A990860099880798007002800F0EB80EB
:10165000FFE7FFE741F26000C4F20200016841F0D9
:1016600001010160006800F0010005900598FFE7A6
:10167000089820F003000821C4F2010140580690A8
:10168000089800F0030081000F2000FA01F106988D
:10169000884306900A98B0F1904F03D1FFE70020ED
:1016A000049042E00A9840F20041C4F600018842EA
:1016B00003D1FFE70120039034E00A9840F60001CF
:1016C000C4F60001884203D1FFE70220029026E021
:1016D0000A9840F60041C4F60001884203D1FFE7B2
:1016E0000320019018E00A9841F20001C4F60001BD
:1016F000884203D1FFE7042000900AE00A9941F2F2
:101700000042C4F600020620914208BF0520009066
:10171000FFE700980190FFE701980290FFE7029829
:101720000390FFE703980490FFE70498089901F0FD
:101730000301890000FA01F1069808430690069813
:10174000089921F003010822C4F20102885040F2F6
:101750000840C4F201000068069007990698884383
:10176000069009988079C006002805D5FFE70799FB
:10177000069808430690FFE7069840F20841C4F235
:101780000101086040F20C40C4F2010000680690BC
:101790000799069888430690099880798006002862
:1017A00005D5FFE70799069808430690FFE70698D6
:1017B00040F20C41C4F20101086040F20440C4F25E
:1017C00001000068069007990698884306900998DA
:1017D00080798007002805D5FFE707990698084318
:1017E0000690FFE7069840F20441C4F20101086048
:1017F00040F20040C4F20100006806900799069884
:101800008843069009988079C00728B1FFE70799B7
:10181000069808430690FFE7069840F20041C4F29C
:1018200001010860FFE7FFE708980130089053E6E0
:101830000BB0704782B00190ADF802108DF8012016
:101840009DF8010028B1FFE7BDF802000199886109
:1018500004E0BDF8020001998862FFE702B070471A
:1018600040F2D010C2F200000068704740F22C0035
:10187000C2F20000026840F2D011C2F20001086812
:10188000104408607047000080B582B000208DF8D9
:101890000700032000F09AF80F2000F00DF820B1A7
:1018A000FFE701208DF8070002E000F049F8FFE7AC
:1018B0009DF8070002B080BD80B582B00190002085
:1018C0008DF8030040F22C00C2F20000006878B3EB
:1018D000FFE740F20000C2F20000006840F22C0175
:1018E000C2F200010A684FF47A71B1FBF2F1B0FB69
:1018F000F1F001F0CBF9B0B9FFE701980F280DD84E
:10190000FFE701994FF0FF30002200F047F80198FF
:1019100040F23001C2F20001086003E001208DF8BE
:101920000300FFE703E001208DF80300FFE703E079
:1019300001208DF80300FFE79DF8030002B080BD91
:1019400080B582B0FFE741F26000C4F20200016896
:1019500041F001010160006800F001000190019870
:10196000FFE7FFE741F25800C4F20200016841F0CE
:1019700080510160006800F0805000900098FFE7FF
:1019800000F006F902B080BD80B582B08DF8070086
:101990009DF9070003F0AEFD02B080BD80B586B0B2
:1019A0008DF817000491039203F0BCFD02909DF99D
:1019B0001700019002980499039A02F0A9FB0146CE
:1019C000019803F0B7FD06B080BD000080B582B07D
:1019D0000190019803F0D0FD02B080BD85B0039066
:1019E000039800285ED1FFE747F20000C4F2000030
:1019F000006800F4C060B0F5806F49D1FFE747F29E
:101A00008001C4F20001086820F48070086047F289
:101A10000002C4F200021168012060F34A21116043
:101A200040F20001C2F200010968322251434DF632
:101A30008362C4F21B32A1FB022100EB91400290B1
:101A4000FFE747F21400C4F20000016800204905D6
:101A50000029019006D5FFE70298002818BF012051
:101A60000190FFE70198C00720B1FFE70298013815
:101A70000290E6E747F21400C4F200000068400557
:101A8000002804D5FFE703208DF813007CE008E070
:101A900047F28001C4F20001086820F480700860F9
:101AA000FFE76DE00398B0F5007F5ED1FFE747F2F6
:101AB0000000C4F20000006800F4C060B0F5806F60
:101AC00049D1FFE747F28001C4F20001086840F401
:101AD0008070086047F20002C4F200021168012021
:101AE00060F34A21116040F20001C2F2000109686E
:101AF000322251434DF68362C4F21B32A1FB022114
:101B000000EB91400290FFE747F21400C4F200009E
:101B10000168002049050029009006D5FFE70298DA
:101B2000002818BF01200090FFE70098C00720B1EF
:101B3000FFE7029801380290E6E747F21400C4F28A
:101B4000000000684005002804D5FFE703208DF859
:101B5000130019E008E047F28001C4F200010868B0
:101B600040F480700860FFE709E047F20001C4F22A
:101B700000010868022262F34A200860FFE7FFE7DD
:101B800000208DF81300FFE79DF8130005B07047A3
:101B900047F20801C4F20001086840F48040086080
:101BA0007047000080B586B004900391002000903B
:101BB000049820B9FFE701208DF8170081E1039810
:101BC00042F20001C4F20201096801F00F018842EB
:101BD00016D9FFE742F20000C4F20200016821F0CA
:101BE0000F01039A11430160006800F00F00039990
:101BF000884204D0FFE701208DF8170061E1FFE77C
:101C000004980078C007002800F0A380FFE704983C
:101C10004068032839D1FFE741F20000C4F2020016
:101C200000688001002804D4FFE701208DF8170028
:101C300047E102F0A5FA019001984BF20141C0F290
:101C4000C441884220D3FFE741F20800C4F20200F9
:101C5000006810F0F00F0AD0FFE7049800788007C2
:101C6000002810D5FFE70498806860B9FFE741F2CB
:101C70000801C4F202010868082262F30710086034
:101C800080200090FFE7FFE738E0049840680228D2
:101C90000ED1FFE741F20000C4F2020000688003A9
:101CA000002804D4FFE701208DF8170009E10DE0BA
:101CB00041F20000C4F2020000684005002804D48C
:101CC000FFE701208DF81700FBE0FFE700F0FEF8CA
:101CD000019001984BF20141C0F2C44188420CD3FB
:101CE000FFE741F20801C4F202010868082262F32A
:101CF0000710086080200090FFE7FFE741F208012D
:101D0000C4F20201086820F00300049A52681043EC
:101D10000860FFF7A5FD0290FFE741F20800C4F25A
:101D20000200006800F00C0004994968B0EB810FD4
:101D30000ED0FFE7FFF794FD0299401A41F2893176
:101D4000884204D3FFE703208DF81700B9E0E4E7E9
:101D5000FFE704980078800700282CD5FFE7049857
:101D600000784007002809D5FFE741F20801C4F2D6
:101D70000201086840F4E0600860FFE7049800781A
:101D8000000700280BD5FFE741F20801C4F2020169
:101D9000086840F4E06020F460500860FFE741F21A
:101DA0000801C4F20201086820F0F000049A926869
:101DB000104308600DE00098802809D1FFE741F248
:101DC0000801C4F20201086820F0F0000860FFE793
:101DD000FFE7039842F20001C4F20201096801F032
:101DE0000F01884228D2FFE742F20001C4F202014B
:101DF000086820F00F00039A10430860FFF730FDD9
:101E00000290FFE742F20000C4F20200006800F016
:101E10000F00039988420ED0FFE7FFF721FD0299DA
:101E2000401A41F28931884204D3FFE703208DF83C
:101E3000170046E0E6E7FFE704980078400700282F
:101E40000CD5FFE741F20801C4F20201086820F452
:101E5000E060049AD26810430860FFE704980078B5
:101E6000000700280DD5FFE741F20801C4F2020186
:101E7000086820F46050049A126940EAC2000860C1
:101E8000FFE700F023F841F20801C4F202010968FB
:101E9000C9B20A0946F6A861C0F60001895C01F0E2
:101EA0001F01C84040F20001C2F20001086040F288
:101EB0003000C2F200000068FFF7FEFC8DF817004A
:101EC000FFE79DF8170006B080BD000086B041F224
:101ED0000800C4F20200006800F00C00042806D1DB
:101EE000FFE742F20040C0F2F400019069E041F2E5
:101EF0000800C4F20200006800F00C00082806D1B7
:101F0000FFE741F60030C0F2B700019058E041F21F
:101F10000800C4F20200006800F00C000C284BD14D
:101F2000FFE741F20C00C4F20200016801F0030176
:101F300004910068C1B2012000EB111002900498D6
:101F40000090022815D0FFE70098032812D1FFE780
:101F5000029941F60030C0F2B700B0FBF1F041F257
:101F60000C01C4F202010968C1F30621484305903F
:101F700011E0FFE7029942F20040C0F2F400B0FB2A
:101F8000F1F041F20C01C4F202010968C1F306212B
:101F900048430590FFE741F20C00C4F202000068DC
:101FA00000F0C061022000EB1160039005980399D6
:101FB000B0FBF1F0019002E000200190FFE7FFE7A5
:101FC000FFE7019806B07047B0B588B00690069854
:101FD00020B9FFE701208DF81F00CCE306980078B8
:101FE000C007002800F09B80FFE741F20800C4F220
:101FF0000200006800F00C00049041F20C00C4F2F2
:102000000200006800F00300039004980C2804D13B
:10201000FFE70398032804D0FFE70498082812D1AB
:10202000FFE741F20000C4F20200006880030028CC
:1020300008D5FFE70698406820B9FFE701208DF832
:102040001F0098E36AE0FFE706984068B0F5803F1C
:1020500009D1FFE741F20001C4F20201086840F42F
:102060008030086020E006984068B0F5A02F0DD1C0
:10207000FFE741F20001C4F20201086840F4802049
:102080000860086840F4803008600CE041F200010C
:10209000C4F20201086820F480300860086820F467
:1020A00080200860FFE7FFE7FFE706984068D0B1AF
:1020B000FFE7FFF7D5FB0590FFE741F20000C4F210
:1020C00002000068800300280CD4FFE7FFF7C8FB7C
:1020D0000599401A652804D3FFE703208DF81F00F7
:1020E00049E3EAE719E0FFF7BBFB0590FFE741F2A0
:1020F0000000C4F202000068800300280CD5FFE74E
:10210000FFF7AEFB0599401A652804D3FFE70320CB
:102110008DF81F002FE3EAE7FFE7FFE7FFE70698E8
:1021200000788007002840F19F80FFE741F2080017
:10213000C4F20200006800F00C00049041F20C00B0
:10214000C4F20200006800F00300039004980C2819
:1021500004D1FFE70398022804D0FFE7049804287D
:102160002CD1FFE741F20000C4F2020000684005F4
:10217000002808D5FFE70698C06820B9FFE70120CE
:102180008DF81F00F7E241F20401C4F20201086871
:1021900020F0FE40069A126940EA0260086040F2B0
:1021A0003000C2F200000068FFF786FB20B1FFE7B5
:1021B00001208DF81F00DEE2FFE754E00698C068BA
:1021C00070B3FFE741F20001C4F20201086840F475
:1021D00080700860FFF744FB0590FFE741F20000C4
:1021E000C4F202000068400500280CD4FFE7FFF7A6
:1021F00037FB0599401A032804D3FFE703208DF825
:102200001F00B8E2EAE741F20401C4F202010868E3
:1022100020F0FE40069A126940EA0260086021E060
:1022200041F20001C4F20201086820F480700860E5
:10223000FFF716FB0590FFE741F20000C4F2020031
:102240000068400500280CD5FFE7FFF709FB05995A
:10225000401A032804D3FFE703208DF81F008AE209
:10226000EAE7FFE7FFE7FFE70698007800070028A6
:1022700049D5FFE70698406910B3FFE741F29401A2
:10228000C4F20201086840F001000860FFF7E8FAB4
:102290000590FFE741F29400C4F202000068800755
:1022A00000280CD4FFE7FFF7DBFA0599401A032852
:1022B00004D3FFE703208DF81F005CE2EAE721E08A
:1022C00041F29401C4F20201086820F001000860A4
:1022D000FFF7C6FA0590FFE741F29400C4F202004E
:1022E0000068800700280CD5FFE7FFF7B9FA0599C9
:1022F000401A032804D3FFE703208DF81F003AE2B9
:10230000EAE7FFE7FFE7069800784007002840F17A
:10231000C680FFE700208DF80B0041F25800C4F2A0
:1023200002000068C000002813D4FFE7FFE741F275
:102330005800C4F20200016841F080510160006859
:1023400000F0805001900198FFE701208DF80B000C
:10235000FFE747F20000C4F200000068C005002853
:1023600022D4FFE747F20001C4F20001086840F4FC
:1023700080700860FFF774FA0590FFE747F20000ED
:10238000C4F200000068C00500280CD4FFE7FFF786
:1023900067FA0599401A032804D3FFE703208DF854
:1023A0001F00E8E1EAE7FFE7FFE7069880680128F9
:1023B00009D1FFE741F29001C4F20201086840F040
:1023C000010008601FE00698806805280DD1FFE72E
:1023D00041F29001C4F20201086840F00400086074
:1023E000086840F0010008600CE041F29001C4F27E
:1023F0000201086820F001000860086820F004006D
:102400000860FFE7FFE7FFE706988068E0B1FFE7B5
:10241000FFF726FA0590FFE741F29000C4F20200B0
:102420000068800700280ED4FFE7FFF719FA059926
:10243000401A41F28931884204D3FFE703208DF826
:102440001F0098E1E8E71BE0FFF70AFA0590FFE7B5
:1024500041F29000C4F202000068800700280ED507
:10246000FFE7FFF7FDF90599401A41F289318842EB
:1024700004D3FFE703208DF81F007CE1E8E7FFE7C6
:102480009DF80B00012809D1FFE741F25801C4F281
:102490000201086820F080500860FFE7FFE7069817
:1024A00000788006002849D5FFE70698806910B3B8
:1024B000FFE741F29801C4F20201086840F0010010
:1024C0000860FFF7CDF90590FFE741F29800C4F2EC
:1024D00002000068800700280CD4FFE7FFF7C0F96E
:1024E0000599401A032804D3FFE703208DF81F0045
:1024F00041E1EAE721E041F29801C4F202010868F3
:1025000020F001000860FFF7ABF90590FFE741F20A
:102510009800C4F202000068800700280CD5FFE78D
:10252000FFF79EF90599401A032804D3FFE703201B
:102530008DF81F001FE1EAE7FFE7FFE70698C06993
:10254000002800F01481FFE741F20800C4F2020005
:10255000006800F00C000C2800F0B080FFE706983F
:10256000C06902287CD1FFE741F20001C4F20201F8
:10257000086820F080700860FFF772F90590FFE7A7
:1025800041F20000C4F202000068800100280CD56E
:10259000FFE7FFF765F90599401A032804D3FFE721
:1025A00003208DF81F00E6E0EAE741F20C01C4F2D7
:1025B0000201086848F20C02C0F29F121040DDF8D8
:1025C00018C0DCF82020DCF82450DCF828E0DCF827
:1025D0002C306FF00F0404EB0514224342EA0E2264
:1025E000DCF8304040F2000ECFF6E07E0EEA045EEA
:1025F000AEF5001E42EA0E02DCF834E04FF07E4CED
:102600000CEA0E6C0CF17E4C42EA0C0242EAC36208
:102610001043086041F20002C4F20202106840F068
:1026200080701060086840F080700860FFF718F94B
:102630000590FFE741F20000C4F20200006880014B
:1026400000280CD4FFE7FFF70BF90599401A03287F
:1026500004D3FFE703208DF81F008CE0EAE72CE0AD
:1026600041F20001C4F20201086820F080700860A5
:10267000FFF7F6F80590FFE741F20000C4F2020010
:102680000068800100280CD5FFE7FFF7E9F80599FD
:10269000401A032804D3FFE703208DF81F006AE0E7
:1026A000EAE741F20C01C4F2020108684FF6FC723D
:1026B000CFF6EE6210400860FFE757E00698C06969
:1026C000012804D1FFE701208DF81F0053E041F2FB
:1026D0000C00C4F2020000680390039800F00300AD
:1026E0000699096A88423BD1FFE7039800F0F000A1
:1026F00006994A6A6FF00F0101EB021188422FD14F
:10270000FFE7039800F4FE400699896AB0EB012FB9
:1027100026D1FFE7039800F078400699C96AB0EB2C
:10272000C16F1DD1FFE7039800F4C00006990A6B42
:102730000021CFF6E07101EA0251A1F500118842B3
:102740000ED1FFE7039800F0C06006994A6B4FF086
:102750007E4101EA026101F17E41884204D0FFE737
:1027600001208DF81F0006E0FFE7FFE7FFE70020EC
:102770008DF81F00FFE79DF81F0008B0B0BD0000F6
:1027800080B584B00290029820B9FFE701208DF84F
:102790000F0097E00298406A60B9FFE7029840682E
:1027A000B0F5827F01D1FFE703E002990020C86104
:1027B000FFE705E002990020086102994861FFE700
:1027C000029900208862029890F85D0040B9FFE706
:1027D0000299002081F85C00029800F077F8FFE78A
:1027E0000299022081F85D0002980168086820F0D3
:1027F000400008600298C068B0F5E06F03D9FFE7B9
:102800000020019003E04FF480500190FFE7029810
:10281000C068B0F5706F0AD0FFE70298C068B0F5E5
:10282000E06F04D0FFE7029900208862FFE7029A78
:10283000009211685068D2F808C0136900F48270E1
:102840000CF4044C604403F002031844536903F091
:1028500001031844936903F400731844D36903F027
:1028600038031844136A03F080031844926A02F490
:10287000005210430860029B588B00F00400196856
:10288000DA68D3F824C05B6B0CF0100C604403F0E2
:102890000803184402F470621044019A02F4805252
:1028A0001044486002980168C86920F40060C8615B
:1028B000029900200866029A012182F85D108DF8C5
:1028C0000F00FFE79DF80F0004B080BD80B58AB00F
:1028D00009900020089007900690059004900998B0
:1028E000006843F20001C4F20101884255D1FFE7BC
:1028F000FFE741F26000C4F20200016841F4805138
:102900000160006800F4805003900398FFE7FFE740
:1029100041F24C00C4F20200016841F00101016083
:10292000006800F0010002900298FFE7A0200490E8
:1029300002200590002000900690032007900520BB
:1029400008904FF0904004A9FEF7C0FD009940F2B6
:10295000C000C2F2000001900822C4F2020202602C
:102960000B22426010228260C160802202614161BC
:102970008161C1610162FEF7DBFC18B1FFE7FEF780
:1029800023FCFFE7FFE7099840F2C001C2F2000113
:10299000416509988862FFE7FFE70AB080BD000043
:1029A00080B588B006900591ADF812200393002001
:1029B0008DF80700FFE7069890F85C00012804D125
:1029C000FFE702208DF81F005CE10699012081F8E5
:1029D0005C00FFE7FFE7FEF743FF0290BDF812003F
:1029E000ADF80400069890F85D00012804D0FFE7D8
:1029F00002208DF807003AE1059820B1FFE7BDF805
:102A0000120020B9FFE701208DF807002FE1069999
:102A1000032081F85D000699002008660599069A52
:102A20009163BDF81210069A9187BDF81210069AAC
:102A3000D187069908640699A1F844000699A1F87F
:102A40004600069908650699C86406988068B0F53E
:102A5000004F0DD1FFE706980168086820F040009C
:102A6000086006980168086840F480400860FFE745
:102A700006980068006800F04000402807D0FFE793
:102A800006980168086840F040000860FFE7069873
:102A9000C068B0F5E06F4BD9FFE70698406828B1F1
:102AA000FFE7BDF8040001280ED1FFE70698016892
:102AB000806B0088C8600699886B0230886306992D
:102AC000C88F0138C887FFE7FFE70698C08F70B34B
:102AD000FFE7069800688068800700280ED5FFE7AA
:102AE00006980168806B0088C8600699886B023080
:102AF00088630699C88F0138C88717E0FEF7B0FED3
:102B00000299401A0399884204D3FFE703980130E1
:102B100018B9FFE7039840B9FFE703208DF80700D5
:102B20000699012081F85D00A1E0FFE7CDE773E0A1
:102B30000698406828B1FFE7BDF80400012822D1BB
:102B4000FFE70698C08F02280ED3FFE706980168BA
:102B5000806B0088C8600699886B0230886306998C
:102B6000C88F0238C8870DE006980168806B00782E
:102B700008730699886B013088630699C88F0138FD
:102B8000C887FFE7FFE7FFE70698C08F002842D01D
:102B9000FFE70698006880688007002822D5FFE7D5
:102BA0000698C08F02280ED3FFE706980168806B55
:102BB0000088C8600699886B023088630699C88FC0
:102BC0000238C8870DE006980168806B00780873AA
:102BD0000699886B013088630699C88F0138C887C9
:102BE000FFE717E0FEF73CFE0299401A039988427E
:102BF00004D3FFE70398013018B9FFE7039840B901
:102C0000FFE703208DF807000699012081F85D0099
:102C10002DE0FFE7B8E7FFE706980399029A01F075
:102C2000DBFC20B1FFE7069920200866FFE7069845
:102C3000806870B9FFE7FFE7002000900698006801
:102C4000C068009006980068806800900098FFE7D0
:102C5000FFE70698006E20B1FFE701208DF807001E
:102C600004E00699012081F85D00FFE7FFE7FFE738
:102C70000699002081F85C00FFE79DF807008DF8B9
:102C80001F00FFE79DF81F0008B080BD80B582B02F
:102C90000190019801F02AFE02B080BD84B002903C
:102CA000019100200090FFE7029890F83C00012875
:102CB00004D1FFE702208DF80F0083E00299012084
:102CC00081F83C00FFE7FFE7009820F0FF00019942
:102CD000C96808430090009820F440700199896801
:102CE00008430090009820F48060019949680843E7
:102CF0000090009820F40060019909680843009052
:102D0000009820F4805001990969084300900098C8
:102D100020F400500199496908430090009820F47C
:102D200080400199096B08430090009820F47020BE
:102D30000199896940EA01400090009820F0805094
:102D40000199C969084300900298006842F6004161
:102D5000C4F20101884209D0FFE70298006843F2FB
:102D60000041C4F2010188421ED1FFE7009820F41F
:102D700070000199896A40EA01500090009820F0A3
:102D800080700199096A08430090009820F0007053
:102D90000199496A08430090009820F00050019979
:102DA000C96A08430090FFE70098029909684864DF
:102DB000FFE70299002081F83C00FFE700208DF832
:102DC0000F00FFE79DF80F0004B0704785B0039037
:102DD0000291FFE7039890F83C00012804D1FFE737
:102DE00002208DF813008CE00399012081F83C004B
:102DF000FFE7FFE70399022081F83D000398006890
:102E0000406801900398006880680090039800680B
:102E100042F60041C4F20101884209D0FFE703985D
:102E2000006843F20041C4F2010188420AD1FFE781
:102E3000019820F4700001900298416801980843BD
:102E40000190FFE701984FF68F71CFF6FF510840D0
:102E50000190029801680198084301900198039934
:102E6000096848600398006842F60041C4F2010115
:102E700088422AD0FFE703980068B0F1804F24D041
:102E8000FFE70398006840F20041C4F20001884265
:102E90001BD0FFE70398006840F60001C4F2000170
:102EA000884212D0FFE70398006843F20041C4F261
:102EB0000101884209D0FFE70398006844F200014D
:102EC000C4F2010188420ED1FFE7009820F0800093
:102ED0000090029881680098084300900098039938
:102EE00009688860FFE70399012081F83D00FFE74A
:102EF0000399002081F83C00FFE700208DF81300C3
:102F0000FFE79DF8130005B07047000080B582B060
:102F10000090009820B9FFE701208DF8070045E0F8
:102F2000009890F83D0040B9FFE70099002081F833
:102F30003C00009800F03EF8FFE70099022081F87D
:102F40003D00009951F8040B01F0DCFD00990120CF
:102F500081F84800FFE70099012081F83E000099C0
:102F600081F83F00009981F84000009981F8410004
:102F7000009981F84200009981F84300FFE7FFE7DC
:102F80000099012081F84400009981F845000099DA
:102F900081F84600009981F84700FFE70099012079
:102FA00081F83D0000208DF80700FFE79DF807003D
:102FB00002B080BD82B001900198006842F60041E5
:102FC000C4F20101884210D1FFE7FFE741F260003F
:102FD000C4F20200016841F400610160006800F47D
:102FE000006000900098FFE7FFE702B07047000024
:102FF00080B586B00490039100208DF80B00FFE7A8
:10300000049890F83C00012804D1FFE702208DF8D5
:103010001700D3E00499012081F83C00FFE7FFE7A7
:103020000499022081F83D000498006880680190AE
:1030300001984FF68871CFF6CE7108400190019843
:1030400020F47F40019001980499096888600398F2
:1030500000680090002800F09780FFE70098102893
:1030600000F09280FFE70098202800F08D80FFE7B5
:103070000098302800F08880FFE70098402876D03C
:10308000FFE70098502858D0FFE70098602861D0EB
:10309000FFE7009870282CD0FFE70098B0F5805F1C
:1030A00026D0FFE70098B0F5005F37D0FFE7009823
:1030B000B0F1101F68D0FFE700982021C0F2100186
:1030C000884261D0FFE700983021C0F210018842A9
:1030D0005AD0FFE700984021C0F21001884253D037
:1030E000FFE700987021C0F2100188424CD052E0F6
:1030F00055E004980068039B5A689968DB6801F002
:10310000CDFD0498006880680190019840F0770038
:103110000190019804990968886040E0049800686B
:10312000039B5A689968DB6801F0B8FD0498016850
:10313000886840F48040886031E004980068039A11
:103140005168D26802F082F904980068502101F0B9
:10315000BFFD24E004980068039A5168D26802F029
:103160009DF904980068602101F0B2FD17E0049811
:103170000068039A5168D26802F068F90498006800
:10318000402101F0A5FD0AE0049800680399096850
:1031900001F09EFD03E001208DF80B00FFE704998C
:1031A000012081F83D00FFE70499002081F83C00F0
:1031B000FFE79DF80B008DF81700FFE79DF817005B
:1031C00006B080BD80B588B00790002006900590BD
:1031D0000490039002900798006842F60041C4F200
:1031E000010188421FD1FFE7FFE741F24C00C4F222
:1031F0000200016841F001010160006800F0010077
:1032000001900198FFE74FF4807002900220039034
:10321000002004900590062006904FF0904002A9EF
:10322000FEF754F9FFE708B080BD000080B584B018
:1032300002900191029820B9FFE701208DF80F005C
:1032400038E0029890F83D0040B9FFE7029900206D
:1032500081F83C00029800F031F8FFE70299022063
:1032600081F83D00029951F8040B01F04BFC0298E3
:103270000168086820F008000860019A0298016857
:103280000868104308600299012081F848000299FB
:1032900081F83E00029981F83F00029981F84400CC
:1032A000029981F84500029981F83D0000208DF8CF
:1032B0000F00FFE79DF80F0004B080BD81B00090C3
:1032C00001B0704780B586B004900391029200204F
:1032D0008DF80700FFE7049890F83C00012804D11E
:1032E000FFE702208DF81700C0E00499012081F863
:1032F0003C00FFE7FFE702980090142800F2A78047
:103300000099DFE801F00BA4A4A424A4A4A43EA483
:10331000A4A457A4A4A471A4A4A48A000498006837
:10332000039901F0EDFC04980168886940F00800F9
:10333000886104980168886920F004008861039816
:1033400002690498016888691043886183E00498E1
:103350000068039901F07EFD04980168886940F4D3
:103360000060886104980168886920F48060886141
:103370000398026904980168886940EA022088611C
:1033800069E004980068039901F01CFE0498016844
:10339000C86940F00800C86104980168C86920F055
:1033A0000400C8610398026904980168C869104361
:1033B000C86150E004980068039901F0BBFE0498CE
:1033C0000168C86940F40060C86104980168C86970
:1033D00020F48060C8610398026904980168C86994
:1033E00040EA0220C86136E004980068039901F0C1
:1033F00059FF04980168086D40F0080008650498BA
:103400000168086D20F004000865039802690498BB
:103410000168086D104308651DE004980068039971
:1034200001F0AAFF04980168086D40F40060086587
:1034300004980168086D20F48060086503980269AB
:1034400004980168086D40EA0220086503E0012045
:103450008DF80700FFE7FFE70499002081F83C00A2
:10346000FFE79DF807008DF81700FFE79DF81700AC
:1034700006B080BD80B582B00090009820B9FFE70B
:1034800001208DF8070045E0009890F83D0040B914
:10349000FFE70099002081F83C00009800F03EF81A
:1034A000FFE70099022081F83D00009951F8040BD4
:1034B00001F028FB0099012081F84800FFE70099FE
:1034C000012081F83E00009981F83F00009981F8C1
:1034D0004000009981F84100009981F8420000996C
:1034E00081F84300FFE7FFE70099012081F84400DD
:1034F000009981F84500009981F84600009981F80B
:103500004700FFE70099012081F83D0000208DF879
:103510000700FFE79DF8070002B080BD81B0009072
:1035200001B07047FFE7FEE783B0029000200190F2
:10353000029940F2A000C2F2000050F82100009071
:1035400040B1FFE70098012819D0FFE70098022852
:1035500035D04AE040F21040C4F6000000680299FD
:103560000C31C840C00748B9FFE7029A40F2A001F9
:10357000C2F20001012041F82200FFE735E040F2ED
:103580001040C4F60000006802990C31C840C00722
:1035900048B1FFE7029A40F2A001C2F20001002008
:1035A00041F822000AE0029A40F2A001C2F20001B2
:1035B000022041F8220001200190FFE715E040F2CF
:1035C0001040C4F60000006802990C31C840C007E2
:1035D00048B1FFE7029A40F2A001C2F200010020C8
:1035E00041F8220000E0FFE7FFE7019803B07047D1
:1035F00080B582B0ADF80600ADF80410ADF8022039
:10360000ADF800302A2000F0C1FBBDF806001430F0
:1036100080B200F0A3FBBDF80200143080B200F0CD
:103620009DFB2B2000F0B2FBBDF8040000F096FBE0
:10363000BDF8000000F092FB2C2000F0A7FB02B0C8
:1036400080BD000080B58CB084460E98ADF82EC0C9
:10365000ADF82C10ADF82A20ADF82830ADF82600D2
:10366000002008900790BDF82A00BDF82E10401ADF
:103670000690BDF82800BDF82C10401A0590BDF842
:103680002E000190BDF82C0000900698012803DB65
:10369000FFE7012003900DE0069818B9FFE700202E
:1036A000039006E04FF0FF300390069840420690EA
:1036B000FFE7FFE70598012803DBFFE70120029001
:1036C0000DE0059818B9FFE70020029006E04FF0E2
:1036D000FF300290059840420590FFE7FFE706980B
:1036E0000599884203DDFFE70698049002E00598FB
:1036F0000490FFE70020ADF82400FFE7BDF82400A8
:1037000004990131884233DAFFE7BDF80400BDF8BF
:103710000010BDF8262000F02DF8069908980844FE
:1037200008900599079808440790089804998842DA
:1037300009DDFFE704990898401A08900399019859
:1037400008440190FFE707980499884209DDFFE7E4
:1037500004990798401A079002990098084400902D
:10376000FFE7FFE7BDF824000130ADF82400C5E70E
:103770000CB080BD80B582B0ADF80600ADF8041085
:10378000ADF80220BDF80620BDF8043010461946F9
:10379000FFF72EFFBDF8020000F0E0FA02B080BD96
:1037A00080B584B084460698ADF80EC0ADF80C1014
:1037B000ADF80A20ADF80830ADF80600BDF80E00EF
:1037C000BDF80C10BDF80A20013ABDF80830013BE5
:1037D00092B29BB2FFF70CFFBDF80C00ADF80400ED
:1037E000FFE7BDF80400BDF8081088421EDAFFE7C5
:1037F000BDF80E00ADF80200FFE7BDF80200BDF80D
:103800000A1088420BDAFFE7BDF8060000F0A6FABE
:10381000FFE7BDF802000130ADF80200EDE7FFE779
:10382000BDF804000130ADF80400DAE704B080BD53
:1038300080B592B04FF09040019040210122059256
:10384000FDF7F8FF01980821089100220492FDF786
:10385000F1FF64200290FDF717FE0198059A089980
:10386000FDF7E8FF0298FDF70FFE0298FDF70CFE4A
:10387000112000F08BFA7820FDF706FE362000F0CC
:1038800085FA702000F078FA3A2000F07FFA0520DF
:10389000069000F071FAB22000F078FA0C20039044
:1038A00000F06AFA039800F067FA049800F064FAEE
:1038B00033200B9000F060FA0B9800F05DFAB7200F
:1038C00000F064FA352000F057FABB2000F05EFAF1
:1038D000322000F051FAC22000F058FA059800F0AA
:1038E0004BFAC32000F052FA15200F9000F044FA72
:1038F000C42000F04BFA202000F03EFAC62000F071
:1039000045FA0F2000F038FAD020079000F03EFA78
:10391000A42000F031FAA12000F02EFAE02000F0FF
:1039200035FA079800F028FA089800F025FA0E20DA
:10393000099000F021FA09200A9000F01DFA0A9877
:1039400000F01AFA069800F017FA3120109000F0F3
:1039500013FA0B9800F010FA48200C9000F00CFAC3
:1039600017200D9000F008FA14200E9000F004FAD1
:103970000F9800F001FA109800F0FEF93420119031
:1039800000F0FAF9E12000F001FA079800F0F4F9EC
:10399000089800F0F1F9099800F0EEF90A9800F0A3
:1039A000EBF90A9800F0E8F90F9800F0E5F91098A3
:1039B00000F0E2F90B9800F0DFF90C9800F0DCF968
:1039C0000D9800F0D9F90E9800F0D6F90F9800F094
:1039D000D3F9109800F0D0F9119800F0CDF921201A
:1039E00000F0D4F9292000F0D1F912B080BD000018
:1039F000B0B588B094468E4604460E980D990C9A40
:103A0000ADF81E40ADF81CE08DF81BC0ADF81830C5
:103A1000ADF816208DF815108DF8140000200190D7
:103A20008DF81000BDF81E00ADF80A009DF81500D5
:103A300040088DF812009DF81220D008012101EBFA
:103A4000D2015207002A18BF08469DF815104843B6
:103A5000ADF80C009DF81B0020388DF81B00BDF858
:103A60001E00BDF81C109DF812200244013A9DF87A
:103A700015300B44013B92B29BB2FFF7B9FD0198A0
:103A8000ADF80E00FFE7BDF80E00BDF80C1088423F
:103A900080F2C180FFE79DF815000C2810D1FFE7E8
:103AA0009DF81B0000EB400146F6B860C0F6000030
:103AB00000EB8100BDF80E10405C8DF813003EE075
:103AC0009DF8150010280ED1FFE79DF81B1047F256
:103AD0002C30C0F6000000EB0110BDF80E10405C69
:103AE0008DF813002AE09DF81500182810D1FFE783
:103AF0009DF81B0000EB400147F61C10C0F60000CB
:103B000000EB0110BDF80E10405C8DF8130014E0BE
:103B10009DF8150020280ED1FFE79DF81B1048F6F0
:103B2000EC20C0F6000000EB8110BDF80E10405CE8
:103B30008DF8130000E06EE0FFE7FFE7FFE70020ED
:103B40008DF81100FFE79DF8110007285CDCFFE706
:103B50009DF8140030BBFFE79DF813009DF811108D
:103B6000C840C00728B1FFE7BDF8180000F0F6F81C
:103B700004E0BDF8160000F0F1F8FFE79DF8100032
:103B800001308DF810009DF810209DF81210B2FB46
:103B9000F1F000FB112020B9FFE700208DF81000A4
:103BA00032E02AE09DF813009DF81110C840C007CC
:103BB00048B1FFE7BDF81E00BDF81C10BDF8182085
:103BC000FFF7D8FDFFE7BDF81E000130ADF81E007D
:103BD000BDF81E00BDF80A10401A9DF81210884268
:103BE0000AD1FFE7BDF80A00ADF81E00BDF81C00C1
:103BF0000130ADF81C0007E0FFE7FFE79DF811007A
:103C000001308DF811009EE7FFE7BDF80E0001308E
:103C1000ADF80E0037E708B0B0BD0000B0B58AB00F
:103C200094468E46044610980F990E9AADF8264099
:103C3000ADF824E0ADF822C08DF82130ADF81E209B
:103C4000ADF81C108DF81B0000208DF818009DF8B1
:103C50001B1049088DF817108DF81A00FFE79DF822
:103C60001A009DF82110884276DAFFE7BDF822009D
:103C700004909DF821109DF81A00C0430844C1B279
:103C80000A2001F04BFE01460498B0FBF1F04CF61F
:103C9000CD41CCF6CC41A0FB0121C90801EB81014B
:103CA000A0EB41008DF819009DF8180070BBFFE7EC
:103CB0009DF81A009DF821100139884226DAFFE7A5
:103CC0009DF81900E8B9FFE7BDF826209DF81A0015
:103CD0009DF8171010FB0120BDF82410BDF81E3010
:103CE000BDF81C209DF81BE0EC460024CCF80840F1
:103CF000CCF804E0CCF8002080B22022FFF778FE58
:103D000024E001208DF81800FFE7FFE7BDF826202A
:103D10009DF81A009DF8171010FB0120BDF8241023
:103D20009DF819203032BDF81E30BDF81CC09DF83A
:103D30001B40EE460025CEF80850CEF80440CEF8E1
:103D400000C080B2D2B2FFF753FEFFE79DF81A0021
:103D500001308DF81A0082E70AB0B0BD80B582B09C
:103D6000ADF806009DF8070000F028F89DF8060061
:103D700000F024F802B080BD80B582B08DF8070055
:103D80009DF8070000F01AF802B080BD80B584B03D
:103D90008DF80F004FF09040019010210291002209
:103DA000FDF748FD9DF80F0000F008F80198029912
:103DB0000122FDF73FFD04B080BD000080B584B056
:103DC0008DF80F004FF090400290042101910022E5
:103DD000FDF730FD9DF80F0000F0EAFB0199029815
:103DE0000122FDF727FD04B080BD000080B584B03E
:103DF000FFE741F24800C4F20200016841F004010B
:103E00000160006800F0040003900398FFE7FFE7FB
:103E100041F24800C4F20200016841F00101016072
:103E2000006800F0010002900298FFE70B2001906B
:103E300000221146FDF7B2FD0198FDF7A5FD04B083
:103E400080BD000080B592B00020119010900F90BE
:103E50000E900D90FFE741F24C00C4F202000168A1
:103E600041F020010160006800F020000C900C98E7
:103E7000FFE7FFE741F24C00C4F20200016841F0A5
:103E800004010160006800F004000B900B98FFE74C
:103E9000FFE741F24C00C4F20200016841F0010169
:103EA0000160006800F001000A900A98FFE7FFE750
:103EB00041F24C00C4F20200016841F002010160CD
:103EC000006800F0020009900998FFE740F6000042
:103ED000C4F6000001900F21009100220692FDF728
:103EE000A9FC069A4FF0904003905C210291FDF7E7
:103EF000A1FC069A40F20040C4F600000790FF21A2
:103F00000491FDF797FC009A019806990D92012201
:103F100005920E920F9110910DA90891FDF7D6FA16
:103F2000DDF808C00398059B069A0899CDF834C0BF
:103F30000E930F921092FDF7C9FADDF810C0059BA1
:103F4000069A07980899CDF834C00E930F921092F4
:103F5000FDF7BCFA069A079808994FF470430D9341
:103F60000E920F92FDF7B2FA12B080BD80B582B00A
:103F700040F22010C2F20000019043F20001C4F2AE
:103F8000010101604FF482714160002282604FF4B0
:103F9000E061C160026142614FF4007181610821FA
:103FA000C1610262426282620723C36202634163AB
:103FB000FEF7E6FB18B1FFE7FDF706F9FFE702B0F1
:103FC00080BD000080B59EB0002001901D901C9027
:103FD0001B901A90199018901790169015901490A5
:103FE000139012901190109003A83421FCF764F9FB
:103FF000019940F28410C2F20000029042F60042A1
:10400000C4F201020260416081604FF6FF72C2603B
:10401000016141618161FEF779FF18B1FFE7FDF7AA
:10402000D3F8FFE74FF480501A9040F28410C2F2A8
:1040300000001AA9FEF7DCFF18B1FFE7FDF7C4F88E
:10404000FFE740F28410C2F20000FFF713FA18B144
:10405000FFE7FDF7B9F8FFE740F28410C2F2000075
:104060000821FFF7E3F818B1FFE7FDF7ADF8FFE728
:10407000002017901890199040F28410C2F20000AE
:1040800017A9FEF7A3FE18B1FFE7FDF79DF8FFE7BC
:1040900060201090002211921292139214921592A5
:1040A000169240F28410C2F2000010A9FFF70AF93C
:1040B00018B1FFE7FDF788F8FFE7002000900390B4
:1040C00004900590069007904FF4005108910990D4
:1040D0000A900B904FF000710C910D900E900F9084
:1040E00040F28410C2F2000003A9FEF7D7FD18B118
:1040F000FFE7FDF769F8FFE740F28410C2F2000025
:10410000FFF760F81EB080BDFFE7FEE7FFE7FEE7C0
:1041100088B0079006910592079800F00700049078
:104120000498C0F10700052803D3FFE7042001909D
:1041300004E00498C0F107000190FFE701980390A4
:1041400004980430062803D8FFE70020009003E01D
:10415000049803380090FFE70098029006980399AE
:10416000012202FA01F101390840029B98400599A9
:104170009A40013A1140084308B070477047000068
:1041800086B041F20C00C4F20200016801F00301A4
:1041900004910068C1B2012000EB11100290049854
:1041A0000090022815D0FFE70098032812D1FFE7FE
:1041B000029941F60030C0F2B700B0FBF1F041F2D5
:1041C0000C01C4F202010968C1F3062148430590BD
:1041D00011E0FFE7029942F20040C0F2F400B0FBA8
:1041E000F1F041F20C01C4F202010968C1F30621A9
:1041F00048430590FFE741F20C00C4F2020000685A
:1042000000F0C061022000EB116003900598039953
:10421000B0FBF1F00190019806B07047000000007B
:1042200080B59AB08DF867008DF866108DF865201E
:104230009DF8650000EB4000400002F0F8FA41EC08
:10424000100B51EC100B9FEDC20B53EC102B07938E
:10425000069202F017FB41EC100B51EC100B9FED96
:10426000BE0B53EC102B0993089202F057F941EC66
:10427000100B51EC100B02F077F818909DF86600C7
:1042800002F0D5FA41EC100B8DED020B9DF86500A4
:1042900002F0CDFA41EC100B51EC100B9FEDB00B7E
:1042A00053EC102B0B930A9202F038F99DED020BA0
:1042B00041EC110B53EC112B51EC100B02F086F872
:1042C00041EC100B51EC100B9FEDA70B53EC102B96
:1042D00002F0D8FA069A079B41EC100B51EC100B38
:1042E00002F0D0FA089A099B41EC100B51EC100B2C
:1042F00002F014F941EC100B51EC100B02F034F801
:1043000017909DF867004AF6AB21CAF6AA21A0FBD8
:104310000121C90801EB4101A0EB810002F087FAFD
:1043200041EC100B8DED040B9DF8660002F07FFA56
:104330000A9A0B9B41EC100B51EC100B02F0EEF8BB
:104340009DED040B41EC110B53EC112B51EC100BB8
:1043500002F03CF841EC100B51EC100B9FED840B7C
:1043600053EC102B02F08EFA069A079B41EC100BCF
:1043700051EC100B02F086FA089A099B41EC100BE5
:1043800051EC100B02F0CAF841EC100B51EC100B81
:1043900001F0EAFF1690189802F06CFC41EC100B4B
:1043A00001F052FB0A9A0B9B51EC100B02F06AFAD7
:1043B00041EC100B51EC100B9FED6F0B53EC102BDD
:1043C0000F930E9202F002F841EC100B51EC100B1F
:1043D00002F0FEF90C90189802F04CFC41EC100B26
:1043E00001F0CEFA9FED661B53EC112B51EC100B34
:1043F00002F048FA41EC100B51EC100B9FED620BF0
:1044000053EC102B1193109201F0E0FF41EC100BD4
:1044100051EC100B02F0DCF90C9A034669461F20A0
:10442000129008608C20159078211391FFF70AF9FB
:10443000179802F01FFC41EC100B01F005FB9FEDFB
:10444000541B53EC112B51EC100B02F01BFA0E9A7B
:104450000F9B41EC100B51EC100B01F0B7FF41EC3E
:10446000100B51EC100B02F0B3F90D90179802F0FD
:1044700001FC41EC100B01F083FA9FED471B53EC5C
:10448000112B51EC100B02F0FDF9109A119B41EC2D
:10449000100B51EC100B01F099FF41EC100B51EC9B
:1044A000100B02F095F90D9ADDF848C013990346F8
:1044B0001598EE46CEF800C0FFF7C4F8169802F043
:1044C000D9FB41EC100B01F0BFFA9FED351B53EC0B
:1044D000112B51EC100B02F0D5F90E9A0F9B41EC09
:1044E000100B51EC100B01F071FF41EC100B51EC73
:1044F000100B02F06DF91490169802F0BBFB41EC22
:10450000100B01F03DFA9FED281B53EC112B51ECE1
:10451000100B02F0B7F9109A119B41EC100B51EC03
:10452000100B01F053FF41EC100B51EC100B02F09B
:104530004FF9DDF848C01399149A03461598EE46D2
:10454000CEF800C0FFF77EF81AB080BD00BF00BFF4
:104550006E861BF0F92109400000000000806640D3
:104560000000000000004E40000000000000184065
:104570000000000000003E4000000000008061409C
:104580000000000000004EC00000000000005E407F
:10459000000000000000444000000000000044C093
:1045A000000000000000344000000000000034C0A3
:1045B00080B582B08DF8070040F22010C2F20000F2
:1045C0000DF1070101220A23FEF7EAF98DF8060032
:1045D0009DF8060002B080BD80B586B004900391BE
:1045E00002920498039B02996A4611604FF4C051ED
:1045F000002200F03DF848B1FFE70499086E40F052
:104600002000086603208DF817002CE00498039B17
:1046100002996A4611608021002200F0CFF848B16B
:10462000FFE70499086E40F02000086603208DF82B
:10463000170018E00498039B02996A4611604FF432
:10464000C061002200F014F848B1FFE70499086E39
:1046500040F02000086603208DF8170003E00020DA
:104660008DF81700FFE79DF8170006B080BD000029
:1046700080B58CB0DDF838C00A9009910892079394
:1046800000208DF80B0007980190FDF7E9F802462D
:1046900001980E99891A08440590FDF7E1F80490F5
:1046A0000A9800680C300390059840F20001C2F2AD
:1046B0000001096823225143090D48430690FFE792
:1046C0000A980068806809990840089988426DD066
:1046D000FFE70998B0F5C06F0AD1FFE7089838B92D
:1046E000FFE7039800788DF80B009DF80B00FFE7BB
:1046F00007980130002858D0FFE7FDF7B1F804997A
:10470000401A0599884204D2FFE70598002842D153
:10471000FFE70A980168486820F0E00048600A98BE
:104720004068B0F5827F13D1FFE70A988068B0F542
:10473000004F06D0FFE70A988068B0F5806F07D178
:10474000FFE70A980168086820F040000860FFE76A
:104750000A98806AB0F5005F0FD1FFE7FFE70A987B
:104760000168086820F4005008600A980168086829
:1047700040F400500860FFE7FFE70A99012081F844
:104780005D00FFE70A99002081F85C00FFE7032045
:104790008DF82F000EE0069818B9FFE7002005906D
:1047A000FFE7069801380690FFE789E700208DF8BB
:1047B0002F00FFE79DF82F000CB080BD80B58AB0B8
:1047C000DDF830C0089007918DF81B2005930598FF
:1047D0000190FDF745F8024601980C99891A0844A2
:1047E0000390FDF73DF80290039840F20001C2F2F9
:1047F00000010968C1F3CB3148430490FFE70898F2
:104800000068806807990840401AB0FA80F04009B3
:104810009DF81B1088425ED0FFE705980130002804
:1048200058D0FFE7FDF71CF80299401A0399884217
:1048300004D2FFE70398002842D1FFE708980168F7
:10484000486820F0E000486008984068B0F5827F32
:1048500013D1FFE708988068B0F5004F06D0FFE756
:1048600008988068B0F5806F07D1FFE70898016865
:10487000086820F040000860FFE70898806AB0F5FB
:10488000005F0FD1FFE7FFE708980168086820F490
:104890000050086008980168086840F400500860FB
:1048A000FFE7FFE70899012081F85D00FFE708991D
:1048B000002081F85C00FFE703208DF827000EE060
:1048C000049818B9FFE700200390FFE70498013827
:1048D0000490FFE793E700208DF82700FFE79DF89D
:1048E00027000AB080BD00007047000080B582B08C
:1048F000009000980138B0F1807F03D3FFE70120DA
:10490000019019E0009801384EF21401CEF2000136
:1049100008604FF0FF300F2100F00CFE4EF218013E
:10492000CEF20001002008604EF21002CEF200022A
:10493000072111600190FFE7019802B080BD0000DF
:1049400080B540F2B801C2F2000108680130086089
:1049500040F2BC00C2F20000016801310160006851
:1049600001280DDBFFE740F2BC01C2F2000100208C
:10497000086040F29C01C2F2000101200860FFE7DC
:1049800040F2B800C2F200000068B0F57A7F2EDB7A
:10499000FFE740F29801C2F200010120086040F2F6
:1049A000B801C2F200010020086040F22801C2F202
:1049B0000001086840F22402C2F20002106040F2D6
:1049C0001800C2F20000006840F22002C2F20002A9
:1049D000106040F21400C2F20000006840F21C02B5
:1049E000C2F200021060086801300860FFE740F280
:1049F0002800C2F2000000683C2811DBFFE740F20B
:104A00002801C2F200010020086040F21802C2F240
:104A10000002106801301060086801300860FFE78C
:104A200040F21800C2F2000000683C2811DBFFE7EA
:104A300040F21801C2F200010020086040F21402A6
:104A4000C2F200021068013010600868013008608E
:104A5000FFE740F21400C2F2000000680C280ADBF5
:104A6000FFE740F21401C2F200010020086008686C
:104A700001300860FFE7FCF7F9FE80BD80B594B017
:104A800006A800903821FBF717FC00200590049041
:104A9000039002900190FCF7A1FF0098012106917C
:104AA0004FF48031079102210D9103220E920F9253
:104AB00055221092119112911391FDF785FA18B1B8
:104AC000FFE7FCF781FBFFE70F2001900320029036
:104AD000002003900490059001A80421FDF762F8DE
:104AE00018B1FFE7FCF770FBFFE714B080BD0000D2
:104AF0004EF68851CEF20001086840F4700008605C
:104B00007047000083B00290019102980068009005
:104B1000029842F60041C4F2010188421DD0FFE72D
:104B20000298B0F1804F18D0FFE7029840F20041A0
:104B3000C4F20001884210D0FFE7029840F600015D
:104B4000C4F20001884208D0FFE7029843F2004116
:104B5000C4F2010188420AD1FFE7009820F07000FA
:104B6000009001984168009808430090FFE7029880
:104B700042F60041C4F20101884235D0FFE70298B5
:104B8000B0F1804F30D0FFE7029840F20041C4F20C
:104B90000001884228D0FFE7029840F60001C4F2E5
:104BA0000001884220D0FFE7029843F20041C4F29E
:104BB0000101884218D0FFE7029844F20001C4F2D4
:104BC0000101884210D0FFE7029844F20041C4F28C
:104BD0000101884208D0FFE7029844F60001C4F2C0
:104BE000010188420AD1FFE7009820F4407000904C
:104BF0000198C168009808430090FFE7009820F0F2
:104C00008000019949690843009000980299086062
:104C1000019880680299C8620198006802998862C8
:104C2000029842F60041C4F20101884220D0FFE719
:104C3000029843F20041C4F20101884218D0FFE714
:104C4000029844F20001C4F20101884210D0FFE74B
:104C5000029844F20041C4F20101884208D0FFE703
:104C6000029844F60001C4F20101884205D1FFE731
:104C70000198006902990863FFE7029901204861E1
:104C800002980069C00730B1FFE70299086920F077
:104C900001000861FFE703B07047000085B0049091
:104CA000039102920193049880680090009820F488
:104CB0007F40009003980299019A41EA0221014342
:104CC00000980843009000980499886005B07047E8
:104CD00083B00290019102988068009000984FF68E
:104CE0008F71CFF6CF71084000900198009908436A
:104CF00040F00700009000980299886003B0704768
:104D000085B0049003910498006A01900499086AA0
:104D100020F00100086204984068009004988069BF
:104D2000029002984FF68F71CFF6FE710840029004
:104D3000029820F00300029003980168029808434B
:104D40000290019820F00200019003988168019878
:104D500008430190049842F60041C4F201018842E0
:104D600020D0FFE7049843F20041C4F201018842D9
:104D700018D0FFE7049844F20001C4F20101884210
:104D800010D0FFE7049844F20041C4F201018842C8
:104D900008D0FFE7049844F60001C4F201018842FC
:104DA0000ED1FFE7019820F0080001900398C16838
:104DB000019808430190019820F004000190FFE75A
:104DC000049842F60041C4F20101884220D0FFE776
:104DD000049843F20041C4F20101884218D0FFE771
:104DE000049844F20001C4F20101884210D0FFE7A8
:104DF000049844F20041C4F20101884208D0FFE760
:104E0000049844F60001C4F20101884213D1FFE77F
:104E1000009820F480700090009820F400700090BA
:104E200003984169009808430090039881690098AD
:104E300008430090FFE7009804994860029804999D
:104E4000886103984068049948630198049908624E
:104E500005B0704785B0049003910498006A0190F2
:104E60000499086A20F010000862049840680090D5
:104E7000049880690290029848F6FF71CFF6FF61AE
:104E800008400290029820F4407002900398016854
:104E9000029840EA01200290019820F02000019041
:104EA00003988168019840EA01100190049842F645
:104EB0000041C4F20101884229D0FFE7049843F27F
:104EC0000041C4F20101884221D0FFE7049844F276
:104ED0000001C4F20101884203D1FFE70020B0B90C
:104EE000FFE7049844F20041C4F20101884203D173
:104EF000FFE7002058B9FFE7049844F60001C4F228
:104F00000101884212D1FFE7012078B9FFE701983B
:104F100020F0800001900398C168019840EA0110D8
:104F20000190019820F040000190FFE7049842F6BC
:104F30000041C4F20101884220D0FFE7049843F207
:104F40000041C4F20101884218D0FFE7049844F2FE
:104F50000001C4F20101884210D0FFE7049844F236
:104F60000041C4F20101884208D0FFE7049844F6EA
:104F70000001C4F20101884215D1FFE7009820F436
:104F800080600090009820F40060009003984169D0
:104F9000009840EA8100009003988169009840EAF7
:104FA00081000090FFE700980499486002980499F6
:104FB000886103984068049988630198049908629D
:104FC00005B0704785B0049003910498006A019081
:104FD0000499086A20F48070086204984068009080
:104FE0000498C069029002984FF68F71CFF6FE7157
:104FF00008400290029820F0030002900398016894
:10500000029808430290019820F4007001900398E0
:105010008168019840EA01200190049842F600411D
:10502000C4F20101884229D0FFE7049843F200410D
:10503000C4F20101884221D0FFE7049844F2000144
:10504000C4F20101884203D1FFE70020B0B9FFE7B5
:10505000049844F20041C4F20101884203D1FFE701
:10506000002058B9FFE7049844F60001C4F201019A
:10507000884212D1FFE7012078B9FFE7019820F4B8
:10508000006001900398C168019840EA01200190F6
:10509000019820F480600190FFE7049842F60041F7
:1050A000C4F20101884220D0FFE7049843F2004196
:1050B000C4F20101884218D0FFE7049844F20001CD
:1050C000C4F20101884210D0FFE7049844F2004185
:1050D000C4F20101884208D0FFE7049844F60001B9
:1050E000C4F20101884215D1FFE7009820F48050F6
:1050F0000090009820F400500090039841690098B7
:1051000040EA0110009003988169009840EA01107C
:105110000090FFE700980499486002980499C861DC
:10512000039840680499C86301980499086205B01F
:105130007047000085B0049003910498006A0190C4
:105140000499086A20F4805008620498406800902E
:105150000498C0690290029848F6FF71CFF6FF618B
:1051600008400290029820F4407002900398016871
:10517000029840EA01200290019820F4005001902A
:1051800003988168019840EA01300190049842F642
:105190000041C4F20101884229D0FFE7049843F29C
:1051A0000041C4F20101884221D0FFE7049844F293
:1051B0000001C4F20101884203D1FFE70020B0B929
:1051C000FFE7049844F20041C4F20101884203D190
:1051D000FFE7002058B9FFE7049844F60001C4F245
:1051E0000101884212D1FFE7012078B9FFE7019859
:1051F00020F4004001900398C168019840EA013012
:105200000190019820F480400190FFE7049842F655
:105210000041C4F20101884220D0FFE7049843F224
:105220000041C4F20101884218D0FFE7049844F21B
:105230000001C4F20101884210D0FFE7049844F253
:105240000041C4F20101884208D0FFE7049844F607
:105250000001C4F20101884215D1FFE7009820F453
:1052600080400090009820F400400090039841692D
:10527000009840EA8110009003988169009840EA04
:1052800081100090FFE70098049948600298049903
:10529000C8610398406804990864019804990862F9
:1052A00005B0704785B0049003910498006A01909E
:1052B0000499086A20F480300862049840680090DD
:1052C0000498006D029002984FF68F71CFF6FE7130
:1052D00008400290039801680298084302900198E0
:1052E00020F40030019003988168019840EA014061
:1052F0000190049842F60041C4F20101884220D096
:10530000FFE7049843F20041C4F20101884218D03B
:10531000FFE7049844F20001C4F20101884210D072
:10532000FFE7049844F20041C4F20101884208D02A
:10533000FFE7049844F60001C4F2010188420BD152
:10534000FFE7009820F480300090039841690098AE
:1053500040EA01200090FFE7009804994860029815
:105360000499086503984068049988640198049931
:10537000086205B07047000085B00490039104985E
:10538000006A01900499086A20F480100862049869
:10539000406800900498006D0290029848F6FF71F2
:1053A000CFF6FF610840029003980168029840EA36
:1053B00001200290019820F4001001900398816868
:1053C000019840EA01500190049842F60041C4F26D
:1053D0000101884220D0FFE7049843F20041C4F263
:1053E0000101884218D0FFE7049844F20001C4F29A
:1053F0000101884210D0FFE7049844F20041C4F252
:105400000101884208D0FFE7049844F60001C4F285
:10541000010188420BD1FFE7009820F48020009022
:1054200003984169009840EA81200090FFE70098C6
:1054300004994860029804990865039840680499A3
:10544000C86401980499086205B0704785B004905B
:10545000039102920498006A00900499086A20F06F
:1054600001000862049880690190019820F0F00022
:1054700001900299019840EA01100190009820F0F3
:105480000A0000900399009808430090019804993D
:10549000886100980499086205B0704785B004904F
:1054A000039102920498006A00900499086A20F01F
:1054B00010000862049880690190019820F47040FF
:1054C00001900299019840EA01300190009820F083
:1054D000A00000900399009840EA01100090019804
:1054E0000499886100980499086205B0704700002B
:1054F000FFE7FEE781B08DF803009DF90300002867
:105500000ED4FFE79DF9031001F01F020120904027
:105510004A094EF20011CEF2000141F82200FFE7E5
:1055200001B070474EF60C50CEF200000068C0F398
:105530000220704782B08DF8070000919DF90700A6
:1055400000280AD4FFE7009800019DF907104EF2E9
:105550000042CEF2000288540BE0009800019DF852
:10556000071001F00F014EF61452CEF200028854DB
:10557000FFE702B07047000083B00290029800F08D
:10558000070000904EF60C51CEF200010868019021
:1055900001984FF6FF02104001900198009A40EAEE
:1055A00002200022C0F2FA521043019001980860D4
:1055B00003B0704710B58CB0002008900B90FCF73A
:1055C00063F9FFF75BFAFEF73DFCFEF70FFCFEF711
:1055D000CDFCFEF7F7FCFEF72BF9FEF729F9089949
:1055E0006A461F2010604FF48C72F0230846FEF7C5
:1055F000D7F8FAF799FFFBF737FD089840F6140241
:10560000C4F60002116841F0080111600A9040F2EE
:105610002800C2F20000D0F800C040F21800C2F228
:105620000000026846F26761C6F2666152FB01F350
:10563000981000EBD37000EB8003A2EB43026423CD
:1056400002FB03C34FF47A7200FB023340F21400F2
:10565000C2F20000006850FB01F2911001EBD27120
:1056600001EB8102A0EB420042F2107200FB02301B
:1056700040F63542514300EB41100990FFE740F2FC
:105680009C00C2F200000068012840F0DB80FFE7C8
:105690000020FDF749FF012817D1FFE740F2140071
:1056A000C2F20000007840F21801C2F2000109784D
:1056B00040F2280CC2F2000CDCF80020531CCCF89D
:1056C0000030D2B2FEF7ACFDFFE70120FDF72CFF62
:1056D000012817D1FFE740F21400C2F20000007861
:1056E00040F21801C2F20001097840F22802C2F229
:1056F000000207921278FEF793FD079908680A30B6
:105700000860FFE70220FDF70FFF012815D1FFE732
:1057100040F21400C2F20000007840F21803C2F216
:10572000000319684A1C1A6040F22802C2F2000203
:105730001278C9B2FEF774FDFFE70320FDF7F4FE0F
:10574000012817D1FFE740F21400C2F200000078F0
:1057500040F21801C2F200010691097840F22802D5
:10576000C2F200021278FEF75BFD069908680A3063
:105770000860FFE740F22800C2F20000D0F800C045
:1057800040F21800C2F20000026846F26761C6F2F9
:10579000666152FB01F3981000EBD37000EB8003BD
:1057A000A2EB4302642302FB03C34FF47A7200FBB3
:1057B000023340F21400C2F20000006850FB01F214
:1057C000911001EBD27101EB8102A0EB420042F299
:1057D000107200FB023040F63542514300EB41109D
:1057E00009900998FAF740FE40F29C01C2F20001CC
:1057F0000020086040F21441C4F60001086820F05F
:10580000FF0008600A9A40F2B000C2F20000825C19
:1058100008681043086040F61401C4F600010868E7
:1058200020F0070008600A9A0868104308600A9888
:1058300001300A900A98082803DBFFE700200A904D
:10584000FFE7FFE740F29800C2F20000006801287D
:1058500063D1FFE740F21C00C2F20000007840F282
:105860002001C2F20001097840F22402C2F20002D3
:10587000127840F21403C2F2000305931B7840F241
:10588000180CC2F2000CCDF810C09CF800C040F219
:10589000280EC2F2000ECDF80CE09EF80040EE4655
:1058A000CEF80440CEF800C0FAF7F6FF039A049948
:1058B0000598D2F800E00B6846F26761C6F26661AF
:1058C00053FB01FC4FEAAC0202EBDC7202EB820CF0
:1058D000A3EB4C034FF0640C03FB0CEC4FF47A7316
:1058E00002FB03C3006850FB01F2911001EBD2717F
:1058F00001EB8102A0EB420042F2107200FB023089
:1059000040F63542514300EB4110099040F29801B6
:10591000C2F2000100200860FFE7B0E682B08DF817
:1059200007008DF8061001200090FFE79DF80600A3
:10593000411E8DF8061030B1FFE79DF80710009862
:1059400048430090F2E7009802B0704703B4019812
:105950004100009850EAC12018BF04204A0D18BF2A
:1059600040F0010040F2FF72B2EB515F08BF40F01F
:105970000200012808BF052002B0704700000000A7
:1059800010B52F499FED2C1B2DED020B84B005980F
:1059900020F000408842D8BF9DED040B2DDD294941
:1059A000884209D1049840B94FF00100FAF7B3FCDE
:1059B00000F0A2FC06B010BD05DB9DED040B00F06D
:1059C0008FFC06B010BD68469DED040B00F0A0F8FA
:1059D00010F0030004BF9DED021B9DED000B0CD0E9
:1059E00001280ED09DED021B9DED000B022817D063
:1059F000012000F0DDFB06B010BD00F0A5FA06B0F6
:105A000010BD9DED021B9DED000B012000F0D0FBB1
:105A100051EC100B00F09CFC06B041EC100B10BDDB
:105A200000F092FA51EC100B00F092FC06B041EC41
:105A3000100B10BD0000000000000000000000007E
:105A4000FB21E93F0000F07F10B52F499FED2C1B93
:105A50002DED020B84B0059820F000408842DCBF99
:105A600000209DED040B32DD2849884209D10498BD
:105A700040B94FF00100FAF74EFC00F03DFC06B0D3
:105A800010BD05DB9DED040B00F02AFC06B010BD37
:105A900068469DED040B00F03BF810F0030011D0B8
:105AA000012818D09DED021B9DED000B02281AD095
:105AB00000F04AFA51EC100B00F04AFC06B041EC41
:105AC000100B10BD9DED021B9DED000B012000F0A1
:105AD0006FFB06B010BD9DED021B9DED000B00F0AD
